:10000000B4C10000E3C10000E1C10000DFC1000095
:10001000DDC10000DBC10000D9C10000D7C1000074
:10002000D5C10000D3C10000D1C10000CFC1000084
:10003000CDC10000CBC10000C9C10000C7C1000094
:10004000C5C10000C3C10000C1C10000BFC10000A4
:10005000BDC10000BBC10000B9C100000C94A20BDF
:10006000B5C100000C94B70E0C94ED0EAFC10000AA
:10007000ADC10000ABC10000A9C10000A7C10000D4
:10008000A5C10000A3C10000A1C100009FC10000E4
:100090009DC100009BC1000099C1000097C10000F4
:1000A00095C1000093C1000091C100008FC1000004
:1000B0008DC100008BC1000089C1000087C1000014
:1000C00085C1000083C1000081C100007FC1000024
:1000D0007DC100007BC1000079C1000077C1000034
:1000E00075C100005C0563056A05710578058F051B
:1000F0007F058F058605FF05030607060B060F061D
:10010000130617069F0CA20C910C950C9B0CD90C96
:10011000A60CAA0CB00CB40CB80CBE0CC20CC60CCD
:10012000D90CCC0CD00CD40C00000A0B02090C0D1D
:100130000E0807030401000000000000000000009A
:1001400000000000000000000000000000000000AF
:10015000000000001211100000000000000000006C
:10016000000000000000000000000000000001028C
:1001700010202008081020401020408002010201B9
:100180000804020101020408102040808040201071
:1001900008040201800402018040201008040201CA
:1001A0000804020101020408102040800102040832
:1001B000102040800505050507050808080802020B
:1001C00002020A0A080804040404010101010101F1
:1001D00001010303030303030303040707070C0CD4
:1001E0000C0C0C0C0C0C020202020606060606069B
:1001F00006060B0B0B0B0B0B0B0B00002200250054
:1002000028002B002E0031003400020100000501FF
:1002100008010B0100002100240027002A002D0006
:100220003000330001010000040107010A014E41C2
:100230004E494E495459494E46CDCCCC3D0AD72360
:100240003C17B7D13877CC2B329595E6241FB14FA8
:100250000A000020410000C84200401C4620BCBEED
:100260004CCA1B0E5AAEC59D7400407A10F35A005A
:10027000A0724E18090010A5D4E80000E8764817CF
:100280000000E40B54020000CA9A3B000000E1F5B4
:1002900005000080969800000040420F000000A07A
:1002A0008601000000102700000000E803000000A5
:1002B000006400000000000A0000000000010000CF
:1002C0000000002C76D888DC674F0823DFC1DFAE42
:1002D00059E1B1B796E5E3E453C63AE6519976960B
:1002E000E8E6C28426EB898C9B62ED407C6FFCEFD4
:1002F000BC9C9F40F2BAA56FA5F490055A2AF75C02
:10030000936B6CF9676DC11BFCE0E40D47FEF520B3
:10031000E6B500D0ED902E0300943577050080847B
:100320001E080000204E0A000000C80C333333338F
:100330000F986E12831141EF8D2114893BE65516FB
:10034000CFFEE6DB18D1844B381BF77C1D901DA433
:10035000BBE424203284725E228100C9F124ECA126
:10036000E53D27003E021F0F550211241FBECFEFAF
:10037000D1E2DEBFCDBF00E00CBF14E0A0E0B2E0F0
:10038000E2ECF5E300E00BBF02C007900D92A8334A
:10039000B107D9F725E0A8E3B4E001C01D92AF335F
:1003A000B207E1F713E0C8E6D3E000E006C0229709
:1003B0000109FE010BBF0E948214C436D10780E000
:1003C0000807A9F70E94630F0C94D01A19CE26E0F3
:1003D00040E051EE60E070E08CE994E00E94570E3E
:1003E0008FE494E00E94450B10923A04109240046E
:1003F00080E090E0A0EFB1E480933C0490933D0452
:10040000A0933E04B0933F0481E090E090933904C0
:100410008093380440E050E060EF71E48FE494E0B2
:100420000E94550A6091380470913904882777FD3D
:100430008095982F0E94C612AB01BC018FE494E016
:100440000E94C00A41E050E060E070E08FE494E078
:10045000A8D580E090E0A4E5B3E4809345049093B0
:100460004604A0934704B0934804809341049093BA
:100470004204A0934304B09344040895CF92EF92B2
:100480000F93CC24C39485E0E82E01E028E047E0F8
:1004900061E08FE494E06AD76EE372E089E494E06F
:1004A0000F91EF90CF900C94AC1089E494E00C94F1
:1004B0004510CF92DF92EF92FF92CF93DF93CDB7AB
:1004C000DEB72C970FB6F894DEBF0FBECDBF8CE918
:1004D00094E00E94480D181619060CF08AC243E2F7
:1004E0006CE974E0CE0101960E942110BE016F5F9D
:1004F0007F4F89E494E00E94C110CE0101960E94D2
:10050000451066E072E0CE0101960E94AC1040E01A
:1005100050E0BE016F5F7F4F89E494E00E94681154
:10052000F82ECE0101960E944510FF2009F493C0D9
:100530006BE072E0CE0101960E94AC1069E474E0B9
:10054000CE0101960E945711BC018CE994E00E94F3
:10055000D50FCE0101960E9445104091450450915F
:100560004604609147047091480422E0CE0107964A
:100570000E94EC1062E372E0CE0101960E94AC1082
:10058000BE01695F7F4FCE0101960E945711BC01E9
:100590008CE994E00E94D50FCE0101960E9445108F
:1005A000CE0107960E9445104091410450914204AB
:1005B000609143047091440422E0CE0107960E94AA
:1005C000EC106FE372E0CE0101960E94AC10BE0108
:1005D000695F7F4FCE0101960E945711BC018CE9E3
:1005E00094E00E94D50FCE0101960E944510CE01E5
:1005F00007960E9445106DE472E08CE994E00E9439
:10060000E50F65E772E08CE994E00E94E50F68E988
:1006100072E08CE994E00E94E50F6EEB72E08CE9E9
:1006200094E00E94E50F6CEF72E08CE994E00E9488
:10063000E50F6EE473E08CE994E00E94E50F6DE352
:1006400072E08CE994E00E94E50F68EC73E08CE9BD
:1006500094E00E94E50F6EED73E0CE0101960E94DA
:10066000AC1040E050E0BE016F5F7F4F89E494E042
:100670000E946811F82ECE0101960E944510FF20BD
:1006800041F08FE494E00E94450B109240041092D8
:100690003A0461EE73E0CE0101960E94AC1040E096
:1006A00050E0BE016F5F7F4F89E494E00E946811C3
:1006B000F82ECE0101960E944510FF2009F142E07C
:1006C00050E060E070E089E494E00E948B1189E4DE
:1006D00094E00E94B811609345047093460480939F
:1006E0004704909348046EE372E089E494E00E942A
:1006F000D61041E050E060E070E08FE494E051D427
:1007000064EE73E0CE0101960E94AC1040E050E030
:10071000BE016F5F7F4F89E494E00E946811F82E5C
:10072000CE0101960E944510FF2079F140E355E784
:1007300060E070E08FE494E0CAD540913C045091B1
:100740003D0460913E0470913F048FE494E0ADD687
:100750006091380470913904882777FD8095982F2F
:100760000E94C612AB01BC018FE494E009D781E07E
:100770008093400480933B048FE494E0CCD56EE3F7
:1007800072E089E494E00E94D61067EE73E0CE0137
:1007900001960E94AC1040E050E0BE016F5F7F4FB9
:1007A00089E494E00E946811F82ECE0101960E941F
:1007B0004510FF2079F140ED5AE86FEF7FEF8FE4AD
:1007C00094E085D540913C0450913D0460913E04F5
:1007D00070913F048FE494E068D660913804709182
:1007E0003904882777FD8095982F0E94C612AB01A7
:1007F000BC018FE494E0C4D681E080934004109261
:100800003B048FE494E087D56EE372E089E494E0E2
:100810000E94D6106AEE73E0CE0101960E94AC10E1
:1008200040E050E0BE016F5F7F4F89E494E00E949A
:100830006811F82ECE0101960E944510FF2009F4A0
:10084000D8C042E050E060E070E089E494E00E94AB
:100850008B1189E494E00E94B81160934104709375
:10086000420480934304909344046EE372E089E46D
:1008700094E00E94D61020914504309146044091A6
:100880004704509148046091410470914204809162
:100890004304909144040E94C2116B017C0120E04A
:1008A00030E0A9010E94761318165CF420E030E0D5
:1008B00040EA51E4C701B6010E94271287FF3FC0FA
:1008C0000AC020E030E040EA51ECC701B6010E94C6
:1008D00076131816A4F580913A04811130C06DEE9C
:1008E00073E08CE994E00E94BB0F81E080933A04AE
:1008F00020E030E040E05FE360913C0470913D0413
:1009000080913E0490913F040E947A13AB01BC0198
:100910008FE494E0CAD56091380470913904660F71
:10092000771F882777FD8095982F0E94C612AB010C
:10093000BC018FE494E024D68FE494E0ECD42091C1
:100940004504309146044091470450914804609119
:1009500041047091420480914304909144040E94A8
:10096000C2116B017C0120E030E0A9010E947613E6
:1009700018165CF420E030E040EA50E4C701B6010C
:100980000E94271287FF26C00AC020E030E040EA1C
:1009900050ECC701B6010E9476131816DCF4809162
:1009A0003B04882351F08FE494E0F5D2AB01BC0105
:1009B0004C595F4F6F4F7F4F09C08FE494E0EBD2EB
:1009C000AB01BC0144565109610971098FE494E0FF
:1009D0007ED40FC081E0809340046DEF73E08CE91A
:1009E00094E00E94BB0F6CED73E08CE994E00E94F0
:1009F000E50F80914004882309F443C08FE494E01C
:100A00008AD48FE494E0B5D2161617061806190694
:100A10004CF48FE494E0ADD262307105810591050C
:100A20008CF02FC08FE494E0A4D29B01AC01882706
:100A30009927DC01821B930BA40BB50B0297A10530
:100A4000B105FCF41092400410923A04609138040D
:100A500070913904882777FD8095982F0E94C612DF
:100A6000AB01BC018FE494E08BD564E074E08CE9C9
:100A700094E00E94BB0F6CED73E08CE994E00E945F
:100A8000E50F2C960FB6F894DEBF0FBECDBFDF91F9
:100A9000CF91FF90EF90DF90CF9008950F931F9329
:100AA000DC0113960C9110E009301105C0F5F80136
:100AB000EE58FF4F0C947214DC01ED91FC91008410
:100AC000F185E02D29C0DC01ED91FC910284F385D4
:100AD000E02D22C0DC01ED91FC910484F585E02D30
:100AE0001BC0DC01ED91FC910684F785E02D14C05C
:100AF000DC01ED91FC910088F189E02D0DC0DC0155
:100B0000ED91FC910288F389E02D06C0DC01ED91A6
:100B1000FC910488F589E02D1F910F9119941F9184
:100B20000F910895CF93DF93EC01CB01BA0126E03A
:100B300030E040E050E00E945614623071058105BB
:100B4000910559F18CF46115710581059105F1F05C
:100B50006130710581059105C1F5E881F981048055
:100B6000F581E02D65E02DC06430710581059105AA
:100B700011F1D4F0653071058105910531F5E881F9
:100B8000F9810480F581E02D66E01BC0E881F981E0
:100B90000480F581E02D64E014C0E881F9810480CF
:100BA000F581E02D61E00DC0E881F9810480F581D7
:100BB000E02D63E006C0E881F9810480F581E02D35
:100BC00062E0CE01DF91CF911994DF91CF9108952A
:100BD000CF93DF93477055276627772741505109F8
:100BE000DC01CD91DC914730510528F445585F4F29
:100BF000FA010C947214EC81FD8161E01BC0EC8160
:100C0000FD8165E017C0EC81FD8164E013C0EC81DB
:100C1000FD8166E00FC0EC81FD8162E00BC0EC81DC
:100C2000FD816AE007C0EC81FD8168E003C0EC81D2
:100C3000FD8169E0DF91CF911994AF92BF92DF926D
:100C4000EF92FF920F931F93CF93DF931F92CDB735
:100C5000DEB78C01FC018381843041F0883031F0B3
:100C6000833031F0863021F022E003C024E001C05F
:100C700023E0A12CB12CE62EF12CDD24D394F80135
:100C8000EA0DFB1DC7010A2C02C0959587950A94B1
:100C9000E2F7608580FD6D2584812983C4D6FFEF4E
:100CA000AF1ABF0A2981A21650F30F90DF91CF919E
:100CB0001F910F91FF90EF90DF90BF90AF9008953C
:100CC000CF93DF93EC01E881F9810480F581E02D79
:100CD0008A81882311F062E001C060E0CE0119959D
:100CE000E881F9810480F581E02D8A81882311F063
:100CF00063E001C061E0CE0119958CA59DA59BD54F
:100D0000E881F9810480F581E02D8A81882311F042
:100D100062E001C060E0CE01DF91CF911994CF93E2
:100D2000DF93EC0120E030E0A9016C897D898E8998
:100D30009F890E94761318161CF4E8A9F9A902C02D
:100D4000EAA9FBA9DF91CF91199443705527662733
:100D50007727DC01ED91FC910480F581E02D423094
:100D600051056105710571F043305105610571054B
:100D700059F0413051056105710511F062E005C07F
:100D800063E003C061E001C060E01994CF93DF939A
:100D9000EC01CB01BA0123E030E040E050E00E94DA
:100DA0005614613071058105910581F0623071053D
:100DB0008105910591F0672B682B692BC1F4E881BF
:100DC000F9810480F581E02D64E00DC0E881F981AE
:100DD0000480F581E02D61E006C0E881F98104809E
:100DE000F581E02D62E0CE01DF91CF911994DF9182
:100DF000CF9108954370552766277727DC01ED9141
:100E0000FC910480F581E02D4230510561057105AA
:100E100071F0433051056105710559F041305105BC
:100E20006105710511F065E005C066E003C06AE088
:100E300001C069E01994CF93DF93EC018B81882383
:100E400091F0E881F9810480F581E02D60E0CE0128
:100E500019958FA58F3F39F061E0ACD56EA58FA5B0
:100E6000DF91CF91E0C5DF91CF910895CF93DF93CC
:100E7000EC018B81882321F161E08C819BD561E0BD
:100E80008D8198D58B81843011F0883031F461E008
:100E90008E8190D561E08F8106C0833011F086305D
:100EA00019F461E08E8186D58FA58F3F49F061E00E
:100EB00081D56EA581E068278FA5DF91CF91B3C55D
:100EC000DF91CF910895CF92DF92EF92FF920F932F
:100ED0001F93CF93DF93EC014CA15DA16EA17FA185
:100EE000452B462B472BD9F183D46B017C0148A5B8
:100EF00059A56AA57BA597018601041B150B260B36
:100F0000370B4CA15DA16EA17FA104171507260721
:100F1000370728F18A814C855D856E857F8588231A
:100F200029F04F5F5F4F6F4F7F4F04C04150510911
:100F3000610971094C875D876E877F87E881F98138
:100F40004C855D856E857F850680F781E02DCE011D
:100F50001995C8A6D9A6EAA6FBA681E001C080E043
:100F6000DF91CF911F910F91FF90EF90DF90CF9085
:100F700008950F931F93FC01608971898289938979
:100F80000485158526853785601B710B820B930BB5
:100F90001F910F910895FC0164857585868597855D
:100FA0000895FC014487558766877787408B518B6E
:100FB000628B738B14AA15AA16AA17AA14A215A2DB
:100FC00016A217A2148A158A168A178A08952F92D4
:100FD0003F924F925F926F927F928F929F92AF92C9
:100FE000BF92CF92DF92EF92FF920F931F93CF9316
:100FF000DF9300D000D0CDB7DEB79E838D83FC0198
:10100000C088D188E288F38884859585A685B785D0
:10101000C81AD90AEA0AFB0A6489758986899789F8
:101020009B01AC010E947A134B015C01ED81FE81B2
:10103000648D758D868D978D9B01AC010E94C311C7
:101040009B01AC01C501B4010E942B120E949312B6
:10105000C114D104E104F104A9F4623071058105E1
:1010600091050CF082C0ED81FE8114A215A216A29A
:1010700017A2148A158A168A178A14AA15AA16AAFC
:1010800017AA0CC1ED81FE8104A915A926A937A9CB
:101090001C141D041E041F040CF510161106120664
:1010A00013064CF46C157D058E059F056CF52281A9
:1010B00021115BC029C0011511052105310509F475
:1010C00054C06C157D058E059F050CF04EC0ED815A
:1010D000FE818281882309F448C03CC010161106A5
:1010E000120613060CF50027112798010C191D098B
:1010F0002E093F0960177107820793072CF4ED81D1
:10110000FE812281222389F19B01AC018827992746
:10111000DC01821B930BA40BB50BED81FE8184AB2C
:1011200095ABA6ABB7AB21C0011511052105310563
:10113000E1F08824992454018C189D08AE08BF085A
:10114000681579058A059B0584F4ED81FE8182810D
:1011500081110BC030952095109501951F4F2F4F91
:101160003F4F04AB15AB26AB37ABED81FE8184A8B6
:1011700095A8A6A8B7A881149104A104B10499F474
:1011800080AD91ADA2ADB3AD84AF95AFA6AFB7AF13
:1011900081E01C141D041E041F040CF080E0ED818E
:1011A000FE81828344C0ED81FE81C4ACD5ACE6AC47
:1011B000F7ACA7019601C701B6010E94C3112B012C
:1011C0003C01C501B4010E94C61220E030E040E8B5
:1011D00050E40E947A1320E030E040E85FE30E9490
:1011E000C3119B01AC01C301B2010E942B129B01F0
:1011F000AC01C701B6010E94C2111B012C01ED8197
:10120000FE81E05CFF4F6080718002811381930159
:10121000A8010E947613181614F431018201A3016B
:10122000B801ED81FE8144AF55AF66AF77AFFFEFF8
:101230008F1A9F0AAF0ABF0AED81FE8184AA95AA80
:10124000A6AAB7AA24AD35AD46AD57ADCA01B901BE
:1012500029833A834B835C830E949812ED81FE813F
:1012600064A375A386A397A329813A814B815C81EE
:1012700060E074E284E799E40E942B12ED81FE8124
:10128000648B758B868B978B2281211107C0DC01C3
:10129000CB01B058848B958BA68BB78B26960FB657
:1012A000F894DEBF0FBECDBFDF91CF911F910F919C
:1012B000FF90EF90DF90CF90BF90AF909F908F9076
:1012C0007F906F905F904F903F902F9008950F9375
:1012D0001F93FC010089118922893389041715079E
:1012E0002607370739F0408B518B628B738B1F9128
:1012F0000F916DCE1F910F9108950F931F93FC01D5
:101300000485158526853785400F511F621F731F81
:101310001F910F91DCCF0F931F93CF93DF93EC01BD
:10132000D2DD882311F0CE0152DE20E030E0A901A9
:101330006C897D898E899F890E942712811110C036
:1013400081E0088919892A893B894C855D856E85EC
:101350007F85041715072607370719F480E001C0B9
:1013600081E0DF91CF911F910F9108958F929F920D
:10137000AF92BF92CF92EF920F93CF93DF93EC0196
:1013800082E194E0998388836B831C861D861E8688
:101390001F86188A198A1A8A1B8A1C8A1D8A1E8A25
:1013A0001F8A812C912C80E8A82E8FE3B82E888E7E
:1013B000998EAA8EBB8E1C8E1D8E1E8E1F8E88A2AD
:1013C00099A2AAA2BBA21CA21DA21EA21FA281E0DA
:1013D00090E09DA78CA78FEF8FA718A619A61AA635
:1013E0001BA64C832D830E83EF821EA61CAA1DAA6A
:1013F0001EAA1FAA18AE19AE1AAE1BAE1CAE1DAEA9
:101400001EAE1FAEFE01E05CFF4F80829182A28281
:10141000B3821A82188619861A861B86CC2011F090
:10142000CE0124DD8C8C9D8CAE8CBF8C20E030E016
:1014300040E85FE3C501B4010E942712882359F1F7
:101440006CA97DA98EA99FA90E94C612A50194012D
:101450000E947A130E9493126CAB7DAB8EAB9FAB54
:1014600046E856E669E679E448AF59AF6AAF7BAF24
:1014700040E050E060E87FE34C8F5D8F6E8F7F8FA0
:10148000CE01DF91CF910F91EF90CF90BF90AF90B1
:101490009F908F909CCDDF91CF910F91EF90CF9047
:1014A000BF90AF909F908F900895CF92DF92EF9270
:1014B000FF920F931F93CF93DF93EC016A017B019F
:1014C00020E030E0A901C701B601C1D787FF04C001
:1014D000F7FAF094F7F8F094A7019601688D798DEA
:1014E0008A8D9B8DB4D7882309F441C0C88ED98ECC
:1014F000EA8EFB8E8E01005C1F4FA701960160E013
:1015000074E284E799E4A7D7F8016083718382834A
:1015100093838CA99DA9AEA9BFA9181619061A060E
:101520001B062CF56C897D898E899F899B01AC01F6
:101530000E947A136B017C016C8D7D8D8E8D9F8D49
:101540009B01AC0120D79B01AC01C701B60183D739
:10155000EAD76CAB7DAB8EAB9FABCE01DF91CF9169
:101560001F910F91FF90EF90DF90CF9030CDDF91E2
:10157000CF911F910F91FF90EF90DF90CF90089542
:101580004F925F926F927F928F929F92AF92BF9293
:10159000CF92DF92EF92FF92CF93DF93EC016A013B
:1015A0007B0120E030E0A901C701B60150D78823B4
:1015B00009F45CC020E030E0A901C701B60147D7BB
:1015C00087FF04C0F7FAF094F7F8F0948C8C9D8CA8
:1015D000AE8CBF8CA7019601C501B40138D7882312
:1015E00009F444C06CA97DA98EA99FA9CFD72B016E
:1015F0003C01A7019601C501B4012DD79B01AC01A7
:10160000C301B2010E947A138ED76CAB7DAB8EAB57
:101610009FABA701960160E070E080E090E41BD7EB
:101620000E94E11326E53EE04DE25FE30E947A135B
:1016300020E034E244E759E40E947A1368AF79AFBE
:101640008AAF9BAFCC8EDD8EEE8EFF8ECE01DF910A
:10165000CF91FF90EF90DF90CF90BF90AF909F9091
:101660008F907F906F905F904F90B1CCDF91CF9132
:10167000FF90EF90DF90CF90BF90AF909F908F90B2
:101680007F906F905F904F9008958F929F92AF924E
:10169000BF92CF92DF92EF92FF92CF93DF93EC0154
:1016A0008C889D88AE88BF8820E030E0A901C50104
:1016B000B401CDD6882309F43AC0A5019401C5012F
:1016C000B4010E947A136B017C016C8D7D8D8E8D2F
:1016D0009F8D9B01AC0157D69B01AC01C701B601A0
:1016E000BAD621D76B017C018FEFC81AD80AE80A55
:1016F000F80A20E030E0A901C501B401F7D71816B7
:101700001CF4B701A60107C044275527BA014C199C
:101710005D096E097F09CE01DF91CF91FF90EF90B7
:10172000DF90CF90BF90AF909F908F90E6CDDF91EC
:10173000CF91FF90EF90DF90CF90BF90AF909F90B0
:101740008F9008951F920F920FB60F9211242F932E
:101750003F938F939F93AF93BF9380919404909105
:101760009504A0919604B09197043091930423E0DE
:10177000230F2D3720F40196A11DB11D05C026E8C9
:10178000230F0296A11DB11D20939304809394040E
:1017900090939504A0939604B09397048091980435
:1017A00090919904A0919A04B0919B040196A11D77
:1017B000B11D8093980490939904A0939A04B093D8
:1017C0009B04BF91AF919F918F913F912F910F906B
:1017D0000FBE0F901F9018952FB7F8946091940446
:1017E0007091950480919604909197042FBF08956D
:1017F0003FB7F8948091980490919904A0919A042D
:10180000B0919B0426B5A89B05C02F3F19F0019607
:10181000A11DB11D3FBF6627782F892F9A2F620F18
:10182000711D811D911D42E0660F771F881F991F52
:101830004A95D1F70895019739F0880F991F880FBD
:10184000991F02970197F1F70895789484B5826003
:1018500084BD84B5816084BD85B5826085BD85B554
:10186000816085BDEEE6F0E0808181608083E1E803
:10187000F0E010828081826080838081816080833B
:10188000E0E8F0E0808181608083E1EBF0E080813E
:1018900084608083E0EBF0E0808181608083E1E917
:1018A000F0E0808182608083808181608083E0E9D4
:1018B000F0E0808181608083E1EAF0E080818260F5
:1018C0008083808181608083E0EAF0E080818160B4
:1018D0008083E1E2F1E080818260808380818160A9
:1018E0008083E0E2F1E0808181608083EAE7F0E0DC
:1018F0008081846080838081826080838081816038
:1019000080838081806880831092C100089590E078
:10191000FC013197E231F10508F04BC0EE57FF4F63
:10192000E1C7809180008F7703C0809180008F7D18
:1019300080938000089580918000877FF9CF84B5DF
:101940008F7702C084B58F7D84BD08958091B000EB
:101950008F7703C08091B0008F7D8093B000089591
:10196000809190008F7707C0809190008F7D03C099
:1019700080919000877F8093900008958091A000CF
:101980008F7707C08091A0008F7D03C08091A00059
:10199000877F8093A0000895809120018F7707C0F2
:1019A000809120018F7D03C080912001877F8093EB
:1019B00020010895CF93DF9390E0FC01E259FE4FA0
:1019C0002491FC01EC54FE4F8491882349F190E06E
:1019D000880F991FFC01EC5EFD4FA591B4918650D4
:1019E0009E4FFC01C591D4919FB7611108C0F89436
:1019F0008C91209582238C93888182230AC0623047
:101A000051F4F8948C91322F309583238C938881F4
:101A1000822B888304C0F8948C91822B8C939FBF77
:101A2000DF91CF9108950F931F93CF93DF931F9270
:101A3000CDB7DEB7282F30E0F901E85DFE4F849185
:101A4000F901E259FE4F1491F901EC54FE4F049153
:101A50000023C1F0882319F0698359DF6981E02FE1
:101A6000F0E0EE0FFF1FE650FE4FA591B4919FB737
:101A7000F8948C91611103C01095812301C0812BD2
:101A80008C939FBF0F90DF91CF911F910F9108957D
:101A9000FC01818D228D90E0805C9F4F821B91091B
:101AA0008F7399270895FC01918D828D981731F0DD
:101AB000828DE80FF11D858D90E008958FEF9FEFE7
:101AC0000895FC01918D828D981761F0828DDF0160
:101AD000A80FB11D5D968C91928D9F5F9F73928F21
:101AE00090E008958FEF9FEF089586E19FE0892BA6
:101AF00039F080E090E0892B19F098D1811125C050
:101B000080E090E0892B41F080E090E0892B21F08B
:101B10000E94000081111CC080E090E0892B41F000
:101B200080E090E0892B21F00E940000811113C019
:101B300080E090E0892BA1F080E090E0892B81F09B
:101B40000E94000081110AC008950E940000D8CFB1
:101B50000E940000E1CF0E940000EACF0C94000038
:101B60000895FC01848DDF01A80FB11DA35ABF4F5A
:101B70002C91848D90E001968F739927848FA6898C
:101B8000B7892C93A089B1898C9180648C93938DB3
:101B9000848D981306C00288F389E02D80818F7DA3
:101BA00080830895CF93DF93EC01888D8823C1F063
:101BB000EA89FB89808185FD05C0A889B9898C9156
:101BC00086FD0EC00FB607FCF5CF808185FFF2CFF2
:101BD000A889B9898C9185FFEDCFCE01C2DFE8CF0E
:101BE000DF91CF910895CF92DF92FF920F931F93D1
:101BF000CF93DF931F92CDB7DEB76C01DC015B960C
:101C00009C915B975C968C915C97981307C050965B
:101C1000ED91FC915197808185FD31C0F601038DD6
:101C200010E00F5F1F4F0F731127F02EF601848D08
:101C3000F81210C00FB607FCF9CFD6015096ED91FF
:101C4000FC915197808185FFF1CFC601698389DFBF
:101C50006981ECCF838DE80FF11DE35AFF4F60835C
:101C6000D6015B960C935B975296ED91FC9153973E
:101C700080818062808381E058968C930DC0D6016C
:101C80005696ED91FC91579760835096ED91FC919B
:101C9000519780818064808381E090E00F90DF9194
:101CA000CF911F910F91FF90DF90CF900895BF9239
:101CB000CF92DF92EF92FF92CF93DF93EC016A0114
:101CC0007B01B22EE889F98982E08083411581EE9B
:101CD00058076105710599F060E079E08DE390E0C7
:101CE000A7019601C1D521503109410951095695E5
:101CF000479537952795211580E1380790F0E889B9
:101D0000F989108260E874E88EE190E0A7019601FD
:101D1000ABD5215031094109510956954795379561
:101D20002795EC85FD853083EE85FF852083188E11
:101D3000EC89FD89B082EA89FB898081806180839A
:101D4000EA89FB89808188608083EA89FB898081B8
:101D500080688083EA89FB8980818F7D8083DF9121
:101D6000CF91FF90EF90DF90CF90BF9008951F929A
:101D70000F920FB60F9211240BB60F922F938F93E1
:101D80009F93EF93FF93E091AC04F091AD048081B9
:101D9000E091B204F091B30482FD12C09081809171
:101DA000B5048F5F8F732091B604821751F0E091D4
:101DB000B504F0E0E456FB4F958F8093B50401C065
:101DC0008081FF91EF919F918F912F910F900BBE8A
:101DD0000F900FBE0F901F9018951F920F920FB685
:101DE0000F9211240BB60F922F933F934F935F9353
:101DF0006F937F938F939F93AF93BF93EF93FF93D3
:101E00008CE994E0AEDEFF91EF91BF91AF919F918D
:101E10008F917F916F915F914F913F912F910F9093
:101E20000BBE0F900FBE0F901F9018958CE994E099
:101E30002FDE21E0892B09F420E0822F08951092F3
:101E40009F0410929E0488EE93E0A0E0B0E080939F
:101E5000A0049093A104A093A204B093A3048CE2E5
:101E600094E090939D0480939C0485EC90E0909383
:101E7000A9048093A80484EC90E09093AB04809331
:101E8000AA0480EC90E09093AD048093AC0481ECC4
:101E900090E09093AF048093AE0482EC90E0909336
:101EA000B1048093B00486EC90E09093B3048093E7
:101EB000B2041092B5041092B6041092B7041092B6
:101EC000B80408950895C1DCFDDF0E94E701C5E76D
:101ED000DDE00E9459022097E1F307DEFACFCF92AE
:101EE000DF92EF92FF920F931F93CF93DF936C01DA
:101EF0007A01EB01E60EF71E00E010E0CE15DF05DB
:101F000061F06991D601ED91FC910190F081E02D95
:101F1000C6011995080F191FF1CFC801DF91CF91A4
:101F20001F910F91FF90EF90DF90CF900895611572
:101F3000710581F0DB010D900020E9F7AD01415002
:101F40005109461B570BDC01ED91FC910280F38196
:101F5000E02D199480E090E00895DC01ED91FC9172
:101F6000DB0114964D915C9115976D917C910280E7
:101F7000F381E02D1994DBCFDC01ED91FC91019010
:101F8000F081E02D19940F931F93CF93DF93EC0111
:101F90006DE0F2DF8C016AE0CE01EEDF800F911F71
:101FA000DF91CF911F910F9108950F931F93CF93BE
:101FB000DF93EC01D2DF8C01CE01E5DF800F911FB2
:101FC000DF91CF911F910F9108950F931F93CF939E
:101FD000DF93EC01ACDF8C01CE01D5DF800F911FC8
:101FE000DF91CF911F910F9108950F931F93CF937E
:101FF000DF93EC01F1DB688779878A879B87E8812B
:10200000F9810680F781E02DCE01199597FF14C064
:10201000E3DB088519852A853B85601B710B820BE4
:10202000930B0C811D812E813F8160177107820700
:10203000930728F38FEF9FEFDF91CF911F910F91BF
:102040000895EF92FF920F931F93CF93DF93EC01CC
:102050008B01E42E6EE372E07FD0C801C6DFFF245F
:10206000E7FCF09497FD09C08E159F0531F0682FAD
:10207000CE010AD1C801B9DFF5CFCE01DF91CF91F2
:102080001F910F91FF90EF900895FC018081918145
:1020900004C5CF93DF93EC0188819981009709F003
:1020A000FCD4198218821D821C821B821A82DF9145
:1020B000CF9108950F931F93CF93DF93EC018B0182
:1020C0006F5F7F4F8881998177D5009731F0998331
:1020D00088831B830A8381E001C080E0DF91CF9178
:1020E0001F910F910895CF93DF93EC01888199811F
:1020F000892B29F08A819B818617970758F4CE0196
:10210000D9DF882341F08C819D81892B19F4E881E6
:10211000F981108281E0DF91CF910895EF92FF92D3
:102120000F931F93CF93DF93EC017B018A01BA01D8
:10213000DADF811103C0CE01ACDF06C01D830C8342
:10214000B7018881998130D6CE01DF91CF911F915F
:102150000F91FF90EF900895FC011182108213827D
:102160001282158214826115710551F0FB010190F4
:102170000020E9F7AF0141505109461B570BCECF64
:102180000895CF93DF93EC01FB018617970751F079
:10219000608171816115710521F044815581BEDF37
:1021A00001C077DFCE01DF91CF910895CF93DF9308
:1021B000EC016115710559F0FB0101900020E9F770
:1021C000AF0141505109461B570BA8DF01C061DF29
:1021D000CE01DF91CF910895EF92FF920F931F935D
:1021E000CF93DF93CDB7DEB7A1970FB6F894DEBFDC
:1021F0000FBECDBF7C01CB01BA01F7011182108265
:10220000138212821582148242E0420F8E010F5F08
:102210001F4F8BD3BC01C701C9DFA1960FB6F8943D
:10222000DEBF0FBECDBFDF91CF911F910F91FF9009
:10223000EF900895EF92FF920F931F93CF93DF9348
:10224000EC017B010C811D816115710511F480E0A9
:1022500014C04115510581F0040F151FB80143DF6B
:102260008823A9F3288139818C819D81B701820F50
:10227000931F9AD51D830C8381E0DF91CF911F912D
:102280000F91FF90EF900895CF93DF931F921F92CD
:10229000CDB7DEB769831A8241E050E0BE016F5FBF
:1022A0007F4FC8DF0F900F90DF91CF910895CF93AC
:1022B000DF93EC01FB014481558160817181BADFBC
:1022C000811102C0CE01E5DECE01DF91CF910895EC
:1022D000FA01DB0114964D915C911597DC0114967F
:1022E0002D913C911597241B350B2E173F0780F03D
:1022F0008D919C91009761F0DB016D917C9161154E
:10230000710531F08E0F9F1F56D521E0892B09F002
:1023100020E0822F0895CF93DF93EC01CB012C8135
:102320003D816217730708F541155105F1F0B901B8
:10233000681B790B4617570708F4BA01E881F98141
:10234000261B370B3D832C83A901481B590B680FB3
:10235000791F6E0F7F1F8E0F9F1F3BD5E881F9817C
:102360008C819D81E80FF91F1082DF91CF91089534
:10237000FC0180819181009709F002C560E070E066
:10238000CB0108955058BB27AA270ED075C166D13E
:1023900030F06BD120F031F49F3F11F41EF45BC19B
:1023A0000EF4E095E7FB51C1E92F77D180F3BA171E
:1023B000620773078407950718F071F49EF58FC1C3
:1023C0000EF4E0950B2EBA2FA02D0B01B901900150
:1023D0000C01CA01A0011124FF27591B99F0593F94
:1023E00050F4503E68F11A16F040A22F232F342FDC
:1023F0004427585FF3CF469537952795A795F0402A
:102400005395C9F77EF41F16BA0B620B730B840B3E
:10241000BAF09150A1F0FF0FBB1F661F771F881FF6
:10242000C2F70EC0BA0F621F731F841F48F487954E
:1024300077956795B795F7959E3F08F0B3CF93953D
:10244000880F08F09927EE0F979587950895D9D0B2
:1024500008F481E008950CD00FC107D140F0FED000
:1024600030F021F45F3F19F0F0C0511139C1F3C0D1
:1024700014D198F39923C9F35523B1F3951B550B48
:10248000BB27AA2762177307840738F09F5F5F4F47
:10249000220F331F441FAA1FA9F333D00E2E3AF088
:1024A000E0E830D091505040E695001CCAF729D0A2
:1024B000FE2F27D0660F771F881FBB1F26173707F1
:1024C0004807AB07B0E809F0BB0B802DBF01FF2721
:1024D00093585F4F2AF09E3F510568F0B6C000C187
:1024E0005F3FECF3983EDCF3869577956795B7955B
:1024F000F7959F5FC9F7880F911D9695879597F976
:102500000895E1E0660F771F881FBB1F62177307EE
:102510008407BA0720F0621B730B840BBA0BEE1F03
:1025200088F7E095089504D06894B111D9C0089552
:10253000BCD088F09F5790F0B92F9927B751A0F0E1
:10254000D1F0660F771F881F991F1AF0BA95C9F747
:1025500012C0B13081F0C3D0B1E00895C0C0672F80
:10256000782F8827B85F39F0B93FCCF386957795F7
:102570006795B395D9F73EF49095809570956195E0
:102580007F4F8F4F9F4F0895E89409C097FB3EF40B
:1025900090958095709561957F4F8F4F9F4F9923B0
:1025A000A9F0F92F96E9BB279395F695879577952E
:1025B0006795B795F111F8CFFAF4BB0F11F460FFEE
:1025C0001BC06F5F7F4F8F4F9F4F16C0882311F046
:1025D00096E911C0772321F09EE8872F762F05C05A
:1025E000662371F096E8862F70E060E02AF09A95F5
:1025F000660F771F881FDAF7880F9695879597F9EA
:102600000895990F0008550FAA0BE0E8FEEF161683
:102610001706E807F907C0F012161306E407F507D6
:1026200098F0621B730B840B950B39F40A2661F04A
:10263000232B242B252B21F408950A2609F4A140ED
:10264000A6958FEF811D811D089597F99F6780E8FA
:1026500070E060E008959FEF80EC089500240A94F4
:102660001616170618060906089500240A9412166D
:102670001306140605060895092E0394000C11F4A0
:10268000882352F0BB0F40F4BF2B11F460FF04C04D
:102690006F5F7F4F8F4F9F4F089557FD9058440FA6
:1026A000551F59F05F3F71F04795880F97FB991FB1
:1026B00061F09F3F79F0879508951216130614066E
:1026C000551FF2CF4695F1DF08C0161617061806FB
:1026D000991FF1CF86957105610508940895E894D6
:1026E000BB2766277727CB0197F908958ADF08F47F
:1026F0008FEF08950BD0C0CFB1DF28F0B6DF18F010
:10270000952309F0A2CFA7CF1124EACFC6DFA0F30B
:10271000959FD1F3950F50E0551F629FF001729F76
:10272000BB27F00DB11D639FAA27F00DB11DAA1F95
:10273000649F6627B00DA11D661F829F2227B00DE2
:10274000A11D621F739FB00DA11D621F839FA00D6D
:10275000611D221F749F3327A00D611D231F849FBD
:10276000600D211D822F762F6A2F11249F57504014
:102770008AF0E1F088234AF0EE0FFF1FBB1F661FAF
:10278000771F881F91505040A9F79E3F510570F068
:102790005CCFA6CF5F3FECF3983EDCF38695779550
:1027A0006795B795F795E7959F5FC1F7FE2B880F63
:1027B000911D9695879597F9089511F40EF44BCFD6
:1027C0003EC073DFD0F39923D9F3CEF39F57550B57
:1027D00087FF43D00024A0E640EA90018058569538
:1027E000979528F4805C660F771F881F20F02617C6
:1027F0003707480730F4621B730B840B20293129FB
:102800004A2BA69517940794202531254A2758F777
:10281000660F771F881F20F026173707480730F408
:10282000620B730B840B200D311D411DA09581F7A8
:10283000B901842F9158880F9695879508959F3FE9
:1028400031F0915020F4879577956795B795880F6B
:10285000911D9695879597F9089591505040660F70
:10286000771F881FD2F70895A1E21A2EAA1BBB1B5F
:10287000FD010DC0AA1FBB1FEE1FFF1FA217B3074C
:10288000E407F50720F0A21BB30BE40BF50B661F62
:10289000771F881F991F1A9469F760957095809526
:1028A00090959B01AC01BD01CF010895052E97FBCA
:1028B00016F400940FD057FD05D0D6DF07FC02D0E8
:1028C00046F408C050954095309521953F4F4F4FA5
:1028D0005F4F089590958095709561957F4F8F4FCC
:1028E0009F4F0895EE0FFF1F0590F491E02D19946E
:1028F0000DD0A59F900DB49F900DA49F800D911DAC
:10290000112408950790F691E02D1994A29FB0012B
:10291000B39FC001A39F700D811D1124911DB29F13
:10292000700D811D1124911D0895EF920F931F9337
:10293000CF93DF93E80147FF02C034E101C034E0E8
:10294000E42FFF27E7FDF095F7FF03C0F195E19530
:10295000F109E32E022F2E2FAE014AD2CE01DF91D4
:10296000CF911F910F91EF900895CF93DF93823015
:10297000910510F482E090E0E0913B05F0913C0578
:1029800020E030E0A0E0B0E0309739F140815181A3
:1029900048175907B8F04817590771F48281938195
:1029A000109729F013969C938E9312972CC09093B6
:1029B0003C0580933B0527C02115310531F04217B6
:1029C000530718F0A901DB0101C0EF019A01BD0115
:1029D000DF010280F381E02DD7CF21153105F9F019
:1029E000281B390B2430310580F48A819B816115C5
:1029F000710521F0FB019383828304C090933C0511
:102A000080933B05FE01329644C0FE01E20FF31FA6
:102A10008193919322503109398328833AC02091C0
:102A2000390530913A05232B41F42091020230916F
:102A3000030230933A05209339052091000230912A
:102A400001022115310541F42DB73EB74091040232
:102A500050910502241B350BE0913905F0913A05A0
:102A6000E217F307A0F42E1B3F0B2817390778F065
:102A7000AC014E5F5F4F2417350748F04E0F5F1FC4
:102A800050933A05409339058193919302C0E0E059
:102A9000F0E0CF01DF91CF910895CF93DF930097BE
:102AA00009F487C0FC01329713821282C0913B0562
:102AB000D0913C05209781F420813181280F391F66
:102AC0008091390590913A058217930779F5F09333
:102AD0003A05E09339056DC0DE0120E030E0AE1725
:102AE000BF0750F412964D915C9113979D014115CB
:102AF000510509F1DA01F3CFB383A28340815181FB
:102B0000840F951F8A179B0771F48D919C911197E3
:102B1000840F951F02969183808312968D919C91CC
:102B20001397938382832115310529F4F0933C0593
:102B3000E0933B053EC0D9011396FC93EE931297A8
:102B40004D915D91A40FB51FEA17FB0779F48081C1
:102B50009181840F951F0296D90111969C938E93B3
:102B60008281938113969C938E931297E0E0F0E01C
:102B70008A819B81009719F0FE01EC01F9CFCE010B
:102B8000029628813981820F931F20913905309157
:102B90003A052817390769F4309729F410923C0553
:102BA00010923B0502C013821282D0933A05C09363
:102BB0003905DF91CF9108956F927F928F929F9206
:102BC000AF92BF92CF92DF92EF92FF920F931F933B
:102BD000CF93DF93EC01CB01209779F4DF91CF9174
:102BE0001F910F91FF90EF90DF90CF90BF90AF902B
:102BF0009F908F907F906F90B8CEFE01E60FF71FE9
:102C00009E0122503109E217F30708F4A8C0D90148
:102C10000D911C91119706171707B0F0053011059B
:102C200008F49BC0A801445051094617570708F4FF
:102C300094C002501109061B170B019311936D9359
:102C40007C93CF012ADF89C05B01A01AB10A4E0133
:102C5000800E911EA0913B05B0913C05612C712C1A
:102C600060E070E0109709F449C0A815B905C9F5EE
:102C7000ED90FC901197670142E0C40ED11CCA147C
:102C8000DB0478F147018A189B08640142E0C40E16
:102C9000D11C1296BC9012971396AC91B5E0CB164E
:102CA000D10440F0B282A38391828082D9018D93B6
:102CB0009C9309C00E5F1F4F0E0D1F1DF90111835C
:102CC0000083EB2DFA2F6115710531F0DB011396AE
:102CD000FC93EE93129741C0F0933C05E0933B05C3
:102CE0003CC06D917C9111976616770608F43B0104
:102CF000BD0112960D90BC91A02DB4CF6091390505
:102D000070913A0568157905E9F468167906D0F4EA
:102D100040910002509101024115510541F44DB717
:102D20005EB76091040270910502461B570BE417D1
:102D3000F507A8F4F0933A05E0933905F90191837A
:102D400080830BC012DE7C01009749F0A801BE0110
:102D500022D0CE01A2DEC70104C0CE0102C080E0B5
:102D600090E0DF91CF911F910F91FF90EF90DF9056
:102D7000CF90BF90AF909F908F907F906F9008956D
:102D800066277727B2C19111F0C3803219F08950BC
:102D90008550D0F70895FB01DC0102C001900D922F
:102DA00041505040D8F70895FB01DC0101900D928D
:102DB0000020E1F70895FB01DC014150504030F064
:102DC0008D910190801919F40020B9F7881B990B97
:102DD0000895FB01DC014150504048F001900D92F4
:102DE0000020C9F701C01D9241505040E0F70895FE
:102DF0006F927F929F92AF92BF92CF92DF92EF92AB
:102E0000FF920F931F93CF93DF93CDB7DEB7299730
:102E10000FB6F894DEBF0FBECDBF6A01B22E102FE1
:102E20000C3320F4FF24F394F00E02C04CE3F42E94
:102E30000F2D27E0AE014F5F5F4FBFD27981272F63
:102E40002970213031F0E1FC06C0E0FC06C060E0F2
:102E500005C06DE203C06BE201C060E2AE2DA0715F
:102E600073FF36C0662311F084E001C083E08B1548
:102E700010F4B81A01C0B12CA1110BC0F6018B2DB2
:102E800090E2882319F091938150FBCFCB0CD11C99
:102E9000B12C662331F0F601608396012F5F3F4F1E
:102EA0006901C6010396E2FE05C02EE4F601208307
:102EB00031E404C02EE6F601208331E6318322831B
:102EC000FC012B2D30E22223F1F131932150FBCF75
:102ED00072FF40C0662311F084E001C083E08B15CF
:102EE00010F4B81A01C0B12CA1110BC0F6018B2D42
:102EF00090E2882319F091938150FBCFCB0CD11C29
:102F0000B12C662331F0F601608396012F5F3F4FAD
:102F10006901C6010396E2FE07C029E4F601208399
:102F20002EE4218326E406C029E6F60120832EE65E
:102F3000218326E62283FC012B2D30E2222319F087
:102F400031932150FBCFFC01EB0DF11D10828EEF70
:102F50009FEFB7C0B1E0611101C0B0E04B2F50E06E
:102F60001816190624F49C012F5F3F4F02C021E080
:102F700030E0240F351F112329F0412F50E04F5F1F
:102F80005F4F02C040E050E0420F531F2B2D30E056
:102F90004217530714F4B41A01C0B12C2E2D287116
:102FA00059F4F6012B2D30E2222319F031932150F0
:102FB000FBCFCB0CD11CB12CBB2331F0F6016083CD
:102FC00096012F5F3F4F6901A1110BC0F6012B2D18
:102FD00030E3222319F031932150FBCFCB0CD11CCD
:102FE000B12CF80E0A81372F3071A32E74FF03C065
:102FF000013309F4FA941F142CF42F2D293018F002
:1030000028E001C021E0682F392F97FF02C060E05F
:1030100030E0462F532F612C712C3EE2932EBC01E1
:10302000621B71099B01DC01A41BB50BE1E0F0E020
:10303000EC0FFD1FAE0FBF1FE12EF12CF194E194B8
:10304000F1084F3FFFEF5F0731F4F6019082B601C0
:103050006F5F7F4F6B01841795074CF0241735077E
:1030600034F4BD01660D771DFB01118101C010E331
:1030700041505109FFEF6F1A7F0AB6016F5F7F4F12
:103080004E155F0524F0F60110836B01DACF481767
:10309000590739F4063320F4053319F4A11001C09F
:1030A00011E3F6011083FB018B2D90E2882319F0C8
:1030B00091938150FBCFFB01EB0DF11D108280E05D
:1030C00090E029960FB6F894DEBF0FBECDBFDF911A
:1030D000CF911F910F91FF90EF90DF90CF90BF9015
:1030E000AF909F907F906F9008958F929F92AF9234
:1030F000BF92CF92DF92EF92FF920F931F93CF93E5
:10310000DF938B016115710521F0DB018C93119622
:103110009C93EC015E01BFEFAB1ABB0A7501C8803E
:103120008C2D90E030DE892B11F0E501F3CFEDE23C
:10313000CE1208C07E01F2E0EF0EF11CC980DD2442
:10314000D39409C02BE2C21205C07E0142E0E40E16
:10315000F11CC980D12CE701219743E050E066E3E0
:1031600072E0CE0105D2892BB9F4239645E050E0F8
:1031700061E372E0CE01FCD1892B09F4259601159B
:10318000110519F0D801CD93DC93D11000C160E096
:1031900070E080E89FE704C143E050E06EE272E037
:1031A000CE01E6D1892B59F40115110509F4F4C0BB
:1031B000B2E0EB0EF11CF801F182E082EDC0F70104
:1031C00060E070E0CB01C0E0D0E07F01A0EDAA2E6E
:1031D000AC0C29E02A1528F14D2D4260B42E2D2D7E
:1031E0002870D2FE04C0211124C0219622C02111D2
:1031F0002197A5E0B0E09B01AC017ADB660F771F59
:10320000881F991F6A0D711D811D911D6839A9E9DB
:103210007A078A07A9E19A0760F0BD2DB660BB2E38
:1032200008C02EEFA2120AC0D3FC50C04D2D48603A
:10323000B42E3196D701CC90DB2CC7CF2C2D2F7D0F
:10324000253409F043C0A081AD3241F4BD2DB061F9
:10325000DB2E7F0122E0E20EF11C0CC07F01AB32BD
:1032600031F04FEFE41AF40A21E030E006C0A2E0AA
:10327000EA0EF11CA18122E030E0A053AA3018F040
:10328000E21AF30A23C0F70120E030E02038BCE066
:103290003B075CF4A901440F551F440F551F240F31
:1032A000351F220F331F2A0F311DAF014F5F5F4FB4
:1032B0007A01A081A053AA3010F4FA01E7CFD4FE1E
:1032C00003C0319521953109C20FD31FD1FE09C02A
:1032D0000115110531F0E1E0EE1AF108D801ED9287
:1032E000FC9252D92D2D2370233019F04B015C0133
:1032F00006C04B015C01B7FAB094B7F8B09420E077
:1033000030E0A901C501B401A2D8882309F43CC06A
:10331000D7FF06C0D195C195D1090DE412E002C0D6
:1033200005E612E06801B8E1CB1AD10890E2E92E77
:10333000F12CCE15DF056CF0F80125913591459102
:103340005491C501B401D6D94B015C01CE19DF09F6
:10335000F0CF04501109F594E7940C151D0549F7B9
:103360008A2D880F8B2D881F8F3F41F020E030E0A1
:10337000A901C501B4016BD8811106C082E290E0B9
:1033800090933E0580933D05C501B40109C060E0FE
:1033900070E080E89FEF04C060E070E080EC9FE7A1
:1033A000DF91CF911F910F91FF90EF90DF90CF9021
:1033B000BF90AF909F908F900895283008F027E03D
:1033C0003327DA01990F311D87FD91600096610561
:1033D000710539F432602E5F3D9330E32A95E1F7B1
:1033E00008959F3F30F080387105610509F03C5F1A
:1033F0003C5F3D93913008F08068911DDF93CF933F
:103400001F930F93FF92EF92192F987F9695E92FB4
:1034100096959695E90FFF27ED53FD4F9927332792
:10342000EE24FF24A701E70105900894079428F4EF
:10343000360FE71EF81E491F511D660F771F881FA4
:10344000991F0694A1F70590079428F4E70EF81E3B
:10345000491F561FC11D770F881F991F661F0694AD
:10346000A1F70590079428F4F80E491F561FC71FAF
:10347000D11D880F991F661F771F0694A1F705902D
:10348000079420F4490F561FC71FD81F990F661FB6
:10349000771F881F0694A9F784911095177041F043
:1034A000D695C79557954795F794E7941A95C1F720
:1034B000E9E6F2E068941590159135916591959142
:1034C00005907FE27395E118F10A430B560BC90B87
:1034D000D009C0F7E10CF11E431F561FC91FD01DB4
:1034E0007EF4703311F48A95E6CFE894015030F001
:1034F000080F0AF40027021708F4202F2395022F43
:103500007A3328F079E37D932A95E9F710C07D930B
:103510002A9589F606949795679537951795179488
:10352000E118F10A430B560BC90BD00998F023950B
:103530007E9173957A3308F070E37C932013B8F78B
:103540007E9170617D9330F0839571E37D9370E39C
:103550002A95E1F71124EF90FF900F911F91CF91E1
:10356000DF91992787FD90950895992788270895D9
:10357000FB01DC014150504088F08D9181341CF0FA
:103580008B350CF4805E659161341CF06B350CF466
:10359000605E861B611171F3990B0895881BFCCF47
:1035A00013E0C8E6D3E000E005C022970109FE0160
:1035B0000BBFA8D9CA36D10780E00807B1F7F89445
:0235C000FFCF3B
:1035C20000003F0580005445535400436F6D6D75F4
:1035D2006E69636174696F6E732065737461626C86
:1035E20069736865642C2072656365697665642019
:1035F200200054617267657420417A2020200043C4
:10360200757272656E7420417A2020200020736FDB
:10361200206120676F6F642073657175656E6365E5
:1036220020776F756C6420626520617320666F6C11
:103632006C6F7773003120534132323023202020C7
:10364200736C657720746F20617A696D7574682078
:1036520072657175657374003220434C23202020FB
:10366200202020636C6F636B77697365206D6F76C2
:10367200656D656E742072657175657374003320B3
:10368200534C3138302320202073696D756C61747E
:10369200657320746520636F6D7061737320726F40
:1036A2007574696E652070726F766964696E6720E1
:1036B2003138302064656772656573003420534C7D
:1036C200323030232020207465737473207468654F
:1036D2002077697468696E2032302064656772658C
:1036E2006573206269742077686963682073686F04
:1036F200756C6420726564756365207370656564BA
:1037020020746F206F6E65207468697264003520C2
:10371200534C3131382320202073686F756C64203C
:1037220073746F70207768656E207468697320699E
:103732007320656E7465726564206265636175737A
:1037420065207765206172652077697468696E20EB
:1037520074686520636F64656420352064656772F0
:1037620065652077696E646F772077686963682082
:10377200646566696E657320746172676574207230
:103782006561636865642E00656D657267656E6369
:10379200792073746F702069732045532300455359
:1037A20000534100434C00434300534C007769747B
:1037B20068696E203230206465672020004D6F7684
:1037C200696E67004E6F746D6F76696E67000000F8
:1037D20000001B0736071D064E058F066006A5066C
:1037E200C606FA069205E80500000000F30D6F0F09
:0837F200480D610D530DD20DCD
:020000023000CC
:10E000000D9489F10D94B2F10D94B2F10D94B2F129
:10E010000D94B2F10D94B2F10D94B2F10D94B2F1F0
:10E020000D94B2F10D94B2F10D94B2F10D94B2F1E0
:10E030000D94B2F10D94B2F10D94B2F10D94B2F1D0
:10E040000D94B2F10D94B2F10D94B2F10D94B2F1C0
:10E050000D94B2F10D94B2F10D94B2F10D94B2F1B0
:10E060000D94B2F10D94B2F10D94B2F10D94B2F1A0
:10E070000D94B2F10D94B2F10D94B2F10D94B2F190
:10E080000D94B2F10D94B2F10D94B2F10D94B2F180
:10E090000D94B2F10D94B2F10D94B2F10D94B2F170
:10E0A0000D94B2F10D94B2F10D94B2F10D94B2F160
:10E0B0000D94B2F10D94B2F10D94B2F10D94B2F150
:10E0C0000D94B2F10D94B2F10D94B2F10D94B2F140
:10E0D0000D94B2F10D94B2F10D94B2F10D94B2F130
:10E0E0000D94B2F141546D656761323536300041AF
:10E0F000726475696E6F206578706C6F72657220DE
:10E1000073746B3530305632206279204D4C530099
:10E11000426F6F746C6F616465723E004875683F52
:10E1200000436F6D70696C6564206F6E203D200048
:10E130004350552054797065202020203D20005FF9
:10E140005F4156525F415243485F5F3D2000415658
:10E1500052204C696243205665723D20004743437C
:10E160002056657273696F6E203D20004350552024
:10E1700049442020202020203D20004C6F7720663D
:10E18000757365202020203D20004869676820665F
:10E190007573652020203D200045787420667573D6
:10E1A00065202020203D20004C6F636B2066757336
:10E1B000652020203D20004D617220203720323024
:10E1C000313300312E362E3800342E332E350056A2
:10E1D00023202020414444522020206F7020636F70
:10E1E00064652020202020696E73747275637469E1
:10E1F0006F6E2061646472202020496E74657272B3
:10E20000757074006E6F20766563746F7200726A49
:10E210006D702020006A6D70200057686174207056
:10E220006F72743A00506F7274206E6F7420737541
:10E2300070706F72746564004D7573742062652030
:10E2400061206C6574746572002000577269747483
:10E25000696E672045450052656164696E672045B7
:10E26000450045452065727220636E743D00504F35
:10E27000525400303D5A65726F2061646472003FF1
:10E280003D43505520737461747300403D454550C3
:10E29000524F4D207465737400423D426C696E6B41
:10E2A000204C454400453D44756D70204545505215
:10E2B0004F4D00463D44756D7020464C415348001B
:10E2C000483D48656C70004C3D4C69737420492F83
:10E2D0004F20506F72747300513D51756974005234
:10E2E0003D44756D702052414D00563D73686F7707
:10E2F00020696E7465727275707420566563746FF0
:10E30000727300593D506F727420626C696E6B00BD
:10E310002A0011241FBECFEFD1E2DEBFCDBF01E046
:10E320000CBF12E0A0E0B2E0EEE1FDEF03E00BBFB6
:10E3300002C007900D92A030B107D9F712E0A0E01B
:10E34000B2E001C01D92AE30B107E1F70F9460F367
:10E350000D948DFE01E20EBF0FEF0DBF11241FBE05
:10E360000D9460F30D9400F020E030E040ED57E0B4
:10E3700005C0FA013197F1F72F5F3F4F2817390792
:10E38000C0F308959C01260F311DC901A0E0B0E043
:10E390002F5F3F4FABBFFC018791882361F08093D3
:10E3A000C6008091C00086FFFCCF8091C0008064D1
:10E3B0008093C000EACF08958DE08093C6008091DD
:10E3C000C00086FFFCCF8091C00080648093C000B5
:10E3D0008AE08093C6008091C00086FFFCCF8091C8
:10E3E000C00080648093C00008950F94C2F10F9420
:10E3F000DCF10895FC019081992359F09093C600B7
:10E400008091C00086FFFCCF8091C0008064809323
:10E41000C0003196992379F70895282F982F929567
:10E420009F70892F805D8A3308F0895F8093C600D2
:10E430008091C00086FFFCCF8091C00080648093F3
:10E44000C000822F8F70982F905D9A3308F0995FEB
:10E450009093C6008091C00086FFFCCF8091C000E1
:10E4600080648093C00008959C01FB01853691056E
:10E470001CF46330710594F0C90164E670E00F94F8
:10E480002EFE605D7F4F6093C6008091C00086FFC6
:10E49000FCCF8091C00080648093C0002B30310598
:10E4A00014F43297B4F0C90164E670E00F942EFEC4
:10E4B0006AE070E00F942EFE605D7F4F6093C600AF
:10E4C0008091C00086FFFCCF8091C0008064809363
:10E4D000C000C9016AE070E00F942EFEC0968093E0
:10E4E000C6008091C00086FFFCCF8091C000806490
:10E4F0008093C00008951F93182F8EE692EE60E07F
:10E500000F94C2F11093C6008091C00086FFFCCF2B
:10E510008091C00080648093C0000F94DCF11F9153
:10E5200008952F923F924F925F926F927F928F92B7
:10E530009F92AF92BF92CF92DF92EF92FF920F9392
:10E540001F93DF93CF93CDB7DEB762970FB6F894E2
:10E55000DEBF0FBECDBF382E622ECA01DB015C01CB
:10E560006D01772420E2222E2E010894411C511CBB
:10E570008BC081E0A81680E0B80681E0C80680E084
:10E58000D80628F0C601AA27BB270F940DF2BB2797
:10E59000AD2D9C2D8B2D0F940DF28A2D0F940DF225
:10E5A0002092C6008091C00086FFFCCF8091C00001
:10E5B00080648093C0009DE29093C6008091C0006B
:10E5C00086FFFCCF8091C00080648093C0002092C1
:10E5D000C6008091C00086FFFCCF8091C00080649F
:10E5E0008093C00019828601750188249924A1E0D6
:10E5F0003A1651F03A1620F0B2E03B1661F409C029
:10E600000BBFF701779007C0C7010F9477FE782EF4
:10E6100002C0F7017080872D0F940DF22092C60082
:10E620008091C00086FFFCCF8091C0008064809301
:10E63000C000872D8052F401EF70F0708F3520F408
:10E64000E40DF51D708204C0E40DF51D8EE280839B
:10E650000894E11CF11C011D111D0894811C911CE2
:10E6600090E18916910409F0C2CF80E190E0A0E02A
:10E67000B0E0A80EB91ECA1EDB1E198AC2010F9493
:10E68000FAF10F94DCF16A94662009F072CF629679
:10E690000FB6F894DEBF0FBECDBFCF91DF911F91B3
:10E6A0000F91FF90EF90DF90CF90BF90AF909F9031
:10E6B0008F907F906F905F904F903F902F90089534
:10E6C0002F923F924F925F926F927F928F929F9282
:10E6D000AF92BF92CF92DF92EF92FF920F931F9370
:10E6E000DF93CF93CDB7DEB7CD53D1400FB6F894BB
:10E6F000DEBF0FBECDBF01E20EBF0FEF0DBF94B75F
:10E70000F894A89514BE80916000886180936000A1
:10E7100010926000789493FF05C0E0910002F091A0
:10E7200001021995279A2F9A8091C00082608093E8
:10E73000C00080E18093C40088E18093C1000000A4
:10E74000EE24FF24870144E0A42EB12CCC24DD2448
:10E7500024C0C5010197F1F70894E11CF11C011DCB
:10E76000111D21E2E2162EE4F20620E0020720E06D
:10E77000120718F031E0C32ED12CC801B70127ECE5
:10E780003BE140E050E00F9441FE611571058105C9
:10E79000910519F485B1805885B98091C00087FD35
:10E7A00003C0C114D104A9F2A6014F5F5F4FC25E3E
:10E7B000DE4F59834883CE51D140C25EDE4F8881FF
:10E7C0009981CE51D140019711F00D9410FEC05D9A
:10E7D000DE4F19821882C053D14060E0C15DDE4F28
:10E7E0001882CF52D14088249924C35DDE4F19820C
:10E7F0001882CD52D140C05EDE4F188219821A8233
:10E800001B82C052D140CE5CDE4F188219821A8220
:10E810001B82C253D140EE24FF2487010BBFF701B6
:10E8200007911691C45CDE4F19830883CC53D14005
:10E830000D940BFEC25EDE4F28813981CE51D1404E
:10E840002130310509F52091C600C25EDE4F1982E4
:10E850001882CE51D14022C02F5F3F4F4F4F5F4FA4
:10E86000213082E138078AE7480780E0580780F0C6
:10E87000C45CDE4FE881F981CC53D140EF5FFF4F9C
:10E8800019F0EE27FF27099420E030E040E050E047
:10E890008091C00087FFE0CF2091C600C35DDE4FAE
:10E8A00048815981CD52D1404F5F5F4FC35DDE4FEC
:10E8B00059834883CD52D140213209F063C64A3092
:10E8C000510508F05FC60894811C911C53E0851621
:10E8D000910409F059C600E010E018C081E280936D
:10E8E000C6008091C00086FFFCCF8091C00080648C
:10E8F0008093C0002F5F3F4F2931310579F70F9486
:10E90000DCF10F5F1F4F0530110519F020E030E0FA
:10E91000E5CF10920A0210920B0210920C02109294
:10E920000D02109206021092070210920802109235
:10E930000902109202021092030210920402109235
:10E9400005028FEE90EE60E00F94F5F180E191EE1C
:10E9500060E00F94C2F18091C00087FFFCCF9091DE
:10E96000C600903608F09F759032B8F09093C600BC
:10E970008091C00086FFFCCF8091C00080648093AE
:10E98000C000A0E2A093C6008091C00086FFFCCF2B
:10E990008091C00080648093C000983409F4D7C18E
:10E9A0009934B8F4923409F459C1933458F490333B
:10E9B00019F1903308F4E3C59F33A1F1903409F0C5
:10E9C000DEC5BDC0953409F470C1963409F0D7C5D1
:10E9D00098C1923509F42BC2933538F49C3409F46C
:10E9E000F5C1913509F0CBC518C2963509F445C279
:10E9F000993509F0C4C567C483E792EE62E00F94CD
:10EA0000F5F110920602109207021092080210927D
:10EA1000090210920A0210920B0210920C0210923C
:10EA20000D0213C18FE792EE62E00F94F5F18FEEC5
:10EA300090EE60E00F94F5F181E291EE60E00F94CA
:10EA4000C2F187EB91EE60E00F94F5F180E391EE77
:10EA500060E00F94C2F184EE90EE60E00F94F5F167
:10EA60008FE391EE60E00F94C2F186E090E061E008
:10EA700070E00F9434F20F94DCF18DE591EE60E0DC
:10EA80000F94C2F189EC91EE60E00F94F5F18EE401
:10EA900091EE60E00F94C2F183EC91EE60E00F9490
:10EAA000F5F18CE691EE60E00F94C2F18EE10F94E7
:10EAB0000DF288E90F940DF281E00F940DF20F949E
:10EAC000DCF18BE791EE60E00F94C2F119E0E0E039
:10EAD000F0E010935700E4918E2F0F940DF20F94F5
:10EAE000DCF18AE891EE60E00F94C2F1E3E0F0E03F
:10EAF00010935700E4918E2F0F940DF20F94DCF1D8
:10EB000089E991EE60E00F94C2F1E2E0F0E0109349
:10EB10005700E4918E2F0F940DF20F94DCF188EAE8
:10EB200091EE60E00F94C2F1E1E0F0E01093570045
:10EB30001491812F0F940DF20F94DCF107CF8BE825
:10EB400092EE62E00F94F5F18BE492EE60E00F94A8
:10EB5000F5F10F94DCF100E010E019C0C8016F2D51
:10EB60000F947FFEFF2031F489E492EE60E00F9471
:10EB7000C2F10BC0F092C6008091C00086FFFCCFAE
:10EB80008091C00080648093C0000F5F1F4FC80158
:10EB900081519F41A0E0B0E0ABBFFC01F790BAE229
:10EBA000FB1621F0E2E000301E07C1F60F94DCF105
:10EBB0000F94DCF187E592EE60E00F94F5F10F948D
:10EBC000DCF1CC24DD2400E010E01EC0C8010F946D
:10EBD00077FEF82E882331F489E492EE60E00F94FA
:10EBE000C2F10BC08093C6008091C00086FFFCCFAD
:10EBF0008091C00080648093C000FE1419F00894D6
:10EC0000C11CD11C0F5F1F4FC80181519F41A0E063
:10EC1000B0E0ABBFFC01E790FAE2EF1621F022E092
:10EC20000030120799F60F94DCF10F94DCF182E6C4
:10EC300092EE60E00F94C2F1C60161E070E00F94C3
:10EC400034F20F94DCF10F94DCF110920202109276
:10EC50000302109204021092050278CE89E992EE26
:10EC600062E00F94F5F1279A2F9A16C02F9880E052
:10EC700090E0E0EDF7E03197F1F7019684369105E9
:10EC8000C1F72F9A80E090E0E0EDF7E03197F1F7DF
:10EC9000019684369105C1F78091C00087FFE6CFC9
:10ECA0008091C00087FFFCCF64C485EA92EE62E0E9
:10ECB0000F94F5F140910202509103026091040219
:10ECC0007091050281E020E10F9491F2809102029F
:10ECD00090910302A0910402B091050280509F4FD1
:10ECE000AF4FBF4F8093020290930302A0930402A0
:10ECF000B093050280509041A040B04008F426CE69
:10ED0000A4CF83EB92EE62E00F94F5F140910602FE
:10ED100050910702609108027091090280E020E1A1
:10ED20000F9491F28091060290910702A09108023F
:10ED3000B091090280509F4FAF4FBF4F80930602A2
:10ED400090930702A0930802B0930902FFCD80ECD4
:10ED500092EE62E00F94F5F183E792EE60E00F949B
:10ED6000F5F18FE792EE60E00F94F5F18BE892EE0B
:10ED700060E00F94F5F189E992EE60E00F94F5F10F
:10ED800085EA92EE60E00F94F5F183EB92EE60E09D
:10ED90000F94F5F180EC92EE60E00F94F5F187ECC2
:10EDA00092EE60E00F94F5F188ED92EE60E00F9442
:10EDB000F5F18FED92EE60E00F94F5F18AEE92EEB0
:10EDC00060E00F94F5F183E093EEBDCD87EC92EE19
:10EDD00062E00F94F5F181E40F947BF282E40F94EA
:10EDE0007BF283E40F947BF284E40F947BF285E45E
:10EDF0000F947BF286E40F947BF287E40F947BF20E
:10EE000088E40F947BF28AE40F947BF28BE40F94F6
:10EE10007BF28CE40F947BF299CD88ED92EE62E068
:10EE20000F94F5F1772473948824992409C48FED05
:10EE300092EE62E00F94F5F140910A0250910B02BC
:10EE400060910C0270910D0282E020E10F9491F22A
:10EE500080910A0290910B02A0910C02B0910D02D8
:10EE600080509F4FAF4FBF4F80930A0290930B0289
:10EE7000A0930C02B0930D0269CD8AEE92EE62E08F
:10EE80000F94F5F184EE90EE60E00F94F5F18FECC5
:10EE900091EE60E00F94F5F1662477244301CC5D98
:10EEA000DE4F19821882C452D140D401C301B695F5
:10EEB000A79597958795CA5DDE4F88839983AA8326
:10EEC000BB83C652D140CC5DDE4FA881B981C4520C
:10EED000D1401196CC5DDE4FB983A883C452D14096
:10EEE000CD0162E070E00F9434F2B0E2B093C6005E
:10EEF0008091C00086FFFCCF8091C0008064809329
:10EF0000C000EDE2E093C6008091C00086FFFCCF18
:10EF10008091C00080648093C000F0E2F093C6004E
:10EF20008091C00086FFFCCF8091C00080648093F8
:10EF3000C000CA5DDE4FE880F9800A811B81C6529D
:10EF4000D140BB27A12F902F8F2D0F940DF2CA5DBA
:10EF5000DE4F8881C652D1400F940DF2B0E2FB2EF5
:10EF6000F092C6008091C00086FFFCCF8091C00067
:10EF700080648093C0000DE30093C6008091C000C0
:10EF800086FFFCCF8091C00080648093C00010E2B7
:10EF90001093C6008091C00086FFFCCF8091C00016
:10EFA00080648093C0008BBEF3012791C65DDE4F65
:10EFB0002883CA52D140A22EBB24CC24DD2408943D
:10EFC000611C711C811C911C8BBEF3018791282E42
:10EFD0003324442455240894611C711C811C911C09
:10EFE0008BBEF3013791C55DDE4F3883CB52D140E4
:10EFF0000894611C711C811C911C8BBEF30147910C
:10F00000C45DDE4F4883CC52D140ADEFEA2EAFEF66
:10F01000FA2EAFEF0A2FAFEF1A2F6E0C7F1C801E57
:10F02000911E142D032DF22CEE24EA0CFB1C0C1D5A
:10F030001D1D0F940DF220E22093C6008091C000A8
:10F0400086FFFCCF8091C00080648093C000C65DC5
:10F05000DE4F8881CA52D1400F940DF230E23093D6
:10F06000C6008091C00086FFFCCF8091C000806404
:10F070008093C000C45DDE4F8881CC52D1400F9494
:10F080000DF240E24093C6008091C00086FFFCCFA5
:10F090008091C00080648093C000C55DDE4F888190
:10F0A000CB52D1400F940DF250E25093C6008091A4
:10F0B000C00086FFFCCF8091C00080648093C000B8
:10F0C0008FEFE8168FEFF80680E0080780E018075A
:10F0D00031F484E092EE60E00F94C2F1DFC0D80119
:10F0E000C7018070907CA070B0708050904CA040A0
:10F0F000B040D1F52FEF3FE340E050E0E222F322B1
:10F1000004231523CA5DDE4FA880B980CA80DB8046
:10F11000C652D140AE0CBF1CC01ED11EAA0CBB1CD7
:10F12000CC1CDD1C8EE092EE60E00F94C2F1BB2798
:10F13000A12F902F8F2D0F940DF28E2D0F940DF285
:10F1400030E23093C6008091C00086FFFCCF8091F2
:10F15000C00080648093C0004EE34093C60080915D
:10F16000C00086FFFCCF87C08EE09EEFA0E0B0E03D
:10F17000E822F9220A231B239CE0E91694E9F90608
:10F1800090E0090790E0190709F088C0C45DDE4FE0
:10F19000A881CC52D140EA2EFF2400E010E0102FCD
:10F1A0000F2DFE2CEE24C55DDE4FB881CB52D14031
:10F1B000EB0EF11C011D111DD601C501817090706F
:10F1C000A070B070DC0199278827E80EF91E0A1F8D
:10F1D0001B1F20EF30E040E050E0A222B322C42207
:10F1E000D52241E1AA0CBB1CCC1CDD1C4A95D1F7F1
:10F1F000EA0CFB1C0C1D1D1D81E090E0A0E0B0E0BE
:10F20000282239224A225B2235E1220C331C441C7D
:10F21000551C3A95D1F7E20CF31C041D151D57013E
:10F220006801AA0CBB1CCC1CDD1C85E192EE60E0E1
:10F230000F94C2F1C801AA27BB270F940DF2BB2778
:10F24000A12F902F8F2D0F940DF28E2D0F940DF274
:10F2500090E29093C6008091C00086FFFCCF809121
:10F26000C00080648093C000AEE3A093C60080918C
:10F27000C00086FFFCCF8091C00080648093C000F6
:10F28000C601AA27BB270F940DF2BB27AD2D9C2DDD
:10F290008B2D0F940DF28A2D0F940DF20F94DCF14B
:10F2A000CC5DDE4FE881F981C452D140F99709F471
:10F2B0004DCBF4E0EF2EF12C012D112D6E0C7F1CA7
:10F2C000801E911EF2CD83E093EE62E00F94F5F183
:10F2D0008AE192EE60E00F94C2F18091C00087FF56
:10F2E000FCCF1091C6001F751093C6008091C0001E
:10F2F00086FFFCCF8091C00080648093C0000F9493
:10F30000DCF1812F81548A3108F036C1163409F4BA
:10F3100095C0173490F4133409F44EC0143430F40B
:10F320001134F1F0123409F01DC130C0143409F465
:10F3300059C0153409F016C16BC01A3409F4C4C0A1
:10F340001B3438F4173409F48FC0183409F00AC19B
:10F35000A1C01B3409F4D2C01C3409F003C1E8C0B9
:10F360008FEF81B90DC082B1809582B980E090E0C5
:10F37000E0EDF7E03197F1F70196883C9105C1F790
:10F380008091C00087FFEFCF12B8EFC08FEF84B934
:10F390000DC085B1809585B980E090E0E0EDF7E0A3
:10F3A0003197F1F70196883C9105C1F78091C00033
:10F3B00087FFEFCF15B8D9C08FEF87B90DC088B1DF
:10F3C000809588B980E090E0E0EDF7E03197F1F7C3
:10F3D0000196883C9105C1F78091C00087FFEFCF6F
:10F3E00018B8C3C08FEF8AB90DC08BB180958BB9A7
:10F3F00080E090E0E0EDF7E03197F1F70196883C8E
:10F400009105C1F78091C00087FFEFCF1BB8ADC059
:10F410008FEF8DB90DC08EB180958EB980E090E0F0
:10F42000E0EDF7E03197F1F70196883C9105C1F7DF
:10F430008091C00087FFEFCF1EB897C08FEF80BBD1
:10F440000DC081B3809581BB80E090E0E0EDF7E0F6
:10F450003197F1F70196883C9105C1F78091C00082
:10F4600087FFEFCF11BA81C08FEF83BB0DC084B38C
:10F47000809584BB80E090E0E0EDF7E03197F1F714
:10F480000196883C9105C1F78091C00087FFEFCFBE
:10F4900014BA6BC08FEF809301010FC080910201FD
:10F4A00080958093020180E090E0E0EDF7E03197F5
:10F4B000F1F70196883C9105C1F78091C00087FF64
:10F4C000EDCF1092020151C08FEF809304010FC065
:10F4D0008091050180958093050180E090E0E0ED4A
:10F4E000F7E03197F1F70196883C9105C1F78091DB
:10F4F000C00087FFEDCF1092050137C08FEF8093DA
:10F5000007010FC08091080180958093080180E079
:10F5100090E0E0EDF7E03197F1F70196883C910536
:10F52000C1F78091C00087FFEDCF109208011DC088
:10F530008FEF80930A010FC080910B01809580931B
:10F540000B0180E090E0E0EDF7E03197F1F70196F4
:10F55000883C9105C1F78091C00087FFEDCF1092E4
:10F560000B0103C085E292EEEEC98091C00087FFD7
:10F57000FCCF8091C600EAC988E392EEE4C98CE131
:10F5800091EEE1C988249924933011F1943028F444
:10F59000913089F09230B8F408C0953061F195301F
:10F5A000F0F0963009F048C043C02B3109F042C951
:10F5B00091E06BE13FC96227C15DDE4F2883CF52E6
:10F5C000D14092E037C9B22FA0E0622793E032C960
:10F5D000822F90E0A82BB92B622794E02BC92E3004
:10F5E00009F039C3622795E0C05DDE4F19821882A9
:10F5F000C053D1401FC9E1E0F0E0EC0FFD1FC05D3A
:10F60000DE4F08811981C053D140E00FF11F2083E4
:10F610000F5F1F4FC05DDE4F19830883C053D14079
:10F6200062270A171B0709F005C9D80196E002C92D
:10F63000261709F010C303C0973009F0FBC87724E0
:10F640009981933109F412C19431C8F4963009F4C8
:10F65000D8C0973050F4923009F406C1933009F4C1
:10F660006DC0913009F059C253C0913109F477C08F
:10F67000923108F0BBC0903109F04FC2F5C098310B
:10F6800009F487C0993150F4953109F4EFC09531F0
:10F6900008F4C6C1963109F040C2C2C19A3109F4DA
:10F6A0006CC09A3108F491C09B3109F45BC09D3164
:10F6B00009F033C29D81903359F48F81882311F46E
:10F6C0009EE11CC0813011F091E018C098E916C08D
:10F6D000892F807591F0903539F4E0E0F0E089E011
:10F6E0008093570094910AC0983539F4E3E0F0E034
:10F6F00089E080935700949101C090E01A821B82A8
:10F700008D818C831D829E831F8227E030E009C299
:10F710001A8288E08B8381E48C8386E58D8382E581
:10F720008E8389E48F8383E5888780E589878FE5E9
:10F730008A8782E38B872BE030E0F3C18A818139AD
:10F7400041F0823941F0803911F48FE005C080E04A
:10F7500003C082E001C08AE01A828B8344C0772410
:10F76000739482C08D81882311F48EE12CC0813086
:10F7700011F081E028C088E926C01A82E1E0F0E0BB
:10F7800089E08093570084918B831C8224E030E0D1
:10F79000C8C18B81803589F48C81883039F4E2E0EE
:10F7A000F0E089E08093570084910DC0E0E0F0E044
:10F7B00089E080935700849106C0E3E0F0E089E09F
:10F7C0008093570084911A82DFCF8D81836C99E0FA
:10F7D000E1E0F0E0082E90935700E89507B600FCB2
:10F7E000FDCF1A821B8223E030E09BC180EC8A832C
:10F7F000CE5CDE4F188219821A821B82C253D1401E
:10F800008EC18A8190E0A0E0B0E0582F44273327D2
:10F8100022278B8190E0A0E0B0E0DC0199278827C7
:10F82000282B392B4A2B5B2B8D8190E0A0E0B0E098
:10F83000282B392B4A2B5B2B8C8190E0A0E0B0E089
:10F84000BA2FA92F982F8827282B392B4A2B5B2BCF
:10F85000220F331F441F551FC05EDE4F288339839C
:10F860004A835B83C052D1401A8259C13A81C95C34
:10F87000DE4F3883C753D140CA5CDE4F1882C6536F
:10F88000D1408B81C82EDD24CA5CDE4F488159816E
:10F89000C653D140C42AD52A933109F082C0CE5C28
:10F8A000DE4F88819981AA81BB81C253D1408050AB
:10F8B000904CA340B04030F583E0CE5CDE4FE88052
:10F8C000F9800A811B81C253D140F70100935B008C
:10F8D00080935700E89507B600FCFDCFCE5CDE4F65
:10F8E000088119812A813B81C253D14000501F4FAA
:10F8F0002F4F3F4FCE5CDE4F088319832A833B8313
:10F90000C253D140C05EDE4F488159816A817B81FC
:10F91000C052D140DE011B9631E08C9111962C91A2
:10F9200011971296C75CDE4F2883C953D140C85C3B
:10F93000DE4F1882C853D14090E0C85CDE4FE881AA
:10F94000F981C853D1408E2B9F2B0C01FA01609393
:10F950005B0030935700E89511244E5F5F4F6F4F67
:10F960007F4F0EEFE02E0FEFF02ECE0CDF1CC114F8
:10F97000D10499F685E0C05EDE4F088119812A81A5
:10F980003B81C052D140F80120935B008093570027
:10F99000E89507B600FCFDCF81E180935700E8951C
:10F9A00035C0C05EDE4F88819981AA81BB81C0527B
:10F9B000D140B695A795979587957C018601ABE0D8
:10F9C000AA2EB12CAC0EBD1E0BC0D5016D915D01F0
:10F9D000C7010F947FFE0894E11CF11C01501040F8
:10F9E0000115110591F7A60160E070E0440F551F65
:10F9F000661F771FC05EDE4FE880F9800A811B8199
:10FA0000C052D1404E0D5F1D601F711F1A82C05E33
:10FA1000DE4F488359836A837B83C052D1407FC0C5
:10FA2000FA80C55CDE4FF882CB53D140C65CDE4F16
:10FA30001882CA53D1408B81C82EDD24C65CDE4FAC
:10FA400008811981CA53D140C02AD12A1A828981DA
:10FA5000BE016D5F7F4F843121F59601C05EDE4FA0
:10FA6000E880F9800A811B81C052D1400BBFF701A9
:10FA700087919691DB018C9311969C936E5F7F4FDB
:10FA8000D801C7010296A11DB11DC05EDE4F88835B
:10FA90009983AA83BB83C052D14022503040F1F6F3
:10FAA00036C0C05EDE4F288139814A815B81C052F9
:10FAB000D1400894C108D108760100E010E0089414
:10FAC000C11CD11C0894E11CF11C011D111DE20E8A
:10FAD000F31E041F151F21BDBB27A52F942F832FB5
:10FAE00082BD2F5F3F4F4F4F5F4FF89A80B5DB01CC
:10FAF0008D93BD012E153F054007510761F7C05E8C
:10FB0000DE4F288339834A835B83C052D1409601FC
:10FB10002D5F3F4FFB01108204C080EC8A8322E0FE
:10FB200030E08BE18093C6008091C00086FFFCCF5F
:10FB30008091C00080648093C000C15DDE4FF88179
:10FB4000CF52D140F093C6008091C00086FFFCCF19
:10FB50008091C00080648093C000432F3093C60022
:10FB60008091C00086FFFCCF8091C00080648093AC
:10FB7000C000922F2093C6008091C00086FFFCCF6A
:10FB80008091C00080648093C0008EE08093C600A6
:10FB90008091C00086FFFCCF8091C000806480937C
:10FBA000C00065E1C15DDE4FE880CF52D1406E25D7
:10FBB00069276427FE01319610C090819093C6009A
:10FBC0008091C00086FFFCCF31968091C000806498
:10FBD0008093C0006927215030402115310569F715
:10FBE0006093C6008091C00086FFFCCF8091C0006A
:10FBF00080648093C00085B1805885B9772081F4F6
:10FC0000C15DDE4F0881CF52D1400F5FC15DDE4F35
:10FC10000883CF52D14090E0A0E0B0E00D941AF4F8
:10FC200027982F9880E090E020ED37E0F901319798
:10FC3000F1F7019684369105C9F700008091C00064
:10FC40008D7F8093C00081E180935700E895EE2777
:10FC5000FF270994FFCF90E00D941AF497FB092E2B
:10FC600007260AD077FD04D02ED006D000201AF443
:10FC7000709561957F4F0895F6F7909581959F4F08
:10FC80000895A1E21A2EAA1BBB1BFD010DC0AA1FDD
:10FC9000BB1FEE1FFF1FA217B307E407F50720F0F5
:10FCA000A21BB30BE40BF50B661F771F881F991F70
:10FCB0001A9469F760957095809590959B01AC01B9
:10FCC000BD01CF010895AA1BBB1B51E107C0AA1FAC
:10FCD000BB1FA617B70710F0A61BB70B881F991FED
:10FCE0005A95A9F780959095BC01CD010895F99991
:10FCF000FECF92BD81BDF89A992780B50895262F31
:10FD0000F999FECF1FBA92BD81BD20BD0FB6F89400
:0EFD1000FA9AF99A0FBE01960895F894FFCF63
:040000033000E000E9
:00000001FF