:10000000B3C10000E2C10000E0C10000DEC1000099
:10001000DCC10000DAC10000D8C10000D6C1000078
:10002000D4C10000D2C10000D0C10000CEC1000088
:10003000CCC10000CAC10000C8C10000C6C1000098
:10004000C4C10000C2C10000C0C10000BEC10000A8
:10005000BCC10000BAC10000B8C100000C941C0C67
:10006000B4C100000C94CF0A0C94A60AAEC10000E3
:10007000ACC10000AAC10000A8C10000A6C10000D8
:10008000A4C10000A2C10000A0C100009EC10000E8
:100090009CC100009AC1000098C1000096C10000F8
:1000A00094C1000092C1000090C100008EC1000008
:1000B0008CC100008AC1000088C1000086C1000018
:1000C00084C1000082C1000080C100007EC1000028
:1000D0007CC100007AC1000078C1000076C1000038
:1000E00074C10000250929092D093109350939098B
:1000F0003D096F0A760A7D0A840A8B0AA30A920ACE
:10010000A30A990A340B370B260B2A0B2E0B6E0B06
:100110003B0B3F0B450B490B4D0B530B570B5B0B2D
:100120006E0B610B650B690B4E414E494E4954599C
:10013000494E46CDCCCC3D0AD7233C17B7D13877B2
:10014000CC2B329595E6241FB14F0A0000204100C8
:1001500000C84200401C4620BCBE4CCA1B0E5AAE12
:10016000C59D7400407A10F35A00A0724E18090021
:1001700010A5D4E80000E87648170000E40B54020C
:100180000000CA9A3B000000E1F505000080969847
:1001900000000040420F000000A086010000001097
:1001A0002700000000E803000000006400000000D9
:1001B000000A00000000000100000000002C76D8BA
:1001C00088DC674F0823DFC1DFAE59E1B1B796E5A0
:1001D000E3E453C63AE651997696E8E6C28426EB04
:1001E000898C9B62ED407C6FFCEFBC9C9F40F2BA17
:1001F000A56FA5F490055A2AF75C936B6CF9676DAF
:10020000C11BFCE0E40D47FEF520E6B500D0ED9003
:100210002E0300943577050080841E080000204ED0
:100220000A000000C80C333333330F986E12831169
:1002300041EF8D2114893BE65516CFFEE6DB18D140
:10024000844B381BF77C1D901DA4BBE42420328412
:10025000725E228100C9F124ECA1E53D2700002255
:1002600000250028002B002E003100340002010080
:1002700000050108010B0100002100240027002ACD
:10028000002D003000330001010000040107010AC5
:100290000105050505070508080808020202020A0B
:1002A0000A08080404040401010101010101010319
:1002B00003030303030303040707070C0C0C0C0CD4
:1002C0000C0C0C0202020206060606060606060BC7
:1002D0000B0B0B0B0B0B0B0102102020080810203E
:1002E00040102040800201020108040201010204C2
:1002F0000810204080804020100804020180040281
:1003000001804020100804020108040201010204D7
:100310000810204080010204081020408000000ADC
:100320000B02090C0D0E0807030401000000000079
:1003300000000000000000000000000000000000BD
:10034000000000000000000000121110000000007A
:10035000000000000000000000000000000000009D
:1003600000000000A5137D1511241FBECFEFD1E2C0
:10037000DEBFCDBF00E00CBF25E0A8E8B4E001C0BF
:100380001D92AF3EB207E1F714E0A0E0B2E0EEEF5D
:10039000FCE300E00BBF02C007900D92A838B10744
:1003A000D9F711E0C3EBD1E000E006C021970109C5
:1003B000802FFE010E94341CC23BD10780E0080759
:1003C000A9F70E94AD0D0C946E1E1ACE0E943D1E20
:1003D0004F925F926F927F928F929F92AF92BF9255
:1003E000CF92DF92EF92FF920F931F93CF93DF9301
:1003F000C0909805D0909905E0909A05F0909B05E3
:100400008091940590919505A0919605B0919705DE
:10041000C81AD90AEA0AFB0A60919C0570919D05E9
:1004200080919E0590919F059B01AC010E94CC1983
:100430004B015C016091A4057091A5058091A60512
:100440009091A7059B01AC010E94BC1A9B01AC01D5
:10045000C501B4010E94201B0E94881BC114D10455
:10046000E104F104F9F462307105810591050CF0A5
:1004700092C01092AC051092AD051092AE0510928C
:10048000AF0510929C0510929D0510929E0510924A
:100490009F051092BC051092BD051092BE051092EA
:1004A000BF052AC10091BC051091BD052091BE0574
:1004B0003091BF051C141D041E041F040CF51016FA
:1004C00011061206130654F46C157D058E059F0562
:1004D00064F520918A0521115EC027C00115110520
:1004E0002105310509F457C06C157D058E059F0562
:1004F0000CF051C080918A05882309F44CC03CC09F
:10050000101611061206130614F50027112798017C
:100510000C191D092E093F096017710782079307FF
:1005200024F420918A052223B1F19B01AC01882794
:100530009927DC01821B930BA40BB50B8093BC05A0
:100540009093BD05A093BE05B093BF0524C00115CF
:10055000110521053105F9F08824992454018C18DE
:100560009D08AE08BF08681579058A059B059CF4AF
:1005700080918A0581110FC03095209510950195C5
:100580001F4F2F4F3F4F0093BC051093BD05209385
:10059000BE053093BF058090BC059090BD05A0902E
:1005A000BE05B090BF0581149104A104B104D1F43B
:1005B0008091C0059091C105A091C205B091C3057D
:1005C0008093C4059093C505A093C605B093C70555
:1005D00081E01C141D041E041F040CF080E08093B5
:1005E0008A054AC0C090C405D090C505E090C605F4
:1005F000F090C705A7019601C701B6010E94BC1A79
:100600002B013C01C501B4010E946D1920E030E0CE
:1006100040E850E40E94CC1920E030E040E85FE37D
:100620000E94BC1A9B01AC01C301B2010E94201BB5
:100630009B01AC01C701B6010E94BB1AD62FC72F80
:100640006C01E090C805F090C9050091CA051091B1
:10065000CB059701A8010E94B91B18161CF4ED2EBA
:10066000FC2E8601C701D8018093C4059093C5056F
:10067000A093C605B093C7053FEF831A930AA30A58
:10068000B30A8092BC059092BD05A092BE05B092BF
:10069000BF05C090C405D090C505E090C605F09098
:1006A000C705C701B6010E948D1B6093AC0570930E
:1006B000AD058093AE059093AF05A701960160E06C
:1006C00074E284E799E40E94201B60939C05709378
:1006D0009D0580939E0590939F0520918A05211189
:1006E0000BC0DC01CB01B05880939C0590939D0515
:1006F000A0939E05B0939F05DF91CF911F910F911D
:10070000FF90EF90DF90CF90BF90AF909F908F9031
:100710007F906F905F904F9008954F925F926F928D
:100720007F928F929F92AF92BF92CF92DF92EF9281
:10073000FF926B017C0120E030E0A9010E94671963
:1007400087FF04C0F7FAF094F7F8F0948090A405BE
:100750009090A505A090A605B090A705A7019601C9
:10076000C501B4010E946719882309F455C060913E
:10077000BC057091BD058091BE059091BF050E949A
:100780006D192B013C01A7019601C501B4010E941E
:10079000201B9B01AC01C301B2010E94CC190E9435
:1007A000881B6093BC057093BD058093BE05909334
:1007B000BF05A701960160E070E080E090E40E9430
:1007C000201B0E94C11B26E53EE04DE25FE30E9434
:1007D000CC1920E034E244E759E40E94CC1960933C
:1007E000C0057093C1058093C2059093C305C09264
:1007F000A405D092A505E092A605F092A705FF906A
:10080000EF90DF90CF90BF90AF909F908F907F90B0
:100810006F905F904F90DCCDFF90EF90DF90CF9086
:10082000BF90AF909F908F907F906F905F904F9010
:10083000089590E0FC01E952FD4F2491FC01EF5630
:10084000FD4F8491882399F090E0880F991FFC0157
:10085000E958FD4FA591B491FC01E35AFD4F8591F4
:1008600094918FB7F894EC91E22BEC938FBF08959D
:10087000EDE9F4E0A089B18982E08C93A485B58587
:100880001C92A685B7858FEC8C93108EA489B589B0
:1008900086E08C93A289B3898C9180618C93A28924
:1008A000B3898C9188608C93A289B3898C9180687C
:1008B0008C930288F389E02D80818F7D8083089559
:1008C000CF92DF92EF92FF926B017C0120E030E04B
:1008D000A9010E946719882339F0C701B601FF906A
:1008E000EF90DF90CF9019CFFF90EF90DF90CF90F7
:1008F0000895CF92DF92EF92FF926B017C0120E08E
:1009000030E0A9010E94671987FF04C0F7FAF0944C
:10091000F7F8F094A70196016091A0057091A105E8
:100920008091A2059091A3050E946719882309F47C
:1009300054C0C092A005D092A105E092A205F09209
:10094000A305A701960160E074E284E799E40E94A0
:10095000201B6093C8057093C9058093CA059093C6
:10096000CB058091BC059091BD05A091BE05B091CD
:10097000BF05181619061A061B067CF560919C0522
:1009800070919D0580919E0590919F059B01AC0102
:100990000E94CC196B017C016091A4057091A505A2
:1009A0008091A6059091A7059B01AC010E94BC1AFD
:1009B0009B01AC01C701B6010E94201B0E94881B4D
:1009C0006093BC057093BD058093BE059093BF05F1
:1009D000FF90EF90DF90CF90FBCCFF90EF90DF90F7
:1009E000CF9008958F929F92AF92BF92CF92DF9255
:1009F000EF92FF9280909C0590909D05A0909E059F
:100A0000B0909F0520E030E0A901C501B4010E942B
:100A10006719882309F45BC0A5019401C501B401DD
:100A20000E94CC196B017C016091A4057091A50511
:100A30008091A6059091A7059B01AC010E94BC1A6C
:100A40009B01AC01C701B6010E94201B0E94881BBC
:100A50006B017C012FEFC21AD20AE20AF20A20E0EF
:100A600030E0A901C501B4010E94B91B4091940571
:100A70005091950560919605709197058090980525
:100A800090909905A0909A05B0909B0518162CF4AB
:100A90004C0D5D1D6E1D7F1D04C04C195D096E0956
:100AA0007F0984169506A606B70689F04093980537
:100AB0005093990560939A0570939B05FF90EF9072
:100AC000DF90CF90BF90AF909F908F9081CCFF90A0
:100AD000EF90DF90CF90BF90AF909F908F90089550
:100AE0008F929F92AF92BF92CF92DF92EF92FF923E
:100AF0006B017C0195D64B015C01C60ED71EE81E2A
:100B0000F91E8ED6681579058A059B0528F0C6164C
:100B1000D706E806F906A8F7FF90EF90DF90CF9090
:100B2000BF90AF909F908F9008950F931F93811166
:100B300021C076D600913C0510913D0520913E05DF
:100B400030913F05DC01CB01801B910BA20BB30B55
:100B500081329105A105B10568F441E250E060E001
:100B600070E08A019B01081B190B2A0B3B0BC90182
:100B7000B801B6DF55D660933C0570933D05809370
:100B80003E0590933F0581E01F910F9108958F924C
:100B90009F92AF92BF92EF92FF920F931F93CF93CA
:100BA000DF93CDB7DEB7A1970FB6F894DEBF0FBEC7
:100BB000CDBF7C01FA01CB0119A2223008F42AE052
:100BC0008E010F5D1F4F822E912CA12CB12CBF01E5
:100BD000A50194010E94801AF901CA01015011096E
:100BE0006A3014F4605D01C0695CD8016C93232BFA
:100BF000242B252B61F7B801C70187D7A1960FB623
:100C0000F894DEBF0FBECDBFDF91CF911F910F9142
:100C1000FF90EF90BF90AF909F908F900895DC0170
:100C2000ED91FC910190F081E02D1994BF92CF924B
:100C3000DF92EF92FF920F931F93CF93DF93B82E23
:100C4000EFD56B017C010AE315E0CCE7D5E06CE75A
:100C500074E08881998180D74B2D50E060E070E08E
:100C60002AE08881998193DF63E874E08881998123
:100C700073D72AE0B701A6018881998188DF65E8EA
:100C800074E08881998168D7F80186819781A08571
:100C9000B185B701A601481B590B6A0B7B0B2AE0F3
:100CA0008881998174DF65E874E08881998154D7DF
:100CB000F801468157816085718582859385A48579
:100CC000B585481B590B6A0B7B0B2AE088819981FB
:100CD000DF91CF911F910F91FF90EF90DF90CF9018
:100CE000BF9055CFCF92DF92EF92FF928091AC05EB
:100CF0009091AD05A091AE05B091AF05892B8A2BDF
:100D00008B2B09F46CC03FB7F894809199049091B3
:100D10009A04A0919B04B0919C0426B5A89B05C0A1
:100D20002F3F19F00196A11DB11D3FBFCC24D82E35
:100D3000E92EFA2EC20ED11CE11CF11C42E0CC0CB3
:100D4000DD1CEE1CFF1C4A95D1F78091B0059091F7
:100D5000B105A091B205B091B305B701A601481B3A
:100D6000590B6A0B7B0B8091AC059091AD05A0915E
:100D7000AE05B091AF05481759076A077B0778F1B0
:100D800020918A058091940590919505A0919605F2
:100D9000B0919705222321F00196A11DB11D03C03A
:100DA0000197A109B1098093940590939505A093AB
:100DB0009605B093970540919405509195056091E3
:100DC00096057091970588E895E078D3C092B005B4
:100DD000D092B105E092B205F092B305F9DA20E0C5
:100DE00030E0A90160919C0570919D0580919E0560
:100DF00090919F050E946719811118C081E0C090F1
:100E00009805D0909905E0909A05F0909B05409147
:100E10009405509195056091960570919705C416BB
:100E2000D506E606F70619F480E001C081E0FF90E0
:100E3000EF90DF90CF9008954091860550918705FF
:100E40004115510509F14230510518F461E070E097
:100E500002C062E070E08091820590918305461B9C
:100E6000570B5093870540938605680F791F0E94A2
:100E70005F1EE0918205F091830580918605909137
:100E80008705E80FF91F10820895FC018091820503
:100E900090918305009761F0608171816115710502
:100EA00039F0448155810E94511E21E0892B09F0BF
:100EB00020E0822F0895CF93DF93FC014481558178
:100EC000608171818DE994E07FD5EC016DE472E081
:100ED0008DE994E01AD68C0F9D1FDF91CF91089574
:100EE000EF92FF920F931F93CF93DF93EC01FB01DF
:100EF00004811581E080F180E114F104C1F0011555
:100F00001105B9F08C819D81080F191FB801CE0120
:100F100085D5882361F0288139818C819D81B70135
:100F2000820F931F0E944A1E1D830C8302C0CE01B4
:100F30009CD5CE01DF91CF911F910F91FF90EF9043
:100F400008950F931F936CD46093A5047093A60427
:100F50008093A7049093A8048DE994E05CD097FF58
:100F60001EC05ED40091A5041091A6042091A70490
:100F70003091A804DC01CB01801B910BA20BB30BB9
:100F80000091A1041091A2042091A3043091A40423
:100F900080179107A207B307F8F28FEF9FEF1F9119
:100FA0000F910895EF92FF920F931F93CF93DF93CA
:100FB0008C017B016115710561F0FB01019000203E
:100FC000E9F73197EF01C61BD70BBE0127D5811179
:100FD00003C0C8014AD508C0F801D583C483B7014E
:100FE000808191810E944A1EC801DF91CF911F919B
:100FF0000F91FF90EF900895FC01538D448D252FA4
:1010000030E0842F90E0821B930B541710F0CF96A2
:10101000089501970895FC01918D828D981761F0D4
:10102000828DDF01A80FB11D5D968C91928D9F5F1F
:101030009F73928F90E008958FEF9FEF0895FC01CA
:10104000918D828D981731F0828DE80FF11D858D7D
:1010500090E008958FEF9FEF0895FC01918D228D10
:10106000892F90E0805C9F4F821B91098F73992795
:1010700008958DE994E0F1DF21E0892B09F420E067
:10108000822F0895FC01848DDF01A80FB11DA35AA2
:10109000BF4F2C91848D90E001968F739927848F98
:1010A000A689B7892C93A089B1898C9183708064BB
:1010B0008C93938D848D981306C00288F389E02D5C
:1010C00080818F7D80830895EF92FF920F931F930D
:1010D000CF93DF93EC0181E0888F9B8D8C8D9813EB
:1010E00005C0E889F989808185FD25C0F62E0B8D24
:1010F00010E00F5F1F4F0F731127E02E8C8DE81249
:101100000BC00FB607FCFACFE889F989808185FF0B
:10111000F5CFCE01B7DFF2CF8B8DFE01E80FF11DC9
:10112000E35AFF4FF0829FB7F8940B8FEA89FB894F
:10113000808180620AC09FB7F894EE89FF8960833E
:10114000E889F98980818370806480839FBF81E012
:1011500090E0DF91CF911F910F91FF90EF90089554
:10116000CF93DF93EC01888D8823C1F0EA89FB8956
:10117000808185FD05C0A889B9898C9186FD0EC046
:101180000FB607FCF5CF808185FFF2CFA889B9891A
:101190008C9185FFEDCFCE0175DFE8CFDF91CF9148
:1011A000089580E090E0892B19F063DF811125C05C
:1011B00080E090E0892B41F080E090E0892B21F0E5
:1011C0000E94000081111CC080E090E0892B41F05A
:1011D00080E090E0892B21F00E940000811113C073
:1011E00080E090E0892BA1F080E090E0892B81F0F5
:1011F0000E94000081110AC008950E940000D8CF0B
:101200000E940000E1CF0E940000EACF0C94000091
:10121000089580E090E00895CF93DF93DC0147705C
:10122000552766277727FA013197CD91DC911197E1
:10123000E730F10530F48827EE58FF4F8F4F0C94BC
:10124000341CEC81FD8161E01BC0EC81FD8165E017
:1012500017C0EC81FD8164E013C0EC81FD8166E084
:101260000FC0EC81FD8162E00BC0EC81FD816AE082
:1012700007C0EC81FD8168E003C0EC81FD8169E07D
:10128000CD01DF91CF911994CF93DF93EC01CB0186
:10129000BA0126E030E040E050E00E94181C6230C5
:1012A00071058105910559F18CF461157105810570
:1012B0009105F1F06130710581059105C1F5E88175
:1012C000F9810480F581E02D65E02DC06430710561
:1012D0008105910511F1D4F0653071058105910505
:1012E00031F5E881F9810480F581E02D66E01BC0CD
:1012F000E881F9810480F581E02D64E014C0E88183
:10130000F9810480F581E02D61E00DC0E881F9816B
:101310000480F581E02D63E006C0E881F981048056
:10132000F581E02D62E0CE01DF91CF911994DF913C
:10133000CF9108954370552766277727DC01ED91FB
:10134000FC910480F581E02D423051056105710565
:1013500071F0433051056105710559F04130510577
:101360006105710511F065E005C066E003C06AE043
:1013700001C069E01994CF93DF93EC01CB01BA016E
:1013800023E030E040E050E00E94181C613071051D
:101390008105910581F0623071058105910591F01B
:1013A000672B682B692BC1F4E881F9810480F581F2
:1013B000E02D64E00DC0E881F9810480F581E02D25
:1013C00061E006C0E881F9810480F581E02D62E0EA
:1013D000CE01DF91CF911994DF91CF9108954370A1
:1013E000552766277727DC01ED91FC910480F58174
:1013F000E02D423051056105710571F04330510512
:101400006105710559F0413051056105710511F013
:1014100062E005C063E003C061E001C060E01994D0
:10142000CF93DF93EC01E881F9810480F581E02D11
:101430008A81811102C060E001C062E0CE0119958D
:10144000E881F9810480F581E02D8A81811102C053
:1014500061E001C063E0CE0119958CA59DA58230A5
:10146000910538F0880F991F880F991F05970197EC
:10147000F1F7E881F9810480F581E02D8A818111FD
:1014800002C060E001C062E0CE01DF91CF9119940B
:10149000CF93DF93EC0120E030E0A9016C897D89D6
:1014A0008E899F890E94B91B18161CF4E8A9F9A916
:1014B00002C0EAA9FBA9DF91CF9119940F931F9362
:1014C000DC0113960C91139710E009301105D8F543
:1014D000F8018827E758FF4F8F4F0C94341CED918B
:1014E000FC9111970084F185E02D29C0ED91FC91CC
:1014F00011970284F385E02D22C0ED91FC911197A4
:101500000484F585E02D1BC0ED91FC9111970684B4
:10151000F785E02D14C0ED91FC9111970088F189B9
:10152000E02D0DC0ED91FC9111970288F389E02D1B
:1015300006C0ED91FC9111970488F589E02DCD014D
:101540001F910F9119941F910F9108951F920F925F
:101550000FB60F9211240BB60F922F933F934F9318
:101560005F936F937F938F939F93AF93BF93EF930B
:10157000FF938DE994E086DDFF91EF91BF91AF91EC
:101580009F918F917F916F915F914F913F912F919B
:101590000F900BBE0F900FBE0F901F9018951F92CB
:1015A0000F920FB60F9211240BB60F922F938F93B9
:1015B0009F93EF93FF93E091AD04F091AE0480818F
:1015C000E091B304F091B40482FD12C09081809147
:1015D000B6048F5F8F732091B704821751F0E091AA
:1015E000B604F0E0E356FB4F958F8093B60401C03C
:1015F0008081FF91EF919F918F912F910F900BBE62
:101600000F900FBE0F901F901895362F90E0FC01A1
:10161000E35EFC4F4491FC01E952FD4F2491FC0133
:10162000EF56FD4F9491992309F46CC0442309F4BB
:1016300055C050E0FA013197E231F10508F04EC093
:101640008827EE57FF4F8F4F0C94341C80918000F9
:101650008F7707C0809180008F7D03C080918000CC
:10166000877F809380003AC084B58F7702C084B5AD
:101670008F7D84BD33C08091B0008F7703C080918F
:10168000B0008F7D8093B00029C0809190008F774B
:1016900007C0809190008F7D03C080919000877F6C
:1016A000809390001BC08091A0008F7707C080912D
:1016B000A0008F7D03C08091A000877F8093A00051
:1016C0000DC0809120018F7707C0809120018F7D10
:1016D00003C080912001877F80932001E92FF0E0F3
:1016E000EE0FFF1FE35AFD4FA591B4919FB7F894F9
:1016F000311104C08C912095282302C0EC912E2B2F
:101700002C939FBF0895CF93DF93EC0160E08E810F
:101710007CDF61E08E8179DF60E08E8176DF8BE8AF
:1017200091E00197F1F7DF91CF910895CF93DF9387
:10173000FC0123812223F9F0EC0184817AD88D8188
:1017400078D88B81843011F0883021F48E8171D863
:101750008F8105C0833011F0863011F48E8169D8F5
:101760008FA58F3F41F065D86EA581E068278FA5D2
:10177000DF91CF914ACFDF91CF910895CF93DF933F
:10178000FC012381222391F0EC010190F081E02DF6
:101790000480F581E02D60E019958FA58F3F31F031
:1017A00048D86EA58FA5DF91CF912FCFDF91CF9134
:1017B0000895CF92DF92EF92FF920F931F93CF93F2
:1017C000DF93EC019B81943041F0983031F09330FD
:1017D00031F0963021F012E003C014E001C013E0B4
:1017E0002496E12CF12CC62ED12C01E0C6010E2C42
:1017F00002C0959587950A94E2F76C8180FD602779
:10180000899103DF8FEFE81AF80AE11678F3DF9188
:10181000CF911F910F91FF90EF90DF90CF9008959F
:101820002FB7F8946091E5057091E6058091E70582
:101830009091E8052FBF08951F920F920FB60F9257
:1018400011242F933F938F939F93AF93BF938091D6
:10185000E5059091E605A091E705B091E805309186
:10186000E40523E0230F2D3720F40196A11DB11DBF
:1018700005C026E8230F0296A11DB11D2093E405A3
:101880008093E5059093E605A093E705B093E805FE
:101890008091990490919A04A0919B04B0919C042A
:1018A0000196A11DB11D8093990490939A04A09371
:1018B0009B04B0939C04BF91AF919F918F913F91F6
:1018C0002F910F900FBE0F901F901895CF92DF921F
:1018D000EF92FF920F931F93CF93DF936C017C01E4
:1018E00087E0E80EF11CC0E0D0E0062F10E0B80160
:1018F0000C2E02C0759567950A94E2F76170F701A6
:1019000081917F0182DE2196C430D10581F7C60125
:10191000DF91CF911F910F91FF90EF90DF90CF90CB
:10192000F2CECF92DF92EF92FF920F931F93CF935D
:10193000DF93EC01F62E642F8C8167DE8D818F3F63
:1019400011F060E062DE8F850F2D10E084FF23C070
:101950006E0187E0C80ED11CE12CF12CB8010E2CD1
:1019600002C0759567950A94E2F76170F60181915E
:101970006F014BDEFFEFEF1AFF0A88E0E816F10473
:1019800069F7CE01DF91CF911F910F91FF90EF90FA
:10199000DF90CF90B8CEB80184E0759567958A95B1
:1019A000E1F7CE0193DF6F2DCE01DF91CF911F9133
:1019B0000F91FF90EF90DF90CF9088CF41E0B1DFA3
:1019C00081E090E008950895CF92DF92EF92FF9228
:1019D0000F931F93CF93DF936C017A018B01C0E0CB
:1019E000D0E0CE15DF0581F0D8016D918D01D601D3
:1019F000ED91FC910190F081E02DC6011995892BA4
:101A000011F02196EECF7E01C701DF91CF911F919A
:101A10000F91FF90EF90DF90CF9008950F931F9359
:101A2000CF93DF93EC0188819981009729F02A8177
:101A30003B812617370788F48B016F5F7F4F0E9429
:101A40005D1D009761F0998388831B830A832C8135
:101A50003D81232B11F4FC01108281E001C080E064
:101A6000DF91CF911F910F910895CF93DF93EC01F8
:101A700088819981009711F00E94D41C19821882E4
:101A80001D821C821B821A82DF91CF910895FC0176
:101A9000808191810C94D41CEF92FF920F931F933D
:101AA000CF93DF93EC01198218821B821A821D8268
:101AB0001C826115710511F18B01FB010190002061
:101AC000E9F731977F01E61AF70AB701A7DF81111D
:101AD00008C0CE01DF91CF911F910F91FF90EF9041
:101AE000C4CFFD82EC82B80188819981DF91CF91CA
:101AF0001F910F91FF90EF900C944A1EDF91CF91B0
:101B00001F910F91FF90EF9008956115710579F085
:101B1000FB0101900020E9F73197AF01461B570BFD
:101B2000DC01ED91FC910280F381E02D199480E0BD
:101B300090E008950F931F93CF93DF93EC01E5DFBF
:101B40008C016DE472E0CE01E0DF800F911FDF9128
:101B5000CF911F910F910895D8CFCF93DF93CDB739
:101B6000DEB7AB970FB6F894DEBF0FBECDBF78944B
:101B700084B5826084BD84B5816084BD85B5826092
:101B800085BD85B5816085BD80916E008160809343
:101B90006E001092810080918100826080938100AC
:101BA00080918100816080938100809180008160BC
:101BB000809380008091B10084608093B100809117
:101BC000B00081608093B00080919100826080932A
:101BD00091008091910081608093910080919000AC
:101BE0008160809390008091A10082608093A10029
:101BF0008091A10081608093A1008091A00081600C
:101C00008093A000809121018260809321018091C6
:101C10002101816080932101809120018160809366
:101C2000200180917A00846080937A0080917A000C
:101C3000826080937A0080917A00816080937A003C
:101C400080917A00806880937A001092C10010928F
:101C50007E0510927F0510928005109281051092EA
:101C60003C0510923D0510923E0510923F0568EB31
:101C70007BE080E090E00E9470058DE994E0909315
:101C80007D0580937C050E943804CADD60933C0585
:101C900070933D0580933E0590933F056EE372E09F
:101CA00080917C0590917D0557DF6AE070E080E0CF
:101CB00090E00E9470050E9438040E94F204109285
:101CC0008F041092900480E090E0A0EFB1E4809344
:101CD0008B0490938C04A0938D04B0938E0481E0C8
:101CE00090E090938A048093890460E070E080EF34
:101CF00091E40E94790460E070E080E89FE30E9434
:101D0000600481E090E0A0E0B0E0809394059093BF
:101D10009505A0939605B0939705809398059093A9
:101D20009905A0939A05B0939B051092BC0510925B
:101D3000BD051092BE051092BF051092AC05109221
:101D4000AD051092AE051092AF0510929C05109251
:101D50009D0510929E0510929F0580E090E0A4E5FD
:101D6000B3E48093950490939604A0939704B09362
:101D700098048093910490939204A0939304B09359
:101D8000940494EF892E99249394A12CB12C33249C
:101D90003394412C512C320143948DE994E05DD968
:101DA000181619060CF012C46FE472E0CE01019609
:101DB00073DEC7D897FD1DC083329105D1F08AA389
:101DC0001BA20D811E810F5F1F4FB801CE0101962E
:101DD00025DE882371F329813A818D819E81BE01A0
:101DE0006E5D7F4F820F931F0E944A1E1E830D83DC
:101DF000E0CF8091820590918305009789F06981F9
:101E00007A816115710551F04091840550918505E5
:101E10002D813E814217530708F08EC40E94D41CC6
:101E200089819A8190938305809382058B819C811F
:101E300090938505809384058D819E81909387057D
:101E4000809386051A8219821C821B821E821D8243
:101E5000CE0101961CDE60E572E0CE0101961CDE2B
:101E600062E875E0CE0101963BD825D8CE010196F7
:101E70000EDE6EE572E0CE0101960EDECE01019619
:101E800004D8182FCE01019602DE112309F485C073
:101E900063E672E0CE010196FFDD62E875E0CE01F7
:101EA00001961ED808D8CE010196F1DD6091950407
:101EB0007091960480919704909198041BA21AA2A5
:101EC0001DA21CA21FA21EA28E010F5F1F4F22E0A7
:101ED00044E017D6BC01CE01829664D86AE872E06D
:101EE000C801DADDBE016E5D7F4FC8010E94700738
:101EF0000E945B07C801CBDDCE018296C8DD6091F0
:101F000091047091920480919304909194041BA287
:101F10001AA21DA21CA21FA21EA222E044E0F1D51B
:101F2000BC01CE0182963ED867E972E0C801B4DDFB
:101F3000BE016E5D7F4FC8010E9470070E945B0763
:101F4000C801A5DDCE018296A2DD65EA72E08DE9C9
:101F500094E0F0DD6DEC72E08DE994E0EBDD60EF94
:101F600072E08DE994E0E6DD66E173E08DE994E0EE
:101F7000E1DD65E573E08DE994E0DCDD67EA73E0BF
:101F80008DE994E0D7DD65E972E08DE994E0D2DD7A
:101F900061E274E08DE994E0CDDD67E374E0CE01A9
:101FA00001967ADDCE0101960E944507182FCE01D9
:101FB00001966DDD112331F00E94F204109290041D
:101FC00010928F046AE374E0CE01019665DDCE01C4
:101FD00001960E944507182FCE01019658DD112366
:101FE00009F443C00E941C078091820590918305EB
:101FF000009711F0A5D503C060E070E0CB016093BD
:1020000095047093960480939704909398046FE4DA
:1020100072E082E895E00E94D207409294055092C7
:10202000950560929605709297054092980550929A
:10203000990560929A0570929B051092BC051092CA
:10204000BD051092BE051092BF051092AC0510920E
:10205000AD051092AE051092AF0510929C0510923E
:102060009D0510929E0510929F056DE374E0CE01D0
:10207000019612DDCE0101960E944507182FCE0170
:10208000019605DD1123E9F180919805909199055C
:10209000A0919A05B0919B0580339547A105B105A4
:1020A00071F080E395E7A0E0B0E08093980590930D
:1020B0009905A0939A05B0939B050E94E801609151
:1020C0008B0470918C0480918D0490918E040E94F9
:1020D00079046091890470918A04072E000C880BA2
:1020E000990B0E946D190E94600430929004309206
:1020F00088040E9472066FE472E082E895E00E9414
:10210000D20760E474E0CE010196C6DCCE010196F0
:102110000E944507182FCE010196B9DC1123E9F181
:102120008091980590919905A0919A05B0919B0591
:10213000803D9A48AF4FBF4F71F080ED9AE8AFEF06
:10214000BFEF8093980590939905A0939A05B0935B
:102150009B050E94E80160918B0470918C04809132
:102160008D0490918E040E9479046091890470918D
:102170008A04072E000C880B990B0E946D190E948F
:10218000600430929004109288040E9472066FE4FA
:1021900072E082E895E00E94D20763E474E0CE0129
:1021A00001967ADCCE0101960E944507182FCE01D8
:1021B00001966DDC112309F409C20E941C0780916D
:1021C000820590918305009721F0BAD46B017C01C0
:1021D00003C0C12CD12C7601C0929104D0929204FC
:1021E000E0929304F09294046FE472E082E895E048
:1021F0000E94D20720919504309196044091970453
:1022000050919804C701B6010E94BB1A6B017C0172
:1022100020E030E0A9010E94B91B18165CF420E010
:1022200030E040EA51E4C701B6010E94671987FF18
:1022300036C00AC020E030E040EA51ECC701B601E8
:102240000E94B91B18165CF580918F04811127C07C
:1022500066E474E08DE994E07FDC30928F0420E046
:1022600030E040E05FE360918B0470918C048091DA
:102270008D0490918E040E94CC190E947904609183
:10228000890470918A04660F771F072E000C880B53
:10229000990B0E946D190E9460040E947206809240
:1022A000480590924905A0924A05B0924B051092BC
:1022B0004C0510924D0510924E0510924F058091DD
:1022C000400590914105A0914205B091430580934E
:1022D000440590934505A0934605B0934705A0DAC1
:1022E00060934005709341058093420590934305A8
:1022F00080E00E949505882309F4F1C083E00E94E4
:10230000160666E574E080917C0590917D0524DCDD
:10231000209195043091960440919704509198042F
:10232000609191047091920480919304909194042F
:102330000E94BB1A6B017C0120E030E0A9010E94E1
:10234000B91B181624F0F7FAF094F7F8F0940091FE
:102350007C0510917D05A7019601C701B6010E9479
:10236000FF1B882319F068E574E01EC0D701C60181
:10237000BF7788A799A7AAA7BBA72FEF3FEF4FE783
:102380005FE7BC01CD010E94FF1B811110C02FEF40
:102390003FEF4FE75FE768A579A58AA59BA597D78B
:1023A00018162CF46CE574E0C801AFDB7EC02FEF8B
:1023B0003FEF4FE75FE4C701B6010E94B91B181653
:1023C0004CF02FEF3FEF4FE75FECC701B6017FD72F
:1023D00087FF03C060E674E0E7CF20E030E0A901AA
:1023E000C701B60174D787FF08C06DE2C8010E941B
:1023F0000F06F7FAF094F7F8F0942AE037ED43EA85
:102400005BE3C701B6010E94BC1A68A779A78AA737
:102410009BA70E948D1B6B017C015DD79B01AC01CA
:1024200068A579A58AA59BA50E94BB1A68A779A76C
:102430008AA79BA72AE0B701A601C8010E94C70589
:102440006EE2C8010E940F0620E030E040E251E455
:1024500068A579A58AA59BA59FD768A779A78AA70C
:102460009BA70E948D1B6B01E12CF12C2AE0B70188
:10247000A601C8010E94C705C701B6012CD79B0160
:10248000AC0168A579A58AA59BA50E94BB1A20E08E
:1024900030E040E251E480D70E948D1BAB0160E048
:1024A00070E02AE0C8010E94C70566E574E08091EB
:1024B0007C0590917D0550DB40918F0450E060E0F9
:1024C00070E02AE080917C0590917D050E94C7050F
:1024D00064E674E080917C0590917D052BDB62E0E1
:1024E00070E080E090E00E9470059AD9609340050A
:1024F0007093410580934205909343052091950484
:102500003091960440919704509198046091910401
:102510007091920480919304909194040E94BB1A4C
:102520006B017C0120E030E0A9010E94B91B181664
:1025300054F420E030E040EA50E4C701B601C7D6C9
:1025400087FF38C00AC020E030E040EA50ECC70105
:10255000B6010E94B91B18166CF5209188044091B1
:1025600098055091990560919A0570919B0580910D
:10257000940590919505A0919605B0919705222319
:1025800029F08C599F4FAF4FBF4F04C0845691091B
:10259000A109B10984179507A607B707B9F0809379
:1025A000980590939905A0939A05B0939B050E9476
:1025B000E8010CC0309290046BE674E08DE994E081
:1025C000CBDA65E374E08DE994E0B4DA80919004AD
:1025D000882309F4AEC00E9472068092480590924A
:1025E0004905A0924A05B0924B0510924C051092F5
:1025F0004D0510924E0510924F0580914005909127
:102600004105A0914205B091430580934405909304
:102610004505A0934605B093470502D96093400550
:1026200070934105809342059093430580E00E949A
:102630009505882391F182E00E94160666E574E014
:1026400080917C0590917D0587DAC0909405D090AB
:102650009505E0909605F090970500917C05109106
:102660007D05F7FE0DC06DE2C8010E940F064427EC
:102670005527BA014C195D096E097F092AE003C08C
:102680002AE0B701A601C8010E94C70564E674E00C
:1026900080917C0590917D054DDA62E070E080E0EC
:1026A00090E00E947005BCD860934005709341058E
:1026B00080934205909343058091980590919905E8
:1026C000A0919A05B0919B05409194055091950574
:1026D0006091960570919705841B950BA60BB70B1F
:1026E000181619061A061B063CF0B095A095909591
:1026F00081959F4FAF4FBF4F0297A105B105CCF415
:102700001092900410928F046091890470918A0451
:10271000072E000C880B990BE0D50E94600462E73D
:1027200074E08DE994E018DA65E374E08DE994E0F3
:1027300001DA0E94D10831CB0E944A1E8D819E8110
:10274000909387058093860581CBCF93DF9310927A
:10275000A00410929F0488EE93E0A0E0B0E0809384
:10276000A1049093A204A093A304B093A4048AE0CC
:1027700092E090939E0480939D0485EC90E090936A
:10278000AA048093A90484EC90E09093AC04809315
:10279000AB0480EC90E09093AE048093AD0481ECA8
:1027A00090E09093B0048093AF0482EC90E090931B
:1027B000B2048093B10486EC90E09093B4048093CB
:1027C000B3041092B6041092B7041092B804109299
:1027D000B9041092400510924105109242051092E2
:1027E000430510924405109245051092460510923B
:1027F0004705109248051092490510924A0510921B
:102800004B0510924C0510924D0510924E051092FA
:102810004F051092CF051092CE0586E392E090937B
:10282000CD058093CC058BE18093D0058FEF80930D
:10283000D1058AE18093D20589E18093D30588E1AF
:102840008093D40587E18093D50586E18093D605F2
:102850001092D7051092D8051092D9051092DA057A
:102860001092DB0581E08093DF051092E00580E4A3
:102870008093E10580E18093E20580E58093E305A4
:102880008BE10E9419048091D1058F3F11F00E94C5
:1028900019048091D2050E941904CCECD5E09E0168
:1028A0002C5C35408091DB0584FD03C084E090E022
:1028B00002C088E090E021962817390724F48E8121
:1028C0000E941904ECCF8BE39DE00197F1F760E0E3
:1028D0008091D0050E94050B60E08091D2050E9496
:1028E000050B8091D1058F3F19F060E00E94050B28
:1028F0006091DB0564FD20C063E08CEC95E00E94F4
:10290000660CCBE4D6E4CE010197F1F763E08CECE2
:1029100095E00E94660C2197F1F763E08CEC95E05E
:102920000E94660C83E592E00197F1F762E08CEC7F
:1029300095E00E94660C1EC0606240E08CEC95E061
:102940000E94910C8BE496E40197F1F76091DB050E
:10295000606240E08CEC95E00E94910C83E592E08F
:102960000197F1F76091DB05606240E08CEC95E047
:102970000E94910C6091DB05606240E08CEC95E078
:102980000E94910C84E08093DC0540E06CE08CECCC
:1029900095E00E94910C40E061E08CEC95E00E9493
:1029A000910C8BE39FE10197F1F782E08093DD05C5
:1029B00040E066E08CEC95E00E94910C8CE192E0A6
:1029C000909389058093880521E020938B051092D0
:1029D0009405109295051092960510929705109205
:1029E00098051092990510929A0510929B051092E5
:1029F0009C0510929D0510929E0510929F0580E007
:102A000090E0A0E8BFE38093A0059093A105A09378
:102A1000A205B093A3051092A4051092A5051092EB
:102A2000A6051092A7058093A8059093A905A093E9
:102A3000AA05B093AB051092AC051092AD051092AB
:102A4000AE051092AF0541E050E05093B5054093BC
:102A5000B4053FEF3093B7051092B0051092B10561
:102A60001092B2051092B30537E030938C0538E030
:102A700030938D0520938E0525E020938F051092CD
:102A8000B6051092BC051092BD051092BE051092BD
:102A9000BF051092C0051092C1051092C205109298
:102AA000C3051092C4051092C5051092C605109278
:102AB000C7058093C8059093C905A093CA05B09334
:102AC000CB0510928A0510929005109291051092F4
:102AD00092051092930588E895E00E94960B60E0BD
:102AE00070E080E89FE30E948D036FE472E082E86B
:102AF00095E0DF91CF910C944C0D82E895E00C9419
:102B0000470DEF920F931F93CF93DF93E80147FD9B
:102B100002C034E001C034E1042E000C550B57FF15
:102B200003C0519541955109E32E022F242FAE0188
:102B300012D0CE01DF91CF911F910F91EF900895A8
:102B4000662777277EC19111A7C3803219F089507B
:102B50008550D0F708958F929F92AF92BF92CF92F7
:102B6000DF92EF92FF920F931F93CF93DF93CDB736
:102B7000DEB729970FB6F894DEBF0FBECDBF6A014E
:102B8000122FB02E2BE3201720F0FF24F394F00E29
:102B900002C02CE3F22E0F2D27E0AE014F5F5F4FF6
:102BA000A3D2BC014981842F8970813031F0E1FCCE
:102BB00006C0E0FE06C090E205C09DE203C09BE2B5
:102BC00001C090E05E2D507143FF3CC0911102C0E6
:102BD00083E001C084E0811718F4212F281B01C075
:102BE00020E051110BC0F601822F30E2882319F04A
:102BF00031938150FBCFC20ED11C20E0992329F0E4
:102C0000D6019C93F60131966F01C6010396E2FE50
:102C10000AC03EE4D6013C9341E411964C931197CF
:102C200012963C9306C03EE6F601308341E64183AE
:102C30003283FC01322F40E2332309F442C0419336
:102C40003150FACF42FF44C0911102C083E001C06D
:102C500084E0811718F4212F281B01C020E05111B6
:102C60000BC0F601822F30E2882319F03193815096
:102C7000FBCFC20ED11C20E0992329F0D6019C93F2
:102C8000F60131966F01C6010396E2FE0BC039E4EE
:102C9000D6013C933EE411963C93119736E412968C
:102CA0003C9307C039E6F60130833EE6318336E6D1
:102CB0003283FC01322F40E2332319F0419331502B
:102CC000FBCFFC01E20FF11D10828EEF9FEFA6C03B
:102CD00021E030E0911102C020E030E01616170626
:102CE0001CF4FB01319602C0E1E0F0E02E0F3F1F23
:102CF000BB2021F0EB2DF0E0319602C0E0E0F0E0E7
:102D00002E0F3F1FE12FF0E02E173F071CF4121B80
:102D1000212F01C020E08E2D887159F4F601822FF9
:102D200030E2882319F031938150FBCFC20ED11CC1
:102D300020E0992329F0D6019C93F60131966F018A
:102D400051110BC0F601822F90E3882319F0919363
:102D50008150FBCFC20ED11C20E00F2D060F9A81AF
:102D6000342F307144FF03C0913309F40150101621
:102D700024F4093018F008E001C001E0AB0177FF4E
:102D800002C040E050E0FB01E41BF50BA1E0B0E025
:102D9000AC0FBD1FEA0FFB1F8EE2A82E4B01801A5D
:102DA00091080B2D10E01195019511094F3FBFEFD0
:102DB0005B0721F4D601AC9211966D01641775077B
:102DC0002CF08416950614F4818101C080E34150F3
:102DD00051093196D60111967D014017510724F013
:102DE000D6018C936701E2CF6417750739F49633E7
:102DF00020F4953319F4311101C081E3F601808389
:102E0000F701822F90E2882319F091938150FBCF34
:102E1000F701E20FF11D108280E090E029960FB6D5
:102E2000F894DEBF0FBECDBFDF91CF911F910F9100
:102E3000FF90EF90DF90CF90BF90AF909F908F90DA
:102E400008958F929F92AF92BF92CF92DF92EF92AE
:102E5000FF920F931F93CF93DF93EC016B016115EA
:102E6000710519F0FB01918380837E01FFEFEF1A5A
:102E7000FF0A0881802F90E066DE892B11F0E701C0
:102E8000F4CF0D3239F47E0182E0E80EF11C0981A5
:102E900011E008C00B3229F47E0192E0E90EF11C2A
:102EA000098110E0E701219743E050E060E371E021
:102EB000CE01F5D1892BB9F4239645E050E06BE2C1
:102EC00071E0CE01ECD1892B09F42596C114D1040F
:102ED00019F0F601D183C0831111F0C060E070E0F9
:102EE00080E89FE7F4C043E050E068E271E0CE0183
:102EF000D6D1892B59F4C114D10409F4E4C0F2E00D
:102F0000EF0EF11CF601F182E082DDC020E030E03E
:102F1000A901C0E0D0E0F70160EDA62EA00E89E087
:102F20008A1528F1912F9260B92E812F887012FF97
:102F300004C0811123C0219621C081112197A5E0F1
:102F4000B0E000D3DC01CB01880F991FAA1FBB1F83
:102F50009C01AD012A0D311D411D511D283989E902
:102F60003807480789E1580748F0166006C09EEF09
:102F7000A9120AC013FD40C01860B12E8FEFE81AE5
:102F8000F80A00811B2DC7CF802F8F7D8534A1F5D6
:102F900080818D3211F4106106C08B3221F03196A0
:102FA00061E070E004C08181329662E070E080539D
:102FB0008A3018F0E61BF70B1FC060E070E0603845
:102FC0009CE079075CF4DB01AA0FBB1FAA0FBB1FB3
:102FD0006A0F7B1F660F771F680F711D3196DF0127
:102FE00011978C9180538A3050F314FF03C0719570
:102FF00061957109C60FD71F11FF08C0C114D10414
:1030000029F0CF010197F60191838083CA01B901AC
:1030100062D1212F2370233019F04B015C0106C0CF
:103020004B015C01B7FAB094B7F8B09420E030E0FF
:10303000A901C501B4014BD1882309F43CC0D7FFD5
:1030400006C0D195C195D10907E411E002C00FE592
:1030500011E06801F8E1CF1AD10890E2E92EF12CD5
:10306000CE15DF056CF0F80125913591459154910D
:10307000C501B40191D14B015C01CE19DF09F0CF3C
:1030800004501109F594E7940C151D0549F78A2D94
:10309000880F8B2D881F8F3F41F020E030E0A90181
:1030A000C501B40114D1811106C082E290E0909371
:1030B000EA058093E905C501B40109C060E070E04C
:1030C00080E89FEF04C060E070E080EC9FE7DF9154
:1030D000CF911F910F91FF90EF90DF90CF90BF9015
:1030E000AF909F908F900895283008F027E0332705
:1030F000DA01990F311D87FD916000966105710518
:1031000039F432602E5F3D9330E32A95E1F708955C
:103110009F3F30F080387105610509F03C5F3C5FEE
:103120003D93913008F08068911DDF93CF931F93FA
:103130000F93FF92EF92192F987F9695E92F96950E
:103140009695E90FFF27E354FE4F99273327EE2486
:10315000FF24A701E70105900894079428F4360F8F
:10316000E71EF81E491F511D660F771F881F991F04
:103170000694A1F70590079428F4E70EF81E491F5E
:10318000561FC11D770F881F991F661F0694A1F750
:103190000590079428F4F80E491F561FC71FD11D2C
:1031A000880F991F661F771F0694A1F70590079453
:1031B00020F4490F561FC71FD81F990F661F771F8E
:1031C000881F0694A9F784911095177041F0D69541
:1031D000C79557954795F794E7941A95C1F7E3E695
:1031E000F1E0689415901591359165919591059050
:1031F0007FE27395E118F10A430B560BC90BD00916
:10320000C0F7E10CF11E431F561FC91FD01D7EF4ED
:10321000703311F48A95E6CFE894015030F0080F2E
:103220000AF40027021708F4202F2395022F7A337F
:1032300028F079E37D932A95E9F710C07D932A95CC
:1032400089F6069497956795379517951794E11821
:10325000F10A430B560BC90BD00998F023957E91C8
:1032600073957A3308F070E37C932013B8F77E915E
:1032700070617D9330F0839571E37D9370E32A95BF
:10328000E1F71124EF90FF900F911F91CF91DF9103
:10329000992787FD90950895992788270895FB0120
:1032A000DC014150504088F08D9181341CF08B3509
:1032B0000CF4805E659161341CF06B350CF4605E3B
:1032C000861B611171F3990B0895881BFCCF40D0C8
:1032D00008F481E00895E89409C097FB3EF49095C6
:1032E0008095709561957F4F8F4F9F4F9923A9F0DF
:1032F000F92F96E9BB279395F6958795779567956E
:10330000B795F111F8CFFAF4BB0F11F460FF1BC0B1
:103310006F5F7F4F8F4F9F4F16C0882311F096E944
:1033200011C0772321F09EE8872F762F05C06623F2
:1033300071F096E8862F70E060E02AF09A95660FAB
:10334000771F881FDAF7880F9695879597F9089564
:10335000990F0008550FAA0BE0E8FEEF16161706A6
:10336000E807F907C0F012161306E407F50798F00E
:10337000621B730B840B950B39F40A2661F0232B27
:10338000242B252B21F408950A2609F4A140A695A3
:103390008FEF811D811D08950BD078C069D028F072
:1033A0006ED018F0952309F05AC05FC01124A2C056
:1033B0007ED0A0F3959FD1F3950F50E0551F629FEB
:1033C000F001729FBB27F00DB11D639FAA27F00D7E
:1033D000B11DAA1F649F6627B00DA11D661F829FA5
:1033E0002227B00DA11D621F739FB00DA11D621F8A
:1033F000839FA00D611D221F749F3327A00D611DA7
:10340000231F849F600D211D822F762F6A2F112488
:103410009F5750408AF0E1F088234AF0EE0FFF1FDB
:10342000BB1F661F771F881F91505040A9F79E3F12
:10343000510570F014C05EC05F3FECF3983EDCF3C2
:10344000869577956795B795F795E7959F5FC1F74F
:10345000FE2B880F911D9695879597F9089597F9FA
:103460009F6780E870E060E008959FEF80EC08952A
:1034700000240A9416161706180609060895002453
:103480000A9412161306140605060895092E0394CD
:10349000000C11F4882352F0BB0F40F4BF2B11F441
:1034A00060FF04C06F5F7F4F8F4F9F4F089557FDA0
:1034B0009058440F551F59F05F3F71F04795880FA2
:1034C00097FB991F61F09F3F79F087950895121639
:1034D00013061406551FF2CF4695F1DF08C01616E5
:1034E00017061806991FF1CF869571056105089496
:1034F0000895E894BB2766277727CB0197F90895AD
:10350000A1E21A2EAA1BBB1BFD010DC0AA1FBB1FE7
:10351000EE1FFF1FA217B307E407F50720F0A21B59
:10352000B30BE40BF50B661F771F881F991F1A94C6
:1035300069F760957095809590959B01AC01BD01F0
:10354000CF01089509D0A59F900DB49F900DA49F21
:10355000800D911D11240895A29FB001B39FC00159
:10356000A39F700D811D1124911DB29F700D811DAF
:103570001124911D08955058BB27AA270ED086CF3D
:1035800077DF30F07CDF20F031F49F3F11F41EF440
:103590006CCF0EF4E095E7FB62CFE92F88DF80F374
:1035A000BA17620773078407950718F071F49EF540
:1035B000A0CF0EF4E0950B2EBA2FA02D0B01B90170
:1035C00090010C01CA01A0011124FF27591B99F099
:1035D000593F50F4503E68F11A16F040A22F232FA5
:1035E000342F4427585FF3CF469537952795A795F5
:1035F000F0405395C9F77EF41F16BA0B620B730B9C
:10360000840BBAF09150A1F0FF0FBB1F661F771F0C
:10361000881FC2F70EC0BA0F621F731F841F48F4C1
:10362000879577956795B795F7959E3F08F0B3CF47
:103630009395880F08F09927EE0F97958795089531
:103640000CD024CF1CDF40F013DF30F021F45F3FBB
:1036500019F005CF51114ECF08CF29DF98F39923E8
:10366000C9F35523B1F3951B550BBB27AA27621746
:103670007307840738F09F5F5F4F220F331F441F8B
:10368000AA1FA9F333D00E2E3AF0E0E830D09150C3
:103690005040E695001CCAF729D0FE2F27D0660FB0
:1036A000771F881FBB1F261737074807AB07B0E8EF
:1036B00009F0BB0B802DBF01FF2793585F4F2AF005
:1036C0009E3F510568F0CBCE15CF5F3FECF3983E9F
:1036D000DCF3869577956795B795F7959F5FC9F762
:1036E000880F911D9695879597F90895E1E0660FEB
:1036F000771F881FBB1F621773078407BA0720F064
:10370000621B730B840BBA0BEE1F88F7E0950895CC
:1037100004D06894B111EECE0895D1DE88F09F57A1
:1037200090F0B92F9927B751A0F0D1F0660F771F0D
:10373000881F991F1AF0BA95C9F712C0B13081F0ED
:10374000D8DEB1E00895D5CE672F782F8827B85FEF
:1037500039F0B93FCCF3869577956795B395D9F74E
:103760003EF490958095709561957F4F8F4F9F4F58
:103770000895EEDD08F48FEF089511F40EF475CE80
:1037800042C09DDED0F39923D9F3CEF39F57550B5A
:1037900087FF47D00024A0E640EA90018058569564
:1037A000979528F4805C660F771F881F20F02617F6
:1037B0003707480730F4621B730B840B202931292B
:1037C0004A2BA69517940794202531254A2758F7A8
:1037D000660F771F881F20F026173707480730F439
:1037E000620B730B840B200D311D411DA09581F7D9
:1037F000B901842F9158880F969587950895A8DD73
:10380000880B990B08959F3F31F0915020F48795D4
:1038100077956795B795880F911D9695879597F938
:10382000089591505040660F771F881FD2F7089572
:10383000052E97FB16F400940FD057FD05D060DEDF
:1038400007FC02D046F408C050954095309521956C
:103850003F4F4F4F5F4F08959095809570956195BC
:103860007F4F8F4F9F4F0895EE0FFF1F881F8BBF15
:103870000790F691E02D19940F931F93CF93DF9348
:103880008230910510F482E090E0E091ED05F09136
:10389000EE0520E030E0A0E0B0E0309719F1408183
:1038A00051810281138148175907C8F08417950781
:1038B00069F4109731F012960C93129713961C939B
:1038C00027C00093ED051093EE0522C021153105A8
:1038D00019F04217530718F49A01BD01EF01DF01F7
:1038E000F801DBCF21153105F9F0281B390B243005
:1038F000310580F48A819B816115710521F0FB01FE
:103900009383828304C09093EE058093ED05FE01BE
:10391000329644C0FE01E20FF31F8193919322502F
:103920003109398328833AC02091EB053091EC05A9
:10393000232B41F420910202309103023093EC05D5
:103940002093EB05209100023091010221153105F1
:1039500041F42DB73EB74091040250910502241B5B
:10396000350BE091EB05F091EC05E217F307A0F4BD
:103970002E1B3F0B2817390778F0AC014E5F5F4FC5
:103980002417350748F04E0F5F1F5093EC05409306
:10399000EB058193919302C0E0E0F0E0CF01DF916D
:1039A000CF911F910F910895CF93DF93009709F462
:1039B00081C0FC01329713821282A091ED05B09173
:1039C000EE05109781F420813181820F931F2091A1
:1039D000EB053091EC052817390751F5F093EC050C
:1039E000E093EB0567C0ED0120E030E0CE17DF0784
:1039F00040F44A815B819E0141155105F1F0EA01D5
:103A0000F5CFD383C28340815181840F951FC8179E
:103A1000D90759F488819981840F951F0296918363
:103A200080838A819B81938382832115310529F4C8
:103A3000F093EE05E093ED053DC0E901FB83EA83D9
:103A400049915991C40FD51FEC17FD0761F480818E
:103A50009181840F951F0296E90199838883828161
:103A600093819B838A83E0E0F0E012968D919C9194
:103A70001397009719F0FD01DC01F7CF8D919C9110
:103A800011979D012E5F3F4F820F931F2091EB05F1
:103A90003091EC052817390769F4309729F4109212
:103AA000EE051092ED0502C013821282B093EC0570
:103AB000A093EB05DF91CF9108956F927F928F9243
:103AC0009F92AF92BF92CF92DF92EF92FF920F93AD
:103AD0001F93CF93DF93009781F4CB01DF91CF91B8
:103AE0001F910F91FF90EF90DF90CF90BF90AF901C
:103AF0009F908F907F906F90BFCEFC01E60FF71FD5
:103B00009C0122503109E217F30708F4A5C0EC012B
:103B1000D9010D911C91119706171707A8F00530D0
:103B2000110508F497C0C80104978617970708F491
:103B300091C002501109061B170B019311936D934D
:103B40007C93CF0131DF86C05B01A01AB10A4C0122
:103B5000800E911EA091ED05B091EE05612C712CA7
:103B6000E12CF12C109709F446C08D919C9111978E
:103B7000A815B905B1F56C0142E0C40ED11CCA14F8
:103B8000DB0478F14C018A189B08640142E0C40E02
:103B9000D11C1296BC9012971396AC91B5E0CB163F
:103BA000D10440F0B282A38391828082D9016D93C7
:103BB0007C9309C00E5F1F4F800F911FF901918305
:103BC0008083EB2DFA2FE114F10431F0D701139625
:103BD000FC93EE9312973EC0F093EE05E093ED0553
:103BE00039C06816790608F43C017D0112960D90E3
:103BF000BC91A02DB7CF8091EB059091EC05881674
:103C00009906E1F466167706C8F480910002909157
:103C10000102009741F48DB79EB740910402509184
:103C20000502841B950BE817F907B0F4F093EC0537
:103C3000E093EB05F901718360830CC0CB011CDEBE
:103C40007C01009749F0A801BE011BD0CE01ACDE7B
:103C5000C70104C0CE0102C080E090E0DF91CF91A7
:103C60001F910F91FF90EF90DF90CF90BF90AF909A
:103C70009F908F907F906F90089581E090E0F894EE
:103C80002DC0FB01DC0102C001900D92415050405B
:103C9000D8F70895FB01DC0101900D920020E1F7B7
:103CA0000895FB01DC014150504030F08D910190AE
:103CB000801919F40020B9F7881B990B0895FB01AE
:103CC000DC014150504048F001900D920020C9F7AE
:103CD00001C01D9241505040E0F7089511E0C3EB40
:103CE000D1E000E005C0802FFE01BEDD2196011D60
:0E3CF000C43BD10780E00807B1F7F894FFCF7E
:103CFE000000EF058000000000006408E40CFC07E3
:103D0E00B0082D080B081F0800000000BE0B960B14
:103D1E00D90B5E0A480A100AEF09BB099A09440931
:103D2E000C0900000000DE0CE40C0909E30C564DF2
:103D3E004450565F317C305F564D4450560D0A004C
:103D4E0020312072656365697665642020005445D4
:103D5E00535400436F6D6D756E69636174696F6E58
:103D6E00732065737461626C69736865642C20726C
:103D7E0065636569766564202000546172676574B9
:103D8E0020417A2020200043757272656E742041A6
:103D9E007A2020200020736F206120676F6F6420CF
:103DAE0073657175656E636520776F756C642062DF
:103DBE006520617320666F6C6C6F777300312053D2
:103DCE004132323023202020736C657720746F20AF
:103DDE00617A696D757468207265717565737400AA
:103DEE003220434C23202020202020636C6F636BF5
:103DFE0077697365206D6F76656D656E742072657B
:103E0E007175657374003320534C31383023202084
:103E1E002073696D756C61746573207468652063B9
:103E2E006F6D7061737320726F7574696E6520703B
:103E3E00726F766964696E67203138302064656709
:103E4E0072656573003420534C32303123202020AC
:103E5E007465737473207468652077697468696E0D
:103E6E002032302064656772656573206269742044
:103E7E0077686963682073686F756C642072656417
:103E8E0075636520737065656420746F206F6E6551
:103E9E00207468697264003520534C323138232007
:103EAE00202073686F756C642073746F7020776850
:103EBE00656E207468697320697320656E7465720F
:103ECE006564206265636175736520776520617234
:103EDE00652077697468696E2074686520636F6405
:103EEE0065642035206465677265652077696E6448
:103EFE006F7720776869636820646566696E65739D
:103F0E002074617267657420726561636865642EE2
:103F1E0000656D657267656E63792073746F7020CE
:103F2E0069732045532300455300534100434C0011
:103F3E00434300534C0077697468696E2032302019
:103F4E006465672020007C006E616E00696E6600FD
:103F5E006F7666005F564D445045004D6F76696E24
:103F6E0067004E6F746D6F76696E6700564D4450E4
:083F7E00455F003A323A0000F1
:00000001FF
