:10000000B3C10000E2C10000E0C10000DEC1000099
:10001000DCC10000DAC10000D8C10000D6C1000078
:10002000D4C10000D2C10000D0C10000CEC1000088
:10003000CCC10000CAC10000C8C10000C6C1000098
:10004000C4C10000C2C10000C0C10000BEC10000A8
:10005000BCC10000BAC10000B8C100000C94850CFE
:10006000B4C100000C942B090C940209AEC100002D
:10007000ACC10000AAC10000A8C10000A6C10000D8
:10008000A4C10000A2C10000A0C100009EC10000E8
:100090009CC100009AC1000098C1000096C10000F8
:1000A00094C1000092C1000090C100008EC1000008
:1000B0008CC100008AC1000088C1000086C1000018
:1000C00084C1000082C1000080C100007EC1000028
:1000D0007CC100007AC1000078C1000076C1000038
:1000E00074C10000C109C509C909CD09D109D509E3
:1000F000D909150B1C0B230B2A0B310B490B380BA1
:10010000490B3F0B9D0BA00B8F0B930B970BD70B42
:10011000A40BA80BAE0BB20BB60BBC0BC00BC40BE5
:10012000D70BCA0BCE0BD20B4E414E494E495459F8
:10013000494E46CDCCCC3D0AD7233C17B7D13877B2
:10014000CC2B329595E6241FB14F0A0000204100C8
:1001500000C84200401C4620BCBE4CCA1B0E5AAE12
:10016000C59D7400407A10F35A00A0724E18090021
:1001700010A5D4E80000E87648170000E40B54020C
:100180000000CA9A3B000000E1F505000080969847
:1001900000000040420F000000A086010000001097
:1001A0002700000000E803000000006400000000D9
:1001B000000A00000000000100000000002C76D8BA
:1001C00088DC674F0823DFC1DFAE59E1B1B796E5A0
:1001D000E3E453C63AE651997696E8E6C28426EB04
:1001E000898C9B62ED407C6FFCEFBC9C9F40F2BA17
:1001F000A56FA5F490055A2AF75C936B6CF9676DAF
:10020000C11BFCE0E40D47FEF520E6B500D0ED9003
:100210002E0300943577050080841E080000204ED0
:100220000A000000C80C333333330F986E12831169
:1002300041EF8D2114893BE65516CFFEE6DB18D140
:10024000844B381BF77C1D901DA4BBE42420328412
:10025000725E228100C9F124ECA1E53D2700002255
:1002600000250028002B002E003100340002010080
:1002700000050108010B0100002100240027002ACD
:10028000002D003000330001010000040107010AC5
:100290000105050505070508080808020202020A0B
:1002A0000A08080404040401010101010101010319
:1002B00003030303030303040707070C0C0C0C0CD4
:1002C0000C0C0C0202020206060606060606060BC7
:1002D0000B0B0B0B0B0B0B0102102020080810203E
:1002E00040102040800201020108040201010204C2
:1002F0000810204080804020100804020180040281
:1003000001804020100804020108040201010204D7
:100310000810204080010204081020408000000ADC
:100320000B02090C0D0E0807030401000000000079
:1003300000000000000000000000000000000000BD
:10034000000000000000000000121110000000007A
:10035000000000000000000000000000000000009D
:10036000000000004C0D7C1211241FBECFEFD1E223
:10037000DEBFCDBF00E00CBF25E0A8E5B4E001C0C2
:100380001D92AF3BB207E1F714E0A0E0B2E0E4EF6A
:10039000F6E300E00BBF02C007900D92A835B1074D
:1003A000D9F711E0C3EBD1E000E006C021970109C5
:1003B000802FFE010E942F19C23BD10780E0080761
:1003C000A9F70E94090E0C94691B1ACE0895CF92CA
:1003D000DF92EF92FF920F931F93CF93DF936C0105
:1003E0007A018B01C0E0D0E0CE15DF0581F0D801A5
:1003F0006D918D01D601ED91FC910190F081E02D80
:10040000C6011995892B11F02196EECF7E01C70107
:10041000DF91CF911F910F91FF90EF90DF90CF90E0
:1004200008950E94381BCF93DF93EC018881998156
:10043000009711F00E94CF19198218821D821C8228
:100440001B821A82DF91CF9108954F925F926F9233
:100450007F928F929F92AF92BF92CF92DF92EF9254
:10046000FF920F931F93CF93DF93C0905605D090C8
:100470005705E0905805F0905905809152059091EC
:100480005305A0915405B0915505C81AD90AEA0A36
:10049000FB0A60915A0570915B0580915C05909113
:1004A0005D059B01AC010E94CB164B015C01609184
:1004B00062057091630580916405909165059B01CB
:1004C000AC010E94BB179B01AC01C501B4010E94A5
:1004D0001F180E948718C114D104E104F104F9F433
:1004E00062307105810591050CF092C010926A0589
:1004F00010926B0510926C0510926D0510925A05C2
:1005000010925B0510925C0510925D0510927A05C1
:1005100010927B0510927C0510927D052AC10091F6
:100520007A0510917B0520917C0530917D051C1486
:100530001D041E041F040CF51016110612061306E6
:1005400054F46C157D058E059F0564F520918A0590
:1005500021115EC027C0011511052105310509F4DF
:1005600057C06C157D058E059F050CF051C080911C
:100570008A05882309F44CC03CC0101611061206E7
:10058000130614F50027112798010C191D092E09CF
:100590003F09601771078207930724F420918A05A9
:1005A0002223B1F19B01AC0188279927DC01821B32
:1005B000930BA40BB50B80937A0590937B05A093C6
:1005C0007C05B0937D0524C0011511052105310579
:1005D000F9F08824992454018C189D08AE08BF08AE
:1005E000681579058A059B059CF480918A0581111F
:1005F0000FC030952095109501951F4F2F4F3F4FFD
:1006000000937A0510937B0520937C0530937D053C
:1006100080907A0590907B05A0907C05B0907D0538
:1006200081149104A104B104D1F480917E059091CC
:100630007F05A0918005B0918105809382059093FC
:100640008305A0938405B093850581E01C141D04E7
:100650001E041F040CF080E080938A054AC0C090FD
:100660008205D0908305E0908405F0908505A70170
:100670009601C701B6010E94BB172B013C01C501C1
:10068000B4010E946C1620E030E040E850E40E9483
:10069000CB1620E030E040E85FE30E94BB179B01EF
:1006A000AC01C301B2010E941F189B01AC01C7013C
:1006B000B6010E94BA17D62FC72F6C01E0908605AD
:1006C000F090870500918805109189059701A80190
:1006D0000E94B81818161CF4ED2EFC2E8601C701D6
:1006E000D8018093820590938305A0938405B093ED
:1006F00085053FEF831A930AA30AB30A80927A050D
:1007000090927B05A0927C05B0927D05C0908205F9
:10071000D0908305E0908405F0908505C701B6016F
:100720000E948C1860936A0570936B0580936C052A
:1007300090936D05A701960160E074E284E799E467
:100740000E941F1860935A0570935B0580935C05A7
:1007500090935D0520918A0521110BC0DC01CB012E
:10076000B05880935A0590935B05A0935C05B093B5
:100770005D05DF91CF911F910F91FF90EF90DF907A
:10078000CF90BF90AF909F908F907F906F905F9031
:100790004F9008954F925F926F927F928F929F92A7
:1007A000AF92BF92CF92DF92EF92FF926B017C01EA
:1007B0008090620590906305A0906405B0906505F7
:1007C0009B01AC01C501B4010E946616882309F49F
:1007D00055C060917A0570917B0580917C05909160
:1007E0007D050E946C162B013C01A7019601C501F5
:1007F000B4010E941F189B01AC01C301B2010E9409
:10080000CB160E94871860937A0570937B058093BE
:100810007C0590937D05A701960160E070E080E083
:1008200090E40E941F180E94C01826E53EE04DE2A9
:100830005FE30E94CB1620E034E244E759E40E94D3
:10084000CB1660937E0570937F058093800590930F
:100850008105C0926205D0926305E0926405F09232
:100860006505FF90EF90DF90CF90BF90AF909F9085
:100870008F907F906F905F904F90E7CDFF90EF90BB
:10088000DF90CF90BF90AF909F908F907F906F90B0
:100890005F904F90089590E0FC01E952FD4F249144
:1008A000FC01EF56FD4F8491882399F090E0880F6A
:1008B000991FFC01E958FD4FA591B491FC01E35A41
:1008C000FD4F859194918FB7F894EC91E22BEC93C6
:1008D0008FBF0895CF93DF93823028F090919A05CF
:1008E000986090939A0580939E0510929F0580E4EE
:1008F0008093A00580E18093A10580E58093A20507
:1009000080918F05C8DF809190058F3F09F0C3DF8C
:1009100080919105C0DFCBE8D5E09E012B58354092
:1009200080919A0584FD03C084E090E002C088E0D5
:1009300090E02196281739071CF48E81ACDFEDCFAB
:100940008BE39DE00197F1F760E080918F05C6D6BB
:1009500060E080919105C2D6809190058F3F11F0A3
:1009600060E0BCD660919A0564FD1FC063E08BE82F
:1009700095E00E94CF0CCBE4D6E4CE010197F1F7CD
:1009800063E08BE895E00E94CF0C2197F1F763E0DC
:100990008BE895E00E94CF0C83E592E00197F1F798
:1009A00062E08BE895E0FBD71EC0606240E08BE818
:1009B00095E00E94FA0C8BE496E40197F1F76091C0
:1009C0009A05606240E08BE895E00E94FA0C83E5AE
:1009D00092E00197F1F760919A05606240E08BE840
:1009E00095E00E94FA0C60919A05606240E08BE805
:1009F00095E00E94FA0C84E080939B0540E06CE057
:100A00008BE895E0F7D740E061E08BE895E0F2D71E
:100A10008BE39FE10197F1F782E080939C0540E032
:100A200066E08BE895E0DF91CF91E4C7ECE5F4E078
:100A3000A089B18982E08C93A089B1891C92A48598
:100A4000B5851C92A685B78580E18C93108EA4890C
:100A5000B58986E08C93A289B3898C9180618C934F
:100A6000A289B3898C9188608C93A289B3898C9177
:100A700080688C930288F389E02D80818F7D80834C
:100A80000895CF92DF92EF92FF926B017C0120E0FC
:100A900030E0A9010E946616882339F0C701B6012B
:100AA000FF90EF90DF90CF9075CEFF90EF90DF90AA
:100AB000CF900895CF92DF92EF92FF926B017C016D
:100AC0009B01AC0160915E0570915F0580916005AE
:100AD000909161050E946616882309F454C0C09263
:100AE0005E05D0925F05E0926005F0926105A70176
:100AF000960160E074E284E799E40E941F18609315
:100B00008605709387058093880590938905809169
:100B10007A0590917B05A0917C05B0917D05181612
:100B200019061A061B067CF560915A0570915B0543
:100B300080915C0590915D059B01AC010E94CB16F4
:100B40006B017C0160916205709163058091640581
:100B5000909165059B01AC010E94BB179B01AC0104
:100B6000C701B6010E941F180E94871860937A057A
:100B700070937B0580937C0590937D05FF90EF90AB
:100B8000DF90CF9062CCFF90EF90DF90CF900895F0
:100B90008F929F92AF92BF92CF92DF92EF92FF928D
:100BA00080905A0590905B05A0905C05B0905D0523
:100BB00020E030E0A901C501B4010E946616882337
:100BC00009F45BC0A5019401C501B4010E94CB16D4
:100BD0006B017C01609162057091630580916405F1
:100BE000909165059B01AC010E94BB179B01AC0174
:100BF000C701B6010E941F180E9487186B017C0173
:100C00002FEFC21AD20AE20AF20A20E030E0A9016C
:100C1000C501B4010E94B818409152055091530586
:100C20006091540570915505809056059090570538
:100C3000A0905805B090590518162CF44C0D5D1D68
:100C40006E1D7F1D04C04C195D096E097F09841655
:100C50009506A606B70689F04093560550935705AA
:100C60006093580570935905FF90EF90DF90CF90F7
:100C7000BF90AF909F908F90E8CBFF90EF90DF9068
:100C8000CF90BF90AF909F908F900895CF92DF92BA
:100C9000EF92FF9280916A0590916B05A0916C058F
:100CA000B0916D05892B8A2B8B2B09F46CC03FB753
:100CB000F8948091580490915904A0915A04B091ED
:100CC0005B0426B5A89B05C02F3F19F00196A11D16
:100CD000B11D3FBFCC24D82EE92EFA2EC20ED11C56
:100CE000E11CF11C42E0CC0CDD1CEE1CFF1C4A9503
:100CF000D1F780916E0590916F05A0917005B0912C
:100D00007105B701A601481B590B6A0B7B0B80913B
:100D10006A0590916B05A0916C05B0916D0548171F
:100D200059076A077B0778F120918A05809152055F
:100D300090915305A0915405B0915505222321F0BF
:100D40000196A11DB11D03C00197A109B1098093AE
:100D5000520590935305A0935405B09355054091C7
:100D6000520550915305609154057091550587E4E3
:100D700095E04AD4C0926E05D0926F05E09270055E
:100D8000F092710562DB20E030E0A90160915A0524
:100D900070915B0580915C0590915D050E946616DF
:100DA000811118C081E0C0905605D0905705E090A1
:100DB0005805F090590540915205509153056091A6
:100DC000540570915505C416D506E606F70619F4C4
:100DD00080E001C081E0FF90EF90DF90CF90089518
:100DE00040914505509146054115510509F14230A4
:100DF000510518F461E070E002C062E070E080919B
:100E0000410590914205461B570B50934605409370
:100E10004505680F791F0E945A1BE0914105F0912A
:100E200042058091450590914605E80FF91F108213
:100E30000895FC018091410590914205009761F071
:100E4000608171816115710539F0448155810E947D
:100E50004C1B21E0892B09F020E0822F08950F938D
:100E60001F9347D560936404709365048093660470
:100E7000909367048CE594E02DD197FF1EC039D57F
:100E80000091640410916504209166043091670418
:100E9000DC01CB01801B910BA20BB30B0091600412
:100EA00010916104209162043091630480179107CE
:100EB000A207B307F8F28FEF9FEF1F910F910895EC
:100EC0000F931F93CF93DF93EC0188819981009753
:100ED00029F02A813B812617370788F48B016F5F41
:100EE0007F4F0E94581A009761F0998388831B8373
:100EF0000A832C813D81232B11F4FC01108281E0B7
:100F000001C080E0DF91CF911F910F910895EF9282
:100F1000FF920F931F93CF93DF93EC01FB010481AA
:100F20001581E080F180E114F104C1F00115110593
:100F3000B9F08C819D81080F191FB801CE01C0DF67
:100F4000882361F0288139818C819D81B701820FCE
:100F5000931F0E94451B1D830C8302C0CE0163DAE0
:100F6000CE01DF91CF911F910F91FF90EF900895E7
:100F7000EF92FF920F931F93CF93DF938C017B012E
:100F80006115710561F0FB0101900020E9F73197CF
:100F9000EF01C61BD70BBE0193DF811103C0C8014F
:100FA00042DA08C0F801D583C483B70180819181FA
:100FB0000E94451BC801DF91CF911F910F91FF90B7
:100FC000EF900895FC01808191810C94CF19EF92EC
:100FD000FF920F931F93CF93DF93EC011982188236
:100FE0001B821A821D821C826115710511F18B0111
:100FF000FB0101900020E9F731977F01E61AF70A1B
:10100000B7015EDF811108C0CE01DF91CF911F9142
:101010000F91FF90EF9007CAFD82EC82B8018881A2
:101020009981DF91CF911F910F91FF90EF900C94D8
:10103000451BDF91CF911F910F91FF90EF90089585
:101040006115710579F0FB0101900020E9F73197F6
:10105000AF01461B570BDC01ED91FC910280F3813F
:10106000E02D199480E090E00895CF93DF93BC01C8
:101070008CE594E0E5DFEC016DE472E08CE594E052
:10108000DFDF8C0F9D1FDF91CF910895CF93DF930A
:10109000FC0144815581608171818CE594E097D990
:1010A000EC016DE472E08CE594E0CADF8C0F9D1FCB
:1010B000DF91CF910895FC01538D448D252F30E0B1
:1010C000842F90E0821B930B541710F0CF96089555
:1010D00001970895FC01918D828D981761F0828DA2
:1010E000DF01A80FB11D5D968C91928D9F5F9F735C
:1010F000928F90E008958FEF9FEF0895FC01918DFE
:10110000828D981731F0828DE80FF11D858D90E06A
:1011100008958FEF9FEF08958CE594E0D2D021E001
:10112000892B09F420E0822F0895EF92FF920F930C
:101130001F93CF93DF93EC0181E0888F9B8D8C8D83
:10114000981305C0E889F989808185FD25C0F62EB0
:101150000B8D10E00F5F1F4F0F731127E02E8C8D4A
:10116000E8120BC00FB607FCFACFE889F989808135
:1011700085FFF5CFCE0190D2F2CF8B8DFE01E80F27
:10118000F11DE35AFF4FF0829FB7F8940B8FEA8965
:10119000FB89808180620AC09FB7F894EE89FF893D
:1011A0006083E889F98980818370806480839FBF30
:1011B00081E090E0DF91CF911F910F91FF90EF9030
:1011C0000895CF93DF93EC01888D8823C1F0EA89DD
:1011D000FB89808185FD05C0A889B9898C9186FD30
:1011E0000EC00FB607FCF5CF808185FFF2CFA8892E
:1011F000B9898C9185FFEDCFCE014ED2E8CFDF913A
:10120000CF9108951F920F920FB60F9211240BB633
:101210000F922F933F934F935F936F937F938F938F
:101220009F93AF93BF93EF93FF938CE594E034D2F9
:10123000FF91EF91BF91AF919F918F917F916F91AE
:101240005F914F913F912F910F900BBE0F900FBE6A
:101250000F901F9018951F920F920FB60F921124A6
:101260000BB60F922F938F939F93EF93FF93E09181
:101270006C04F0916D048081E0917204F09173042C
:1012800082FD12C09081809175048F5F8F732091D1
:101290007604821751F0E0917504F0E0E45AFB4FB8
:1012A000958F8093750401C08081FF91EF919F918C
:1012B0008F912F910F900BBE0F900FBE0F901F902C
:1012C0001895FC01918D228D892F90E0805C9F4FB5
:1012D000821B91098F739927089580E090E0892BF4
:1012E00019F01ADF811125C080E090E0892B41F0D0
:1012F00080E090E0892B21F00E94000081111CC049
:1013000080E090E0892B41F080E090E0892B21F093
:101310000E940000811113C080E090E0892BA1F0B1
:1013200080E090E0892B81F00E94000081110AC0CA
:1013300008950E940000D8CF0E940000E1CF0E94D3
:101340000000EACF0C940000089580E090E008953A
:10135000CF93DF93DC014770552766277727FA0183
:101360003197CD91DC911197E730F10530F4882762
:10137000EE58FF4F8F4F0C942F19EC81FD8161E0E7
:101380001BC0EC81FD8165E017C0EC81FD8164E04C
:1013900013C0EC81FD8166E00FC0EC81FD8162E04D
:1013A0000BC0EC81FD816AE007C0EC81FD8168E043
:1013B00003C0EC81FD8169E0CD01DF91CF911994EB
:1013C000CF93DF93EC01CB01BA0126E030E040E09F
:1013D00050E00E941319623071058105910559F1A1
:1013E0008CF46115710581059105F1F0613071058D
:1013F00081059105C1F5E881F9810480F581E02D31
:1014000065E02DC0643071058105910511F1D4F0BE
:10141000653071058105910531F5E881F981048018
:10142000F581E02D66E01BC0E881F9810480F5813B
:10143000E02D64E014C0E881F9810480F581E02D9D
:1014400061E00DC0E881F9810480F581E02D63E061
:1014500006C0E881F9810480F581E02D62E0CE01CB
:10146000DF91CF911994DF91CF9108954370552763
:1014700066277727DC01ED91FC910480F581E02D52
:10148000423051056105710571F043305105610528
:10149000710559F0413051056105710511F065E0A4
:1014A00005C066E003C06AE001C069E01994CF930B
:1014B000DF93EC01CB01BA0123E030E040E050E0E3
:1014C0000E941319613071058105910581F0623028
:1014D00071058105910591F0672B682B692BC1F48B
:1014E000E881F9810480F581E02D64E00DC0E88198
:1014F000F9810480F581E02D61E006C0E881F98181
:101500000480F581E02D62E0CE01DF91CF91199446
:10151000DF91CF9108954370552766277727DC0127
:10152000ED91FC910480F581E02D4230510561057B
:10153000710571F0433051056105710559F0413075
:1015400051056105710511F062E005C063E003C05B
:1015500061E001C060E019940F931F93CF93DF9374
:10156000EC01E881F9810480F581E02D8C010D5BAF
:101570001F4FD8018C91811102C060E001C062E070
:10158000CE011995E881F9810480F581E02DD8011B
:101590008C91811102C061E001C063E0CE01199518
:1015A0008BA59CA58230910538F0880F991F880F74
:1015B000991F05970197F1F7E881F9810480F5817A
:1015C000E02DD8018C91811102C060E001C062E081
:1015D000CE01DF91CF911F910F911994CF93DF939B
:1015E000EC0120E030E0A9016B897C898D899E891E
:1015F0000E94B81818161CF4EFA5F8A902C0E9A9B2
:10160000FAA9DF91CF9119940F931F93DC011296E1
:101610000C91129710E009301105D8F5F8018827D0
:10162000E758FF4F8F4F0C942F19ED91FC911197B4
:101630000084F185E02D29C0ED91FC911197028481
:10164000F385E02D22C0ED91FC9111970484F5857E
:10165000E02D1BC0ED91FC9111970684F785E02DDC
:1016600014C0ED91FC9111970088F189E02D0DC017
:10167000ED91FC9111970288F389E02D06C0ED9160
:10168000FC9111970488F589E02DCD011F910F91F0
:1016900019941F910F910895FC01848DDF01A80F0B
:1016A000B11DA35ABF4F2C91848D90E001968F738A
:1016B0009927848FA689B7892C93A089B1898C91A9
:1016C000837080648C93938D848D981306C00288F8
:1016D000F389E02D80818F7D80830895362F90E0FF
:1016E000FC01E35EFC4F4491FC01E952FD4F249163
:1016F000FC01EF56FD4F9491992309F46CC04423EB
:1017000009F455C050E0FA013197E231F10508F0D3
:101710004EC08827EE57FF4F8F4F0C942F198091A2
:1017200080008F7707C0809180008F7D03C08091FB
:101730008000877F809380003AC084B58F7702C095
:1017400084B58F7D84BD33C08091B0008F7703C096
:101750008091B0008F7D8093B00029C0809190006F
:101760008F7707C0809190008F7D03C0809190009B
:10177000877F809390001BC08091A0008F7707C067
:101780008091A0008F7D03C08091A000877F80930F
:10179000A0000DC0809120018F7707C080912001AB
:1017A0008F7D03C080912001877F80932001E92FE6
:1017B000F0E0EE0FFF1FE35AFD4FA591B4919FB7E4
:1017C000F894311104C08C912095282302C0EC912B
:1017D0002E2B2C939FBF0895CF93DF93EC0160E0F5
:1017E0008E817CDF61E08E8179DF60E08E8176DF43
:1017F0008BE891E00197F1F7DF91CF910895CF93B6
:10180000DF93FC0122812223F9F0EC01838143D88C
:101810008C8141D88A81843011F0883021F48D8107
:101820003AD88E8105C0833011F0863011F48D8155
:1018300032D88EA58F3F41F02ED86DA581E0682764
:101840008EA5DF91CF914ACFDF91CF910895CF93AD
:10185000DF93FC012281222391F0EC010190F081C1
:10186000E02D0480F581E02D60E019958EA58F3F75
:1018700031F011D86DA58EA5DF91CF912FCFDF91DB
:10188000CF910895CF92DF92EF92FF920F931F9323
:10189000CF93DF93EC019A81943041F0983031F08E
:1018A000933031F0963021F012E003C014E001C013
:1018B00013E02396E12CF12CC62ED12C01E0C601B9
:1018C0000E2C02C0959587950A94E2F76C8180FDF5
:1018D0006027899103DF8FEFE81AF80AE11678F3A1
:1018E000DF91CF911F910F91FF90EF90DF90CF90FC
:1018F00008952FB7F8946091B5057091B605809161
:10190000B7059091B8052FBF08951F920F920FB69B
:101910000F9211242F933F938F939F93AF93BF9375
:101920008091B5059091B605A091B705B091B80525
:101930003091B40523E0230F2D3720F40196A11D2B
:10194000B11D05C026E8230F0296A11DB11D2093ED
:10195000B4058093B5059093B605A093B705B093F1
:10196000B8058091580490915904A0915A04B091FF
:101970005B040196A11DB11D8093580490935904F6
:10198000A0935A04B0935B04BF91AF919F918F9144
:101990003F912F910F900FBE0F901F901895CF92EF
:1019A000DF92EF92FF920F931F93CF93DF936C011F
:1019B0007C0187E0E80EF11CC0E0D0E0062F10E0CB
:1019C000B8010C2E02C0759567950A94E2F7617014
:1019D000F70181917F0182DE2196C430D10581F724
:1019E000C601DF91CF911F910F91FF90EF90DF9093
:1019F000CF90F2CECF92DF92EF92FF920F931F9390
:101A0000CF93DF93EC01F62E642F8C8167DE8D81FE
:101A10008F3F11F060E062DE8F850F2D10E084FFB4
:101A200023C06E0187E0C80ED11CE12CF12CB80157
:101A30000E2C02C0759567950A94E2F76170F60165
:101A400081916F014BDEFFEFEF1AFF0A88E0E81685
:101A5000F10469F7CE01DF91CF911F910F91FF90B3
:101A6000EF90DF90CF90B8CEB80184E07595679580
:101A70008A95E1F7CE0193DF6F2DCE01DF91CF91F3
:101A80001F910F91FF90EF90DF90CF9088CF41E0B2
:101A9000B1DF81E090E00895CF93ECE5F4E01382AC
:101AA000128288EE93E0A0E0B0E084839583A68361
:101AB000B7838AE092E09183808385EC90E09587FC
:101AC000848784EC90E09787868780EC90E0918B08
:101AD000808B81EC90E0938B828B82EC90E0958BF5
:101AE000848B86EC90E0978B868B118E128E138EF2
:101AF000148EE9EFF4E016821782108611861286A2
:101B000013861486158616861786108A118A128AFD
:101B1000138A148A158AEBE8F5E01382128286E3B1
:101B200092E0918380838BE18483CFEFC5838AE148
:101B3000868389E1878388E1808787E1818786E1E1
:101B400082871386148615861686178681E00E9482
:101B50006A04E7E4F5E08CE192E09183808321E080
:101B6000228313861486158616861786108A118A94
:101B7000128A138A148A158A168A80E090E0A0E8F7
:101B8000BFE3878B908FA18FB28F138E148E158E2B
:101B9000168E878F90A3A1A3B2A313A214A215A29D
:101BA00016A241E050E054A743A7C6A717A210A66B
:101BB00011A612A637E0338338E03483258325E06D
:101BC000268313AA14AA15AA16AA17AA10AE11AE34
:101BD00012AE13AE14AE15AE16AE8093860590937A
:101BE0008705A0938805B093890510928A0517820E
:101BF000108611861286CF0102DE60E070E080E878
:101C00009FE30E94CA036FE472E081E495E0CF9104
:101C1000DEC9CF93DF93CDB7DEB7A8970FB6F894A0
:101C2000DEBF0FBECDBF789484B5826084BD84B51D
:101C3000816084BD85B5826085BD85B5816085BDC7
:101C400080916E00816080936E001092810080917F
:101C50008100826080938100809181008160809307
:101C60008100809180008160809380008091B1002C
:101C700084608093B1008091B00081608093B00057
:101C800080919100826080939100809191008160A9
:101C9000809391008091900081608093900080916A
:101CA000A10082608093A1008091A1008160809357
:101CB000A1008091A00081608093A000809121010B
:101CC00082608093210180912101816080932101B4
:101CD0008091200181608093200180917A0084604E
:101CE00080937A0080917A00826080937A0080915C
:101CF0007A00816080937A0080917A008068809376
:101D00007A001092C10010923D0510923E0510928B
:101D10003F05109240051092FB041092FC041092B3
:101D2000FD041092FE04E5DD6B017C014B015C01BA
:101D300028EB820E2BE0921EA11CB11CDADD6C1583
:101D40007D058E059F0528F086169706A806B9061C
:101D5000A8F78CE594E090933C0580933B050E94A6
:101D60001605C7DD6093FB047093FC048093FD04AB
:101D70009093FE046EE372E080913B0590913C05E8
:101D80005FD9B7DD6B017C014B015C018AE0880EF5
:101D9000911CA11CB11CADDD6C157D058E059F0548
:101DA00028F086169706A806B906A8F781E0809362
:101DB0000F050E9416050E94C8051092AA051092F0
:101DC000AB0580E090E0A0EFB1E48093A60590938E
:101DD000A705A093A805B093A90581E090E0909392
:101DE000A5058093A40560E070E080EF91E40E9477
:101DF0005A0560E070E080E89FE30E94410581E0C1
:101E000090E0A0E0B0E08093520590935305A0933A
:101E10005405B09355058093560590935705A093AC
:101E20005805B093590510927A0510927B051092CF
:101E30007C0510927D0510926A0510926B05109238
:101E40006C0510926D0510925A0510925B05109268
:101E50005C0510925D0580E090E0A4E5B3E480931A
:101E6000B0059093B105A093B205B093B3058093EC
:101E7000AC059093AD05A093AE05B093AF0582E09D
:101E80000E946A043324339490E3492E95E7592E37
:101E9000612C712C812C912C540183948CE594E05D
:101EA00010DA181619060CF0E0C26FE472E0CE01E9
:101EB00001968DD80E942F0797FD1EC08332910591
:101EC000D9F08AA31BA20D811E810F5F1F4FB8019D
:101ED000CE0101960E946007882361F329813A812F
:101EE0008D819E81BE016E5D7F4F820F931F0E9488
:101EF000451B1E830D83DECF8091410590914205E5
:101F00000097C9F069817A816115710591F040915E
:101F10004305509144052D813E814217530748F0F7
:101F20000E94451B8D819E819093460580934505B7
:101F300018C00E94CF1989819A819093420580939D
:101F400041058B819C8190934405809343058D814D
:101F50009E8190934605809345051A8219821C82C2
:101F60001B821E821D82CE0101962CD860E572E094
:101F7000CE0101962CD8CE0101960E941907182F88
:101F8000CE0101961FD8112309F481C065E572E0E6
:101F9000CE0101961CD861E475E0CE0101960E9445
:101FA000870774D8CE0101960DD86091B005709165
:101FB000B1058091B2059091B3051BA21AA21DA292
:101FC0001CA21FA21EA28E010F5F1F4F22E044E041
:101FD00097D2BC01CE0182960E94B8076CE772E0EE
:101FE000C8010E94E707BE016E5D7F4FC8010E94D5
:101FF00087074CD8C8010E94E207CE0182960E9452
:10200000E2076091AC057091AD058091AE059091AD
:10201000AF051BA21AA21DA21CA21FA21EA222E093
:1020200044E06ED2BC01CE0182960E94B80769E8F6
:1020300072E0C8010E94E707BE016E5D7F4FC801D4
:102040000E94870723D8C8010E94E207CE0182962A
:102050000E94E20787E992E008D88FEB92E005D86A
:1020600082EE92E002D888E093E00E94350886E490
:1020700093E00E94350888E993E00E94350887E8DC
:1020800092E00E94350882E194E00E94350868E2FF
:1020900074E0CE0101960E94E707CE0101960E94EE
:1020A0001907182FCE0101960E94E207112331F083
:1020B0000E94C8051092AB051092AA056BE274E06D
:1020C000CE0101960E94E707CE0101960E941907F2
:1020D000182FCE0101960E94E207112309F443C094
:1020E0000E94F0068091410590914205009711F001
:1020F00026D203C060E070E0CB016093B00570931E
:10210000B1058093B2059093B3056FE472E081E46A
:1021100095E00E94B8078092520590925305A092D4
:102120005405B09255058092560590925705A0929D
:102130005805B092590510927A0510927B051092BD
:102140007C0510927D0510926A0510926B05109225
:102150006C0510926D0510925A0510925B05109255
:102160005C0510925D056EE274E0CE0101960E945E
:10217000E707CE0101960E941907182FCE0101969C
:102180000E94E2071123C1F18091560590915705F5
:10219000A0915805B091590580339547A105B10527
:1021A00051F0409256055092570560925805709232
:1021B00059050E9425026091A6057091A70580919E
:1021C000A8059091A9050E945A056091A4057091F7
:1021D000A505072E000C880B990B7ED50E944105A2
:1021E0003092AB053092A3050E9446066FE472E080
:1021F00081E495E00E94B80761E374E0CE010196A6
:102200000E94E707CE0101960E941907182FCE0100
:1022100001960E94E2071123E1F180915605909109
:102220005705A0915805B0915905803D9A48AF4F88
:10223000BF4F71F080ED9AE8AFEFBFEF8093560586
:1022400090935705A0935805B09359050E94250215
:102250006091A6057091A7058091A8059091A905A8
:102260000E945A056091A4057091A505072E000CE7
:10227000880B990B31D50E9441053092AB05109225
:10228000A3050E9446066FE472E081E495E00E9497
:10229000B80764E374E0CE0101960E94E707CE011F
:1022A00001960E941907182FCE0101960E94E2079D
:1022B000112309F4DAC00E94F00680914105909143
:1022C0004205009721F03BD16B017C0103C0C12C7A
:1022D000D12C7601C092AC05D092AD05E092AE054E
:1022E000F092AF056FE472E081E495E00E94B807D8
:1022F0002091B0053091B1054091B2055091B305E0
:10230000C701B60137D67B018C0120E030E0A9017E
:102310002FD7181654F420E030E040EA51E4B7011A
:10232000C801D4D487FD0AC052C020E030E040EAA2
:1023300051ECB701C8011CD7181654F58091AA05B5
:10234000811126C067E374E08CE594E00E942008C8
:102350003092AA0520E030E040E05FE36091A605FE
:102360007091A7058091A8059091A90514D50E94A8
:102370005A056091A4057091A505660F771F072E79
:10238000000C880B990BA8D40E9441050E944606B8
:102390002091B0053091B1054091B2055091B3053F
:1023A0006091AC057091AD058091AE059091AF053F
:1023B000E1D5D62EC72E88A7292EE62EF72E082F78
:1023C000192F20E030E0A901D3D6181654F420E0EC
:1023D00030E040EA50E4B701C80178D487FF39C043
:1023E0000BC020E030E040EA50EC6D2D7C2D88A53C
:1023F000922DBED618166CF52091A3054091560576
:10240000509157056091580570915905809152057A
:1024100090915305A0915405B0915505222329F0C0
:102420008C599F4FAF4FBF4F04C084569109A109EB
:10243000B10984179507A607B707B9F08093560529
:1024400090935705A0935805B09359050E94250213
:102450000CC03092AB0567E474E08CE594E00E9418
:10246000200886E294E00E9435088091AB0588231D
:1024700009F43FC00E944606809156059091570589
:10248000A0915805B09159054091520550915305BE
:102490006091540570915505841B950BA60BB70BE5
:1024A000181619061A061B063CF0B095A0959095D3
:1024B00081959F4FAF4FBF4F0297A105B105CCF457
:1024C0001092AB051092AA056091A4057091A50524
:1024D000072E000C880B990BFFD30E9441056EE478
:1024E00074E08CE594E00E94200886E294E00E946B
:1024F00035080E946D09D2CC81E495E00C94E20786
:10250000EF920F931F93CF93DF93E80147FD02C033
:1025100034E001C034E1042E000C550B57FF03C01A
:10252000519541955109E32E022F242FAE0112D06F
:10253000CE01DF91CF911F910F91EF900895662703
:1025400077277EC19111A7C3803219F08950855039
:10255000D0F708958F929F92AF92BF92CF92DF9261
:10256000EF92FF920F931F93CF93DF93CDB7DEB718
:1025700029970FB6F894DEBF0FBECDBF6A01122FA8
:10258000B02E2BE3201720F0FF24F394F00E02C0AE
:102590002CE3F22E0F2D27E0AE014F5F5F4FA3D249
:1025A000BC014981842F8970813031F0E1FC06C083
:1025B000E0FE06C090E205C09DE203C09BE201C0C0
:1025C00090E05E2D507143FF3CC0911102C083E04A
:1025D00001C084E0811718F4212F281B01C020E0DE
:1025E00051110BC0F601822F30E2882319F031938C
:1025F0008150FBCFC20ED11C20E0992329F0D601D7
:102600009C93F60131966F01C6010396E2FE0AC063
:102610003EE4D6013C9341E411964C9311971296F7
:102620003C9306C03EE6F601308341E641833283A7
:10263000FC01322F40E2332309F442C04193315070
:10264000FACF42FF44C0911102C083E001C084E090
:10265000811718F4212F281B01C020E051110BC055
:10266000F601822F30E2882319F031938150FBCF9D
:10267000C20ED11C20E0992329F0D6019C93F601CB
:1026800031966F01C6010396E2FE0BC039E4D60114
:102690003C933EE411963C93119736E412963C939A
:1026A00007C039E6F60130833EE6318336E63283F1
:1026B000FC01322F40E2332319F041933150FBCF1C
:1026C000FC01E20FF11D10828EEF9FEFA6C021E00A
:1026D00030E0911102C020E030E0161617061CF41D
:1026E000FB01319602C0E1E0F0E02E0F3F1FBB205E
:1026F00021F0EB2DF0E0319602C0E0E0F0E02E0F8B
:102700003F1FE12FF0E02E173F071CF4121B212F73
:1027100001C020E08E2D887159F4F601822F30E23D
:10272000882319F031938150FBCFC20ED11C20E0D9
:10273000992329F0D6019C93F60131966F0151112E
:102740000BC0F601822F90E3882319F091938150FA
:10275000FBCFC20ED11C20E00F2D060F9A81342F23
:10276000307144FF03C0913309F40150101624F472
:10277000093018F008E001C001E0AB0177FF02C0AA
:1027800040E050E0FB01E41BF50BA1E0B0E0AC0F32
:10279000BD1FEA0FFB1F8EE2A82E4B01801A910885
:1027A0000B2D10E01195019511094F3FBFEF5B070D
:1027B00021F4D601AC9211966D01641775072CF0C7
:1027C0008416950614F4818101C080E341505109BB
:1027D0003196D60111967D014017510724F0D6019C
:1027E0008C936701E2CF6417750739F4963320F4B0
:1027F000953319F4311101C081E3F6018083F701AB
:10280000822F90E2882319F091938150FBCFF7013A
:10281000E20FF11D108280E090E029960FB6F89447
:10282000DEBF0FBECDBFDF91CF911F910F91FF9003
:10283000EF90DF90CF90BF90AF909F908F900895D2
:102840008F929F92AF92BF92CF92DF92EF92FF92C0
:102850000F931F93CF93DF93EC016B01611571050B
:1028600019F0FB01918380837E01FFEFEF1AFF0ACD
:102870000881802F90E066DE892B11F0E701F4CF0C
:102880000D3239F47E0182E0E80EF11C098111E07D
:1028900008C00B3229F47E0192E0E90EF11C098197
:1028A00010E0E701219743E050E060E371E0CE01E2
:1028B000F5D1892BB9F4239645E050E06BE271E045
:1028C000CE01ECD1892B09F42596C114D10419F05D
:1028D000F601D183C0831111F0C060E070E080E8A0
:1028E0009FE7F4C043E050E068E271E0CE01D6D14A
:1028F000892B59F4C114D10409F4E4C0F2E0EF0EBD
:10290000F11CF601F182E082DDC020E030E0A90197
:10291000C0E0D0E0F70160EDA62EA00E89E08A1598
:1029200028F1912F9260B92E812F887012FF04C078
:10293000811123C0219621C081112197A5E0B0E02B
:1029400000D3DC01CB01880F991FAA1FBB1F9C017C
:10295000AD012A0D311D411D511D283989E9380766
:10296000480789E1580748F0166006C09EEFA91293
:102970000AC013FD40C01860B12E8FEFE81AF80AA4
:1029800000811B2DC7CF802F8F7D8534A1F58081DD
:102990008D3211F4106106C08B3221F0319661E066
:1029A00070E004C08181329662E070E080538A302A
:1029B00018F0E61BF70B1FC060E070E060389CE089
:1029C00079075CF4DB01AA0FBB1FAA0FBB1F6A0FBC
:1029D0007B1F660F771F680F711D3196DF011197FE
:1029E0008C9180538A3050F314FF03C07195619528
:1029F0007109C60FD71F11FF08C0C114D10429F0F7
:102A0000CF010197F60191838083CA01B90162D198
:102A1000212F2370233019F04B015C0106C04B01BC
:102A20005C01B7FAB094B7F8B09420E030E0A901A7
:102A3000C501B4014BD1882309F43CC0D7FF06C0BF
:102A4000D195C195D10907E411E002C00FE511E06D
:102A50006801F8E1CF1AD10890E2E92EF12CCE15E9
:102A6000DF056CF0F8012591359145915491C50130
:102A7000B40191D14B015C01CE19DF09F0CF0450B4
:102A80001109F594E7940C151D0549F78A2D880F57
:102A90008B2D881F8F3F41F020E030E0A901C50158
:102AA000B40114D1811106C082E290E09093BA057E
:102AB0008093B905C501B40109C060E070E080E809
:102AC0009FEF04C060E070E080EC9FE7DF91CF9162
:102AD0001F910F91FF90EF90DF90CF90BF90AF903C
:102AE0009F908F900895283008F027E03327DA016F
:102AF000990F311D87FD916000966105710539F4CC
:102B000032602E5F3D9330E32A95E1F708959F3FB1
:102B100030F080387105610509F03C5F3C5F3D9302
:102B2000913008F08068911DDF93CF931F930F932E
:102B3000FF92EF92192F987F9695E92F969596958B
:102B4000E90FFF27E354FE4F99273327EE24FF2494
:102B5000A701E70105900894079428F4360FE71EB3
:102B6000F81E491F511D660F771F881F991F069475
:102B7000A1F70590079428F4E70EF81E491F561F89
:102B8000C11D770F881F991F661F0694A1F7059036
:102B9000079428F4F80E491F561FC71FD11D880F30
:102BA000991F661F771F0694A1F70590079420F4DC
:102BB000490F561FC71FD81F990F661F771F881F01
:102BC0000694A9F784911095177041F0D695C79592
:102BD00057954795F794E7941A95C1F7E3E6F1E026
:102BE00068941590159135916591959105907FE2C6
:102BF0007395E118F10A430B560BC90BD009C0F7C6
:102C0000E10CF11E431F561FC91FD01D7EF4703307
:102C100011F48A95E6CFE894015030F0080F0AF4D9
:102C20000027021708F4202F2395022F7A3328F06B
:102C300079E37D932A95E9F710C07D932A9589F66B
:102C4000069497956795379517951794E118F10AAB
:102C5000430B560BC90BD00998F023957E917395C1
:102C60007A3308F070E37C932013B8F77E9170619B
:102C70007D9330F0839571E37D9370E32A95E1F7BE
:102C80001124EF90FF900F911F91CF91DF91992721
:102C900087FD90950895992788270895FB01DC0109
:102CA0004150504088F08D9181341CF08B350CF4EC
:102CB000805E659161341CF06B350CF4605E861BA0
:102CC000611171F3990B0895881BFCCF40D008F473
:102CD00081E00895E89409C097FB3EF490958095B3
:102CE000709561957F4F8F4F9F4F9923A9F0F92FD2
:102CF00096E9BB279395F695879577956795B79550
:102D0000F111F8CFFAF4BB0F11F460FF1BC06F5F35
:102D10007F4F8F4F9F4F16C0882311F096E911C047
:102D2000772321F09EE8872F762F05C0662371F068
:102D300096E8862F70E060E02AF09A95660F771F7C
:102D4000881FDAF7880F9695879597F90895990F58
:102D50000008550FAA0BE0E8FEEF16161706E80765
:102D6000F907C0F012161306E407F50798F0621B86
:102D7000730B840B950B39F40A2661F0232B242B5B
:102D8000252B21F408950A2609F4A140A6958FEF7A
:102D9000811D811D08950BD078C069D028F06ED0B8
:102DA00018F0952309F05AC05FC01124A2C07ED04C
:102DB000A0F3959FD1F3950F50E0551F629FF0014E
:102DC000729FBB27F00DB11D639FAA27F00DB11DA7
:102DD000AA1F649F6627B00DA11D661F829F222730
:102DE000B00DA11D621F739FB00DA11D621F839FB7
:102DF000A00D611D221F749F3327A00D611D231F8D
:102E0000849F600D211D822F762F6A2F11249F57DA
:102E100050408AF0E1F088234AF0EE0FFF1FBB1FFD
:102E2000661F771F881F91505040A9F79E3F51059C
:102E300070F014C05EC05F3FECF3983EDCF3869503
:102E400077956795B795F795E7959F5FC1F7FE2B47
:102E5000880F911D9695879597F9089597F99F6723
:102E600080E870E060E008959FEF80EC0895002412
:102E70000A941616170618060906089500240A94DF
:102E800012161306140605060895092E0394000C65
:102E900011F4882352F0BB0F40F4BF2B11F460FFF4
:102EA00004C06F5F7F4F8F4F9F4F089557FD90581D
:102EB000440F551F59F05F3F71F04795880F97FBFE
:102EC000991F61F09F3F79F08795089512161306B8
:102ED0001406551FF2CF4695F1DF08C016161706E7
:102EE0001806991FF1CF869571056105089408951C
:102EF000E894BB2766277727CB0197F90895A1E2CD
:102F00001A2EAA1BBB1BFD010DC0AA1FBB1FEE1F63
:102F1000FF1FA217B307E407F50720F0A21BB30BAE
:102F2000E40BF50B661F771F881F991F1A9469F72A
:102F300060957095809590959B01AC01BD01CF0186
:102F4000089509D0A59F900DB49F900DA49F800D6A
:102F5000911D11240895A29FB001B39FC001A39FAA
:102F6000700D811D1124911DB29F700D811D1124C2
:102F7000911D08955058BB27AA270ED086CF77DF22
:102F800030F07CDF20F031F49F3F11F41EF46CCF61
:102F90000EF4E095E7FB62CFE92F88DF80F3BA17E4
:102FA000620773078407950718F071F49EF5A0CFA8
:102FB0000EF4E0950B2EBA2FA02D0B01B901900154
:102FC0000C01CA01A0011124FF27591B99F0593F98
:102FD00050F4503E68F11A16F040A22F232F342FE0
:102FE0004427585FF3CF469537952795A795F0402E
:102FF0005395C9F77EF41F16BA0B620B730B840B43
:10300000BAF09150A1F0FF0FBB1F661F771F881FFA
:10301000C2F70EC0BA0F621F731F841F48F4879552
:1030200077956795B795F7959E3F08F0B3CF939541
:10303000880F08F09927EE0F9795879508950CD083
:1030400024CF1CDF40F013DF30F021F45F3F19F094
:1030500005CF51114ECF08CF29DF98F39923C9F33B
:103060005523B1F3951B550BBB27AA27621773078E
:10307000840738F09F5F5F4F220F331F441FAA1F42
:10308000A9F333D00E2E3AF0E0E830D09150504002
:10309000E695001CCAF729D0FE2F27D0660F771FB0
:1030A000881FBB1F261737074807AB07B0E809F092
:1030B000BB0B802DBF01FF2793585F4F2AF09E3F27
:1030C000510568F0CBCE15CF5F3FECF3983EDCF3B3
:1030D000869577956795B795F7959F5FC9F7880FA0
:1030E000911D9695879597F90895E1E0660F771FF2
:1030F000881FBB1F621773078407BA0720F0621B83
:10310000730B840BBA0BEE1F88F7E095089504D07B
:103110006894B111EECE0895D1DE88F09F5790F0FB
:10312000B92F9927B751A0F0D1F0660F771F881FEC
:10313000991F1AF0BA95C9F712C0B13081F0D8DEE4
:10314000B1E00895D5CE672F782F8827B85F39F082
:10315000B93FCCF3869577956795B395D9F73EF44B
:1031600090958095709561957F4F8F4F9F4F0895F3
:10317000EEDD08F48FEF089511F40EF475CE3EC025
:103180009DDED0F39923D9F3CEF39F57550B87FFDC
:1031900043D00024A0E640EA9001805856959795C8
:1031A00028F4805C660F771F881F20F026173707EA
:1031B000480730F4621B730B840B202931294A2BFA
:1031C000A69517940794202531254A2758F7660FAE
:1031D000771F881F20F026173707480730F4620B47
:1031E000730B840B200D311D411DA09581F7B90192
:1031F000842F9158880F9695879508959F3F31F0B9
:10320000915020F4879577956795B795880F911D14
:103210009695879597F9089591505040660F771FBE
:10322000881FD2F70895052E97FB16F400940FD04F
:1032300057FD05D064DE07FC02D046F408C0509567
:103240004095309521953F4F4F4F5F4F0895909592
:103250008095709561957F4F8F4F9F4F0895EE0F2A
:10326000FF1F881F8BBF0790F691E02D19940F93D5
:103270001F93CF93DF938230910510F482E090E0AA
:10328000E091BD05F091BE0520E030E0A0E0B0E0A7
:10329000309719F1408151810281138148175907F4
:1032A000C8F08417950769F4109731F012960C93C3
:1032B000129713961C9327C00093BD051093BE056B
:1032C00022C02115310519F04217530718F49A014D
:1032D000BD01EF01DF01F801DBCF21153105F9F068
:1032E000281B390B2430310580F48A819B816115BC
:1032F000710521F0FB019383828304C09093BE0586
:103300008093BD05FE01329644C0FE01E20FF31F1B
:103310008193919322503109398328833AC02091B7
:10332000BB053091BC05232B41F420910202309162
:1033300003023093BC052093BB052091000230911D
:1033400001022115310541F42DB73EB74091040229
:1033500050910502241B350BE091BB05F091BC0593
:10336000E217F307A0F42E1B3F0B2817390778F05C
:10337000AC014E5F5F4F2417350748F04E0F5F1FBB
:103380005093BC054093BB058193919302C0E0E04C
:10339000F0E0CF01DF91CF911F910F910895CF936E
:1033A000DF93009709F481C0FC01329713821282E7
:1033B000A091BD05B091BE05109781F420813181A7
:1033C000820F931F2091BB053091BC052817390748
:1033D00051F5F093BC05E093BB0567C0ED0120E01B
:1033E00030E0CE17DF0740F44A815B819E01411532
:1033F0005105F1F0EA01F5CFD383C28340815181B9
:10340000840F951FC817D90759F488819981840FB3
:10341000951F0296918380838A819B819383828307
:103420002115310529F4F093BE05E093BD053DC09B
:10343000E901FB83EA8349915991C40FD51FEC1729
:10344000FD0761F480819181840F951F0296E90147
:1034500099838883828193819B838A83E0E0F0E073
:1034600012968D919C911397009719F0FD01DC0144
:10347000F7CF8D919C9111979D012E5F3F4F820F49
:10348000931F2091BB053091BC052817390769F4BB
:10349000309729F41092BE051092BD0502C0138228
:1034A0001282B093BC05A093BB05DF91CF91089524
:1034B0006F927F928F929F92AF92BF92CF92DF9244
:1034C000EF92FF920F931F93CF93DF93009781F4B6
:1034D000CB01DF91CF911F910F91FF90EF90DF9083
:1034E000CF90BF90AF909F908F907F906F90BFCE06
:1034F000FC01E60FF71F9C0122503109E217F30788
:1035000008F4A5C0EC01D9010D911C911197061783
:103510001707A8F00530110508F497C0C8010497F3
:103520008617970708F491C002501109061B170B64
:10353000019311936D937C93CF0131DF86C05B01C2
:10354000A01AB10A4C01800E911EA091BD05B09148
:10355000BE05612C712CE12CF12C109709F446C0AA
:103560008D919C911197A815B905B1F56C0142E0B8
:10357000C40ED11CCA14DB0478F14C018A189B08D4
:10358000640142E0C40ED11C1296BC9012971396AF
:10359000AC91B5E0CB16D10440F0B282A383918206
:1035A0008082D9016D937C9309C00E5F1F4F800FFD
:1035B000911FF90191838083EB2DFA2FE114F1041F
:1035C00031F0D7011396FC93EE9312973EC0F0931F
:1035D000BE05E093BD0539C06816790608F43C01C4
:1035E0007D0112960D90BC91A02DB7CF8091BB05A7
:1035F0009091BC0588169906E1F466167706C8F422
:103600008091000290910102009741F48DB79EB71E
:103610004091040250910502841B950BE817F907AD
:10362000B0F4F093BC05E093BB05F90171836083AE
:103630000CC0CB011CDE7C01009749F0A801BE0143
:103640001BD0CE01ACDEC70104C0CE0102C080E0B9
:1036500090E0DF91CF911F910F91FF90EF90DF905D
:10366000CF90BF90AF909F908F907F906F90089574
:1036700081E090E0F8942DC0FB01DC0102C00190D4
:103680000D9241505040D8F70895FB01DC010190A4
:103690000D920020E1F70895FB01DC0141505040FC
:1036A00030F08D910190801919F40020B9F7881B32
:1036B000990B0895FB01DC014150504048F0019006
:1036C0000D920020C9F701C01D9241505040E0F713
:1036D000089511E0C3EBD1E000E005C0802FFE01AA
:1036E000BEDD2196011DC43BD10780E00807B1F77C
:0436F000F894FFCF7C
:1036F4000000BF058000000000009508E7015B089A
:10370400E10861096A087E0800000000270CFF0B2D
:10371400420C040BEE0AAC0A8B0A570A360AE0097B
:10372400A80900000000470DE701A509E601564D70
:103734004450565F317C315F564D4450560D0A005B
:103744005445535400436F6D6D756E6963617469BC
:103754006F6E732065737461626C69736865642C41
:103764002072656365697665642020005461726720
:10377400657420417A2020200043757272656E744E
:1037840020417A2020200020736F206120676F6F12
:10379400642073657175656E636520776F756C64FD
:1037A40020626520617320666F6C6C6F77730031E3
:1037B40020534132323023202020736C65772074EB
:1037C4006F20617A696D75746820726571756573AF
:1037D40074003220434C23202020202020636C6F6F
:1037E400636B77697365206D6F76656D656E7420A4
:1037F40072657175657374003320534C313830230E
:1038040020202073696D756C617465732074652064
:10381400636F6D7061737320726F7574696E652068
:1038240070726F766964696E672031383020646520
:103834006772656573003420534C32303023202086
:10384400207465737473207468652077697468697B
:103854006E20323020646567726565732062697416
:103864002077686963682073686F756C642072657B
:103874006475636520737065656420746F206F6E72
:1038840065207468697264003520534C31313823E3
:1038940020202073686F756C642073746F702077B8
:1038A40068656E207468697320697320656E746539
:1038B4007265642062656361757365207765206154
:1038C40072652077697468696E2074686520636F17
:1038D4006465642035206465677265652077696E68
:1038E400646F7720776869636820646566696E65CC
:1038F40073207461726765742072656163686564BE
:103904002E00656D657267656E63792073746F70E0
:103914002069732045532300455300534100434C11
:1039240000434300534C0077697468696E20323059
:10393400206465672020004D6F76696E67004E6FC6
:08394400746D6F76696E670077
:00000001FF
