:10000000B3C10000E2C10000E0C10000DEC1000099
:10001000DCC10000DAC10000D8C10000D6C1000078
:10002000D4C10000D2C10000D0C10000CEC1000088
:10003000CCC10000CAC10000C8C10000C6C1000098
:10004000C4C10000C2C10000C0C10000BEC10000A8
:10005000BCC10000BAC10000B8C100000C94310D51
:10006000B4C100000C94B90B0C94900BAEC100000D
:10007000ACC10000AAC10000A8C10000A6C10000D8
:10008000A4C10000A2C10000A0C100009EC10000E8
:100090009CC100009AC1000098C1000096C10000F8
:1000A00094C1000092C1000090C100008EC1000008
:1000B0008CC100008AC1000088C1000086C1000018
:1000C00084C1000082C1000080C100007EC1000028
:1000D0007CC100007AC1000078C1000076C1000038
:1000E00074C100000F0A130A170A1B0A1F0A230A09
:1000F000270A590B600B670B6E0B750B8D0B7C0B76
:100100008D0B830B1E0C210C100C140C180C580CAE
:10011000250C290C2F0C330C370C3D0C410C450CD5
:10012000580C4B0C4F0C530C4E414E494E495459F0
:10013000494E46CDCCCC3D0AD7233C17B7D13877B2
:10014000CC2B329595E6241FB14F0A0000204100C8
:1001500000C84200401C4620BCBE4CCA1B0E5AAE12
:10016000C59D7400407A10F35A00A0724E18090021
:1001700010A5D4E80000E87648170000E40B54020C
:100180000000CA9A3B000000E1F505000080969847
:1001900000000040420F000000A086010000001097
:1001A0002700000000E803000000006400000000D9
:1001B000000A00000000000100000000002C76D8BA
:1001C00088DC674F0823DFC1DFAE59E1B1B796E5A0
:1001D000E3E453C63AE651997696E8E6C28426EB04
:1001E000898C9B62ED407C6FFCEFBC9C9F40F2BA17
:1001F000A56FA5F490055A2AF75C936B6CF9676DAF
:10020000C11BFCE0E40D47FEF520E6B500D0ED9003
:100210002E0300943577050080841E080000204ED0
:100220000A000000C80C333333330F986E12831169
:1002300041EF8D2114893BE65516CFFEE6DB18D140
:10024000844B381BF77C1D901DA4BBE42420328412
:10025000725E228100C9F124ECA1E53D2700002255
:1002600000250028002B002E003100340002010080
:1002700000050108010B0100002100240027002ACD
:10028000002D003000330001010000040107010AC5
:100290000105050505070508080808020202020A0B
:1002A0000A08080404040401010101010101010319
:1002B00003030303030303040707070C0C0C0C0CD4
:1002C0000C0C0C0202020206060606060606060BC7
:1002D0000B0B0B0B0B0B0B0102102020080810203E
:1002E00040102040800201020108040201010204C2
:1002F0000810204080804020100804020180040281
:1003000001804020100804020108040201010204D7
:100310000810204080010204081020408000000ADC
:100320000B02090C0D0E0807030401000000000079
:1003300000000000000000000000000000000000BD
:10034000000000000000000000121110000000007A
:10035000000000000000000000000000000000009D
:10036000000000009114511511241FBECFEFD1E2FF
:10037000DEBFCDBF00E00CBF26E0A4EEB4E001C0BC
:100380001D92AC34B207E1F714E0A0E0B2E0E6EA77
:10039000FCE300E00BBF02C007900D92A43EB10742
:1003A000D9F711E0C3EBD1E000E006C021970109C5
:1003B000802FFE010E94081CC23BD10780E0080785
:1003C000A9F70E940D0E0C94421E1ACE0895CF92EA
:1003D000DF92EF92FF920F931F93CF93DF936C0105
:1003E0007A018B01C0E0D0E0CE15DF0581F0D801A5
:1003F0006D918D01D601ED91FC910190F081E02D80
:10040000C6011995892B11F02196EECF7E01C70107
:10041000DF91CF911F910F91FF90EF90DF90CF90E0
:1004200008950E94111ECF93DF93EC01888199817A
:10043000009711F00E94A81C198218821D821C824C
:100440001B821A82DF91CF9108954F925F926F9233
:100450007F928F929F92AF92BF92CF92DF92EF9254
:10046000FF920F931F93CF93DF93C090F105D0902D
:10047000F205E090F305F090F4058091ED05909180
:10048000EE05A091EF05B091F005C81AD90AEA0A65
:10049000FB0A6091F5057091F6058091F705909142
:1004A000F8059B01AC010E94A0194B015C01609111
:1004B000FD057091FE058091FF05909100069B015E
:1004C000AC010E94901A9B01AC01C501B4010E94CD
:1004D000F41A0E945C1BC114D104E104F104F9F484
:1004E00062307105810591050CF092C010920506ED
:1004F0001092060610920706109208061092F50553
:100500001092F6051092F7051092F8051092150654
:100510001092160610921706109218062AC1009122
:1005200015061091160620911706309118061C1416
:100530001D041E041F040CF51016110612061306E6
:1005400054F46C157D058E059F0564F52091E30537
:1005500021115EC027C0011511052105310509F4DF
:1005600057C06C157D058E059F050CF051C080911C
:10057000E305882309F44CC03CC01016110612068E
:10058000130614F50027112798010C191D092E09CF
:100590003F09601771078207930724F42091E30550
:1005A0002223B1F19B01AC0188279927DC01821B32
:1005B000930BA40BB50B8093150690931606A0938E
:1005C0001706B093180624C0011511052105310541
:1005D000F9F08824992454018C189D08AE08BF08AE
:1005E000681579058A059B059CF48091E3058111C6
:1005F0000FC030952095109501951F4F2F4F3F4FFD
:1006000000931506109316062093170630931806CC
:100610008090150690901606A0901706B0901806C8
:1006200081149104A104B104D1F480911906909130
:100630001A06A0911B06B0911C0680931D0690938C
:100640001E06A0931F06B093200681E01C141D0413
:100650001E041F040CF080E08093E3054AC0C090A4
:100660001D06D0901E06E0901F06F0902006A70100
:100670009601C701B6010E94901A2B013C01C501E9
:10068000B4010E94411920E030E040E850E40E94AB
:10069000A01920E030E040E85FE30E94901A9B013F
:1006A000AC01C301B2010E94F41A9B01AC01C70165
:1006B000B6010E948F1AD62FC72F6C01E090210639
:1006C000F090220600912306109124069701A801BC
:1006D0000E948D1B18161CF4ED2EFC2E8601C701FE
:1006E000D80180931D0690931E06A0931F06B09319
:1006F00020063FEF831A930AA30AB30A80921506D5
:1007000090921606A0921706B0921806C0901D0689
:10071000D0901E06E0901F06F0902006C701B6019B
:100720000E94611B6093050670930606809307067E
:1007300090930806A701960160E074E284E799E4CB
:100740000E94F41A6093F5057093F6058093F705FF
:100750009093F8052091E30521110BC0DC01CB013A
:10076000B0588093F5059093F605A093F705B093E4
:10077000F805DF91CF911F910F91FF90EF90DF90DF
:10078000CF90BF90AF909F908F907F906F905F9031
:100790004F9008954F925F926F927F928F929F92A7
:1007A000AF92BF92CF92DF92EF92FF926B017C01EA
:1007B00020E030E0A9010E943B1987FF04C0F7FA4E
:1007C000F094F7F8F0948090FD059090FE05A090CD
:1007D000FF05B0900006A7019601C501B4010E9473
:1007E0003B19882309F455C06091150670911606CF
:1007F00080911706909118060E9441192B013C0127
:10080000A7019601C501B4010E94F41A9B01AC0135
:10081000C301B2010E94A0190E945C1B60931506DF
:10082000709316068093170690931806A7019601F9
:1008300060E070E080E090E40E94F41A0E94951B52
:1008400026E53EE04DE25FE30E94A01920E034E29D
:1008500044E759E40E94A0196093190670931A06A0
:1008600080931B0690931C06C092FD05D092FE0556
:10087000E092FF05F0920006FF90EF90DF90CF909E
:10088000BF90AF909F908F907F906F905F904F90B0
:10089000DCCDFF90EF90DF90CF90BF90AF909F9016
:1008A0008F907F906F905F904F90089590E0FC0143
:1008B000E952FD4F2491FC01EF56FD4F84918823AE
:1008C00099F090E0880F991FFC01E958FD4FA59120
:1008D000B491FC01E35AFD4F859194918FB7F89440
:1008E000EC91E22BEC938FBF089540E0682F85E2F6
:1008F00096E00C94A60DCF93DF93623028F0909190
:100900003406986090933406609338061092390646
:1009100090E490933A0680933B0690E0805C9F4F72
:1009200080933C0680912906C1DF80912A068F3F83
:1009300009F0BCDF80912B06B9DFC5E2D6E09E014D
:10094000255236408091340684FD03C084E090E057
:1009500002C088E090E02196281739071CF48E81A8
:10096000A5DFEDCF8BE39DE00197F1F760E080918B
:10097000290635D760E080912B0631D780912A0671
:100980008F3F11F060E02BD78091340684FD20C0AA
:1009900063E085E296E00E947B0DCBE4D6E4CE01D5
:1009A0000197F1F763E085E296E00E947B0D2197C5
:1009B000F1F763E085E296E00E947B0D83E592E02B
:1009C0000197F1F762E085E296E00E947B0D12C08C
:1009D00080628BDF8BE496E40197F1F78091340617
:1009E000806283DF83E592E00197F1F7809134061E
:1009F00080627BDF80913406806277DF84E08093C1
:100A000035068CE072DF81E070DF8BE39FE10197B8
:100A1000F1F782E08093360686E0DF91CF9165CFD3
:100A2000CF92DF92EF92FF926B017C0120E030E0E9
:100A3000A9010E943B19882339F0C701B601FF9034
:100A4000EF90DF90CF90A6CEFF90EF90DF90CF9009
:100A50000895643008F063E090913806691710F04B
:100A60006FEF690FE62FF0E0EB5DF94F9489890F86
:100A700080683BCFE6EFF4E0A089B18982E08C93F7
:100A8000A485B5851C92A685B7858FEC8C93108EB6
:100A9000A489B58986E08C93A289B3898C91806101
:100AA0008C93A289B3898C9188608C93A289B38935
:100AB0008C9180688C930288F389E02D80818F7DF2
:100AC00080830895CF92DF92EF92FF926B017C01B9
:100AD00020E030E0A9010E943B1987FF04C0F7FA2B
:100AE000F094F7F8F094A70196016091F9057091E0
:100AF000FA058091FB059091FC050E943B19882323
:100B000009F454C0C092F905D092FA05E092FB05B1
:100B1000F092FC05A701960160E074E284E799E495
:100B20000E94F41A60932106709322068093230694
:100B3000909324068091150690911606A0911706B1
:100B4000B0911806181619061A061B067CF5609156
:100B5000F5057091F6058091F7059091F8059B01D8
:100B6000AC010E94A0196B017C016091FD057091A0
:100B7000FE058091FF05909100069B01AC010E944B
:100B8000901A9B01AC01C701B6010E94F41A0E94A1
:100B90005C1B60931506709316068093170690935E
:100BA0001806FF90EF90DF90CF904FCCFF90EF9022
:100BB000DF90CF9008958F929F92AF92BF92CF9285
:100BC000DF92EF92FF928090F5059090F605A0904D
:100BD000F705B090F80520E030E0A901C501B401A7
:100BE0000E943B19882309F45BC0A5019401C5014B
:100BF000B4010E94A0196B017C016091FD05709108
:100C0000FE058091FF05909100069B01AC010E94BA
:100C1000901A9B01AC01C701B6010E94F41A0E9410
:100C20005C1B6B017C012FEFC21AD20AE20AF20AA6
:100C300020E030E0A901C501B4010E948D1B409164
:100C4000ED055091EE056091EF057091F0058090F3
:100C5000F1059090F205A090F305B090F4051816F8
:100C60002CF44C0D5D1D6E1D7F1D04C04C195D09DB
:100C70006E097F0984169506A606B70689F040938B
:100C8000F1055093F2056093F3057093F405FF901E
:100C9000EF90DF90CF90BF90AF909F908F90D5CB8B
:100CA000FF90EF90DF90CF90BF90AF909F908F908C
:100CB00008958F929F92AF92BF92CF92DF92EF9260
:100CC000FF926B017C01C1D64B015C01C60ED71EA1
:100CD000E81EF91EBAD6681579058A059B0528F025
:100CE000C616D706E806F906A8F7FF90EF90DF9042
:100CF000CF90BF90AF909F908F900895CF92DF924A
:100D0000EF92FF928091050690910606A09107064A
:100D1000B0910806892B8A2B8B2B09F44DC070D615
:100D20006B017C018091090690910A06A0910B0647
:100D3000B0910C06B701A601481B590B6A0B7B0B3F
:100D40008091050690910606A0910706B0910806CD
:100D5000481759076A077B0778F12091E3058091CE
:100D6000ED059091EE05A091EF05B091F0052223DD
:100D700021F00196A11DB11D03C00197A109B10980
:100D80008093ED059093EE05A093EF05B093F005E9
:100D90004091ED055091EE056091EF057091F005E1
:100DA00081EE95E075D4C0920906D0920A06E092D1
:100DB0000B06F0920C0649DB20E030E0A9016091BF
:100DC000F5057091F6058091F7059091F8050E9460
:100DD0003B19811118C081E0C090F105D090F20557
:100DE000E090F305F090F4054091ED055091EE058B
:100DF0006091EF057091F005C416D506E606F7067A
:100E000019F480E001C081E0FF90EF90DF90CF9077
:100E100008958F929F92AF92BF92EF92FF920F939D
:100E20001F93CF93DF93CDB7DEB7A1970FB6F8949A
:100E3000DEBF0FBECDBF7C01FA01CB0119A222306B
:100E400008F42AE08E010F5D1F4F822E912CA12CF9
:100E5000B12CBF01A50194010E94541AF901CA01E5
:100E6000015011096A3014F4605D01C0695CD80159
:100E70006C93232B242B252B61F7B801C701B8D61F
:100E8000A1960FB6F894DEBF0FBECDBFDF91CF9114
:100E90001F910F91FF90EF90BF90AF909F908F9018
:100EA0000895DC01ED91FC910190F081E02D199401
:100EB0004091DF055091E0054115510509F142309F
:100EC000510518F461E070E002C062E070E08091CA
:100ED000DB059091DC05461B570B5093E0054093D2
:100EE000DF05680F791F0E94331EE091DB05F0914A
:100EF000DC058091DF059091E005E80FF91F108275
:100F00000895FC018091DB059091DC05009761F06C
:100F1000608171816115710539F0448155810E94AC
:100F2000251E21E0892B09F020E0822F0895CF9320
:100F3000DF93FC01448155816081718186EF94E0EB
:100F400046DAEC016DE472E086EF94E051D68C0F46
:100F50009D1FDF91CF9108958F929F92AF92BF9284
:100F6000CF92DF92EF92FF924BD54B015C0188EE5E
:100F7000C82E83E0D82EE12CF12C42D5DC01CB0128
:100F800088199909AA09BB09883E9340A105B105B2
:100F9000A0F321E0C21AD108E108F10888EE880E1A
:100FA00083E0981EA11CB11CC114D104E104F1041A
:100FB00021F7FF90EF90DF90CF90BF90AF909F9080
:100FC0008F9008950F931F9340D56093FE04709304
:100FD000FF04809300059093010586EF94E005D10E
:100FE00097FF1EC032D50091FE041091FF0420919E
:100FF000000530910105DC01CB01801B910BA20B98
:10100000B30B0091FA041091FB042091FC04309181
:10101000FD0480179107A207B307F8F28FEF9FEF47
:101020001F910F9108950F931F93CF93DF93EC01BE
:1010300088819981009729F02A813B8126173707FB
:1010400088F48B016F5F7F4F0E94311D009761F024
:10105000998388831B830A832C813D81232B11F480
:10106000FC01108281E001C080E0DF91CF911F91EF
:101070000F910895EF92FF920F931F93CF93DF93F9
:10108000EC01FB0104811581E080F180E114F104A1
:10109000C1F001151105B9F08C819D81080F191F50
:1010A000B801CE01C0DF882361F0288139818C81AD
:1010B0009D81B701820F931F0E941E1E1D830C830A
:1010C00002C0CE01B0D9CE01DF91CF911F910F9117
:1010D000FF90EF900895EF92FF920F931F93CF939D
:1010E000DF938C017B016115710561F0FB010190BB
:1010F0000020E9F73197EF01C61BD70BBE0193DF44
:10110000811103C0C8018FD908C0F801D583C483F9
:10111000B701808191810E941E1EC801DF91CF918D
:101120001F910F91FF90EF900895FC0180819181B4
:101130000C94A81CEF92FF920F931F93CF93DF9311
:10114000EC01198218821B821A821D821C82611591
:10115000710511F18B01FB0101900020E9F7319736
:101160007F01E61AF70AB7015EDF811108C0CE01E0
:10117000DF91CF911F910F91FF90EF9054C9FD82A5
:10118000EC82B80188819981DF91CF911F910F91F5
:10119000FF90EF900C941E1EDF91CF911F910F9145
:1011A000FF90EF9008950F931F93CF93DF93EC017F
:1011B0001FD58C016DE472E0CE011AD5800F911F0E
:1011C000DF91CF911F910F91089512C5FC01538DAE
:1011D000448D252F30E0842F90E0821B930B541711
:1011E00010F0CF96089501970895FC01918D828D9E
:1011F000981761F0828DDF01A80FB11D5D968C916B
:10120000928D9F5F9F73928F90E008958FEF9FEF75
:101210000895FC01918D828D981731F0828DE80F31
:10122000F11D858D90E008958FEF9FEF0895FC01EB
:10123000918D228D892F90E0805C9F4F821B9109B8
:101240008F739927089586EF94E0F1DF21E0892BD1
:1012500009F420E0822F0895FC01848DDF01A80F9E
:10126000B11DA35ABF4F2C91848D90E001968F73CE
:101270009927848FA689B7892C93A089B1898C91ED
:10128000837080648C93938D848D981306C002883C
:10129000F389E02D80818F7D80830895EF92FF9206
:1012A0000F931F93CF93DF93EC0181E0888F9B8D89
:1012B0008C8D981305C0E889F989808185FD25C04A
:1012C000F62E0B8D10E00F5F1F4F0F731127E02ECE
:1012D0008C8DE8120BC00FB607FCFACFE889F989AC
:1012E000808185FFF5CFCE01B7DFF2CF8B8DFE0178
:1012F000E80FF11DE35AFF4FF0829FB7F8940B8F70
:10130000EA89FB89808180620AC09FB7F894EE89E0
:10131000FF896083E889F989808183708064808394
:101320009FBF81E090E0DF91CF911F910F91FF90DF
:10133000EF900895CF93DF93EC01888D8823C1F05F
:10134000EA89FB89808185FD05C0A889B9898C91CE
:1013500086FD0EC00FB607FCF5CF808185FFF2CF6A
:10136000A889B9898C9185FFEDCFCE0175DFE8CFD3
:10137000DF91CF91089580E090E0892B19F063DF31
:10138000811125C080E090E0892B41F080E090E061
:10139000892B21F00E94000081111CC080E090E0A8
:1013A000892B41F080E090E0892B21F00E94000021
:1013B000811113C080E090E0892BA1F080E090E0E3
:1013C000892B81F00E94000081110AC008950E94BB
:1013D0000000D8CF0E940000E1CF0E940000EACFB9
:1013E0000C940000089580E090E00895CF93DF937F
:1013F000DC014770552766277727FA013197CD9191
:10140000DC911197E730F10530F48827EE58FF4F53
:101410008F4F0C94081CEC81FD8161E01BC0EC81B6
:10142000FD8165E017C0EC81FD8164E013C0EC81B3
:10143000FD8166E00FC0EC81FD8162E00BC0EC81B4
:10144000FD816AE007C0EC81FD8168E003C0EC81AA
:10145000FD8169E0CD01DF91CF911994CF93DF93A6
:10146000EC01CB01BA0126E030E040E050E00E9400
:10147000EC1B623071058105910559F18CF4611501
:10148000710581059105F1F06130710581059105C6
:10149000C1F5E881F9810480F581E02D65E02DC07A
:1014A000643071058105910511F1D4F06530710545
:1014B0008105910531F5E881F9810480F581E02D00
:1014C00066E01BC0E881F9810480F581E02D64E0CD
:1014D00014C0E881F9810480F581E02D61E00DC040
:1014E000E881F9810480F581E02D63E006C0E881A0
:1014F000F9810480F581E02D62E0CE01DF91CF918A
:101500001994DF91CF910895437055276627772767
:10151000DC01ED91FC910480F581E02D4230510514
:101520006105710571F0433051056105710559F090
:10153000413051056105710511F065E005C066E0B7
:1015400003C06AE001C069E01994CF93DF93EC0116
:10155000CB01BA0123E030E040E050E00E94EC1BF8
:10156000613071058105910581F062307105810559
:10157000910591F0672B682B692BC1F4E881F98103
:101580000480F581E02D64E00DC0E881F9810480DC
:10159000F581E02D61E006C0E881F9810480F581E4
:1015A000E02D62E0CE01DF91CF911994DF91CF91D0
:1015B00008954370552766277727DC01ED91FC914C
:1015C0000480F581E02D423051056105710571F00F
:1015D000433051056105710559F0413051056105F0
:1015E000710511F062E005C063E003C061E001C075
:1015F00060E01994CF93DF93EC01E881F9810480D6
:10160000F581E02D8A81811102C060E001C062E0B5
:10161000CE011995E881F9810480F581E02D8A8158
:10162000811102C061E001C063E0CE0119958CA573
:101630009DA58230910538F0880F991F880F991F5A
:1016400005970197F1F7E881F9810480F581E02D94
:101650008A81811102C060E001C062E0CE01DF91A9
:10166000CF911994CF93DF93EC0120E030E0A901F2
:101670006C897D898E899F890E948D1B18161CF4A8
:10168000E8A9F9A902C0EAA9FBA9DF91CF911994B1
:101690000F931F93DC0113960C91139710E0093000
:1016A0001105D8F5F8018827E758FF4F8F4F0C94A4
:1016B000081CED91FC9111970084F185E02D29C063
:1016C000ED91FC9111970284F385E02D22C0ED91FC
:1016D000FC9111970484F585E02D1BC0ED91FC91E0
:1016E00011970684F785E02D14C0ED91FC911197B8
:1016F0000088F189E02D0DC0ED91FC9111970288D1
:10170000F389E02D06C0ED91FC9111970488F589CD
:10171000E02DCD011F910F9119941F910F91089504
:101720001F920F920FB60F9211240BB60F922F93A8
:101730003F934F935F936F937F938F939F93AF9359
:10174000BF93EF93FF9386EF94E086DDFF91EF91D7
:10175000BF91AF919F918F917F916F915F914F91C9
:101760003F912F910F900BBE0F900FBE0F901F90C7
:1017700018951F920F920FB60F9211240BB60F926D
:101780002F938F939F93EF93FF93E0910605F09132
:1017900007058081E0910C05F0910D0582FD12C0D6
:1017A000908180910F058F5F8F73209110058217B4
:1017B00051F0E0910F05F0E0EA50FB4F958F8093D8
:1017C0000F0501C08081FF91EF919F918F912F9123
:1017D0000F900BBE0F900FBE0F901F901895362FD5
:1017E00090E0FC01E35EFC4F4491FC01E952FD4FA7
:1017F0002491FC01EF56FD4F9491992309F46CC09C
:10180000442309F455C050E0FA013197E231F10563
:1018100008F04EC08827EE57FF4F8F4F0C94081CDE
:10182000809180008F7707C0809180008F7D03C0FA
:1018300080918000877F809380003AC084B58F7745
:1018400002C084B58F7D84BD33C08091B0008F7796
:1018500003C08091B0008F7D8093B00029C080913B
:1018600090008F7707C0809190008F7D03C080919A
:101870009000877F809390001BC08091A0008F779D
:1018800007C08091A0008F7D03C08091A000877F5A
:101890008093A0000DC0809120018F7707C08091B8
:1018A00020018F7D03C080912001877F80932001DC
:1018B000E92FF0E0EE0FFF1FE35AFD4FA591B49121
:1018C0009FB7F894311104C08C912095282302C051
:1018D000EC912E2B2C939FBF0895CF93DF93EC01B7
:1018E00060E08E817CDF61E08E8179DF60E08E8157
:1018F00076DF8BE891E00197F1F7DF91CF910895C2
:10190000CF93DF93FC012381222321F1EC01848119
:101910000E9456048D810E9456048B81843011F000
:10192000883029F48E810E9456048F8105C083304F
:1019300011F0863019F48E810E9456048FA58F3FD6
:1019400049F00E9456046EA581E068278FA5DF91BB
:10195000CF9145CFDF91CF910895CF93DF93FC01D5
:101960002381222399F0EC010190F081E02D048085
:10197000F581E02D60E019958FA58F3F39F00E9429
:1019800056046EA58FA5DF91CF9129CFDF91CF911E
:101990000895CF92DF92EF92FF920F931F93CF9310
:1019A000DF93EC019B81943041F0983031F093301B
:1019B00031F0963021F012E003C014E001C013E0D2
:1019C0002496E12CF12CC62ED12C01E0C6010E2C60
:1019D00002C0959587950A94E2F76C8180FD602797
:1019E0008991FDDE8FEFE81AF80AE11678F3DF91AE
:1019F000CF911F910F91FF90EF90DF90CF900895BE
:101A00003FB7F8948091420690914306A091440616
:101A1000B091450626B5A89B05C02F3F19F0019649
:101A2000A11DB11D3FBFBA2FA92F982F8827820F64
:101A3000911DA11DB11DBC01CD0142E0660F771FB4
:101A4000881F991F4A95D1F708952FB7F894609190
:101A50003E0670913F0680914006909141062FBF4F
:101A600008951F920F920FB60F9211242F933F9358
:101A70008F939F93AF93BF9380913E0690913F06C3
:101A8000A0914006B091410630913D0623E0230F1E
:101A90002D3720F40196A11DB11D05C026E8230FA6
:101AA0000296A11DB11D20933D0680933E069093A2
:101AB0003F06A0934006B093410680914206909164
:101AC0004306A0914406B09145060196A11DB11DA3
:101AD0008093420690934306A0934406B093450634
:101AE000BF91AF919F918F913F912F910F900FBE1A
:101AF0000F901F901895CF92DF92EF92FF920F9365
:101B00001F93CF93DF936C017C0187E0E80EF11CFB
:101B1000C0E0D0E0062F10E0B8010C2E02C0759591
:101B200067950A94E2F76170F70181917F0157DEB2
:101B30002196C430D10581F7C601DF91CF911F9165
:101B40000F91FF90EF90DF90CF90C7CECF92DF92B2
:101B5000EF92FF920F931F93CF93DF93EC01F62E3A
:101B6000642F8C813CDE8D818F3F11F060E037DE89
:101B70008F850F2D10E084FF23C06E0187E0C80E13
:101B8000D11CE12CF12CB8010E2C02C07595679583
:101B90000A94E2F76170F60181916F0120DEFFEF98
:101BA000EF1AFF0A88E0E816F10469F7CE01DF9129
:101BB000CF911F910F91FF90EF90DF90CF908DCE3E
:101BC000B80184E0759567958A95E1F7CE0193DFBA
:101BD0006F2DCE01DF91CF911F910F91FF90EF906C
:101BE000DF90CF9088CF41E0B1DF81E090E00895B1
:101BF0006115710579F0FB0101900020E9F731973B
:101C0000AF01461B570BDC01ED91FC910280F38183
:101C1000E02D199480E090E00895CF93DF93CDB745
:101C2000DEB7A7970FB6F894DEBF0FBECDBF78948E
:101C300084B5826084BD84B5816084BD85B58260D1
:101C400085BD85B5816085BD80916E008160809382
:101C50006E001092810080918100826080938100EB
:101C600080918100816080938100809180008160FB
:101C7000809380008091B10084608093B100809156
:101C8000B00081608093B000809191008260809369
:101C900091008091910081608093910080919000EB
:101CA0008160809390008091A10082608093A10068
:101CB0008091A10081608093A1008091A00081604B
:101CC0008093A00080912101826080932101809106
:101CD00021018160809321018091200181608093A6
:101CE000200180917A00846080937A0080917A004C
:101CF000826080937A0080917A00816080937A007C
:101D000080917A00806880937A001092C1001092CE
:101D1000D7051092D8051092D9051092DA051092C5
:101D2000950510929605109297051092980568EB0C
:101D30007BE080E090E00E94590686EF94E090936B
:101D4000D6058093D5050E943A057FDE6093950500
:101D50007093960580939705909398056EE372E0D3
:101D60008091D5059091D60530DA6AE070E080E088
:101D700090E00E9459060E943A050E94DB051092ED
:101D8000EC041092ED0480E090E0A0EFB1E48093C9
:101D9000E8049093E904A093EA04B093EB0481E093
:101DA00090E09093E7048093E60460E070E080EFB9
:101DB00091E40E94620560E070E080E89FE30E9489
:101DC000100581E090E0A0E0B0E08093ED059093F5
:101DD000EE05A093EF05B093F0058093F105909385
:101DE000F205A093F305B093F40510921506109236
:101DF00016061092170610921806109205061092F9
:101E0000060610920706109208061092F505109229
:101E1000F6051092F7051092F80580E090E0A4E531
:101E2000B3E48093F2049093F304A093F404B0938A
:101E3000F5048093EE049093EF04A093F004B09324
:101E4000F10464E084E10E947B041092E404812C9C
:101E5000912C540183942BE3222E2FE1322E86EF16
:101E600094E0E5D9181619060CF04AC56FE472E043
:101E7000CE0101965FD9A6D897FD1DC0833291058A
:101E8000D1F08AA31BA20D811E810F5F1F4FB801E5
:101E9000CE010196C8D8882371F329813A818D81BA
:101EA0009E81BE016E5D7F4F820F931F0E941E1E9A
:101EB0001E830D83E0CF8091DB059091DC050097B8
:101EC00089F069817A816115710551F04091DD05D4
:101ED0005091DE052D813E814217530708F018C549
:101EE0000E94A81C89819A819093DC058093DB0570
:101EF0008B819C819093DE058093DD058D819E8191
:101F00009093E0058093DF051A8219821C821B8260
:101F10001E821D82CE01019608D960E572E0CE01D5
:101F2000019608D96BED75E0CE010196A3D80E9409
:101F30009707CE010196F9D86EE572E0CE010196C1
:101F4000F9D8CE0101960E948107182FCE01019683
:101F5000ECD8112309F49CC060E080E00E942905C0
:101F600063E672E085E296E030D90E94AC0781E03A
:101F70000E947504C1010197F1F70E94AC0761E767
:101F800072E085E296E021D96CE772E0CE0101961D
:101F9000D1D86BED75E0CE0101966CD80E94970701
:101FA000CE010196C2D86091F2047091F304809141
:101FB000F4049091F5041BA21AA21DA21CA21FA258
:101FC0001EA28E010F5F1F4F22E044E06ED5BC01C0
:101FD000CE01829680D863EA72E0C801ABD8BE0118
:101FE0006E5D7F4FC80146D80E949707C8019DD8F3
:101FF000CE0182969AD86091EE047091EF048091A0
:10200000F0049091F1041BA21AA21DA21CA21FA20F
:102010001EA222E044E049D5BC01CE0182965BD8E5
:1020200060EB72E0C80186D8BE016E5D7F4FC801CB
:1020300021D80E949707C80178D8CE01829675D81A
:102040006EEB72E086EF94E0AED866EE72E086EF5B
:1020500094E0A9D869E073E086EF94E0A4D86FE239
:1020600073E086EF94E09FD86EE673E086EF94E02D
:102070009AD860EC73E086EF94E095D860ED74E058
:1020800086EF94E090D86AE374E086EF94E08BD812
:1020900060E574E0CE0101964DD8CE0101960E9414
:1020A0008107182FCE01019640D8112331F00E94EC
:1020B000DB051092ED041092EC0463E574E0CE01B0
:1020C000019638D8CE0101960E948107182FCE01C3
:1020D00001962BD8112309F45EC00E945807809105
:1020E000DB059091DC05009711F0FED403C060E0A1
:1020F00070E0CB016093F2047093F3048093F404D6
:102100009093F50460E080E00E94290566E574E0A4
:1021100085E296E05AD860E08DE00E942905409162
:10212000DF055091E0056091DB057091DC0585E2EB
:1021300096E00E94E7016FE472E08BED95E00E946B
:102140006B088092ED059092EE05A092EF05B0929B
:10215000F0058092F1059092F205A092F305B092FD
:10216000F40510921506109216061092170610929A
:102170001806109205061092060610920706109295
:1021800008061092F5051092F6051092F7051092C8
:10219000F8051092EC0462E674E0CE0101960E940C
:1021A0009A08CE0101960E948107182FCE01019650
:1021B0000E949508112309F448C08091F10590917F
:1021C000F205A091F305B091F40580339547A10580
:1021D000B10571F080E395E7A0E0B0E08093F105F0
:1021E0009093F205A093F305B093F4050E942502A5
:1021F0006091E8047091E9048091EA049091EB0405
:102200000E9462056091E6047091E704072E000CBD
:10221000880B990B0E9441190E94100581E0809360
:10222000ED048093E5040E947E0662E080E00E9457
:10223000290565E674E085E296E00E94E5086FE412
:1022400072E08BED95E00E946B086AE774E0CE01C6
:1022500001960E949A08CE0101960E948107182FCC
:10226000CE0101960E9495081123E9F18091F105B4
:102270009091F205A091F305B091F405803D9A4844
:10228000AF4FBF4F71F080ED9AE8AFEFBFEF809393
:10229000F1059093F205A093F305B093F4050E9425
:1022A00025026091E8047091E9048091EA0490911C
:1022B000EB040E9462056091E6047091E704072E2A
:1022C000000C880B990BDDD70E94100581E08093EC
:1022D000ED041092E5040E947E066FE472E08BED3F
:1022E00095E00E946B086DE774E0CE0101960E94B4
:1022F0009A08CE0101960E948107182FCE010196FF
:102300000E949508112309F4FBC20E94580780918E
:10231000DB059091DC05009711F0E6D303C060E087
:1023200070E0CB016093EE047093EF048093F004AF
:102330009093F10461E080E00E94290560E874E078
:1023400085E296E00E94E50861E08DE00E942905A3
:102350004091DF055091E0056091DB057091DC054F
:1023600085E296E00E94E7016FE472E08BED95E074
:102370000E946B082091F2043091F3044091F40420
:102380005091F5046091EE047091EF048091F00497
:102390009091F1040E948F1A7B018C0120E030E0C3
:1023A000A9010E948D1B181654F420E030E040EA89
:1023B00051E4B701C8015FD787FD0CC0F8C120E028
:1023C00030E040EA51ECB701C8010E948D1B18169D
:1023D0000CF0D2C18091EC048111CEC124EF31E028
:1023E00040E050E02093A1053093A2054093A3055F
:1023F0005093A4051092A5051092A6051092A7056A
:102400001092A8058091990590919A05A0919B053D
:10241000B0919C0580939D0590939E05A0939F0588
:10242000B093A00512DB6093990570939A05809391
:102430009B0590939C0509DB0091950510919605ED
:102440002091970530919805DC01CB01801B910B01
:10245000A20BB30B81329105A105B10560F421E215
:1024600030E040E050E0281B390B4A0B5B0BCA01FF
:10247000B9010E945906E9DA6093950570939605B3
:102480008093970590939805E0DA6B017C016DE8E5
:1024900074E08091D5059091D6050E94E5082AE068
:1024A00043E050E060E070E08091D5059091D60562
:1024B0000E94090764E974E08091D5059091D605E2
:1024C0000E94E5082AE0B701A6018091D505909108
:1024D000D6050E94090766E974E08091D5059091C0
:1024E000D6050E94E5088091990590919A05A091E2
:1024F0009B05B0919C05B701A601481B590B6A0BBF
:102500007B0B2AE08091D5059091D6050E940907A2
:1025100066E974E08091D5059091D6050E94E508A2
:102520004091990550919A0560919B0570919C0589
:1025300080919D0590919E05A0919F05B091A00569
:10254000481B590B6A0B7B0B2AE08091D5059091B3
:10255000D6050E94090768E974E08091D50590913D
:10256000D6050E94E5082091F2043091F3044091D1
:10257000F4045091F5046091EE047091EF048091A1
:10258000F0049091F104CBD76B017C0120E030E0A6
:10259000A9010E948D1B181624F0F7FAF094F7F8A1
:1025A000F0940091D5051091D605A7019601C701B9
:1025B000B6010E94D31B882319F06AE974E019C0A0
:1025C00026013701E89477F82FEF3FEF4FE75FE7F9
:1025D000C301B2010E94D31B81110EC02FEF3FEF48
:1025E0004FE75FE7C301B20146D618162CF46EE937
:1025F00074E0C801FDDA6EC02FEF3FEF4FE75FE4F4
:10260000C701B6010E948D1B18164CF02FEF3FEF4B
:102610004FE75FECC701B6012ED687FF03C062EA21
:1026200074E0E7CF20E030E0A901C701B60123D66E
:1026300087FF08C06DE2C8010E945107F7FAF094C5
:10264000F7F8F0942AE037ED43EA5BE3C701B601FF
:1026500067D72B013C010E94611B6B017C010FD6E7
:102660009B01AC01C301B2015AD72B013C012AE006
:10267000B701A601C8010E9409076EE2C8010E94C5
:10268000510720E030E040E251E4C301B20158D6E6
:102690002B013C010E94611B6B01E12CF12C2AE013
:1026A000B701A601C8010E940907C701B601E7D515
:1026B0009B01AC01C301B20132D720E030E040E21F
:1026C00051E43ED6FED7AB0160E070E02AE0C801DD
:1026D0000E94090768E974E08091D5059091D605BC
:1026E0000E94E5084091EC0450E060E070E02AE0D0
:1026F0008091D5059091D6050E94090766EA74E09D
:102700008091D5059091D6050E94D30862E070E0D3
:1027100080E090E00E94590698D9609399057093E3
:102720009A0580939B0590939C056DEA74E086EF73
:1027300094E00E94E50881E08093EC0420E030E022
:1027400040E85EE36091E8047091E9048091EA0456
:102750009091EB04F5D50E9462056091E6047091BA
:10276000E704660F771F072E000C880B990B89D59D
:102770000E9410050E947E062091F2043091F3041D
:102780004091F4045091F5046091EE047091EF04CF
:102790008091F0049091F104C2D63B016C017B0161
:1027A0008C0120E030E0A901B8D7181654F420E0DD
:1027B00030E040EA50E4B701C8015DD587FF3DC075
:1027C00009C020E030E040EA50ECB301C601A5D7D3
:1027D00018169CF58091E40481112FC081E080934C
:1027E000E4042091E5044091F1055091F2056091D7
:1027F000F3057091F4058091ED059091EE05A0919F
:10280000EF05B091F005222329F08C599F4FAF4F6F
:10281000BF4F04C084569109A109B10984179507D7
:10282000A607B70751F08093F1059093F205A093A6
:10283000F305B093F4050E9425028091ED048823EE
:1028400009F450C00E947E068091F1059091F20536
:10285000A091F305B091F4054091ED055091EE057E
:102860006091EF057091F005841B950BA60BB70BDB
:10287000181619061A061B063CF0B095A0959095FF
:1028800081959F4FAF4FBF4F0297A105B105CCF483
:102890001092ED041092EC046091E6047091E7044C
:1028A000072E000C880B990BECD40E94100562E0F7
:1028B00080E00E9429056DEB74E085E296E00E94BD
:1028C000E5088091ED04882369F062ED74E086EFFD
:1028D00094E00E94E5086EE474E086EF94E00E94C4
:1028E000D3080EC069ED74E086EF94E00E94E5081D
:1028F0006EE474E086EF94E00E94D3081092E40442
:102900008091ED0481110E947E060E94BB09A7CA36
:102910000E941E1E8D819E819093E0058093DF05AD
:10292000F7CACF93E6EFF4E01382128288EE93E0C9
:10293000A0E0B0E084839583A683B7838AE092E029
:102940009183808385EC90E09587848784EC90E088
:102950009787868780EC90E0918B808B81EC90E06C
:10296000938B828B82EC90E0958B848B86EC90E04D
:10297000978B868B118E128E138E148EE3E9F5E001
:102980001682178210861186128613861486158683
:1029900016861786108A118A128A138A148A158A53
:1029A000E5E2F6E01382128286E392E0918380836F
:1029B0008BE18483CFEFC5838AE1868389E18783B6
:1029C00088E1808787E1818786E182871386148684
:1029D00015861686178661E080E10E947B04E1EE91
:1029E000F5E08CE192E09183808321E023831486DB
:1029F000158616861786108A118A128A138A148AF7
:102A0000158A168A178A80E090E0A0E8BFE3808FDD
:102A1000918FA28FB38F148E158E168E178E80A372
:102A200091A3A2A3B3A314A215A216A217A241E0D8
:102A300050E055A744A7C7A710A611A612A613A633
:102A400037E0348338E03583268325E0278316A6D4
:102A500014AA15AA16AA17AA10AE11AE12AE13AE7A
:102A600014AE15AE16AE17AE8093210690932206D3
:102A7000A0932306B0932406128210861186128634
:102A80001386CF010E94800C60E070E080E89FE335
:102A90000E94CA036FE472E08BED95E0CF910C9435
:102AA0009A088BED95E00C949508EF920F931F9385
:102AB000CF93DF93E80147FD02C034E001C034E169
:102AC000042E000C550B57FF03C051954195510939
:102AD000E32E022F242FAE0112D0CE01DF91CF9131
:102AE0001F910F91EF900895662777277EC191116E
:102AF000A7C3803219F089508550D0F708958F927E
:102B00009F92AF92BF92CF92DF92EF92FF920F937C
:102B10001F93CF93DF93CDB7DEB729970FB6F89405
:102B2000DEBF0FBECDBF6A01122FB02E2BE32017E0
:102B300020F0FF24F394F00E02C02CE3F22E0F2DB0
:102B400027E0AE014F5F5F4FA3D2BC014981842FC4
:102B50008970813031F0E1FC06C0E0FE06C090E2F1
:102B600005C09DE203C09BE201C090E05E2D507164
:102B700043FF3CC0911102C083E001C084E0811793
:102B800018F4212F281B01C020E051110BC0F601C1
:102B9000822F30E2882319F031938150FBCFC20E8F
:102BA000D11C20E0992329F0D6019C93F60131969F
:102BB0006F01C6010396E2FE0AC03EE4D6013C93D3
:102BC00041E411964C93119712963C9306C03EE651
:102BD000F601308341E641833283FC01322F40E22B
:102BE000332309F442C041933150FACF42FF44C02D
:102BF000911102C083E001C084E0811718F4212FF5
:102C0000281B01C020E051110BC0F601822F30E2D9
:102C1000882319F031938150FBCFC20ED11C20E0E4
:102C2000992329F0D6019C93F60131966F01C601D4
:102C30000396E2FE0BC039E4D6013C933EE41196C4
:102C40003C93119736E412963C9307C039E6F6019F
:102C500030833EE6318336E63283FC01322F40E298
:102C6000332319F041933150FBCFFC01E20FF11DEA
:102C700010828EEF9FEFA6C021E030E0911102C0DC
:102C800020E030E0161617061CF4FB01319602C056
:102C9000E1E0F0E02E0F3F1FBB2021F0EB2DF0E034
:102CA000319602C0E0E0F0E02E0F3F1FE12FF0E090
:102CB0002E173F071CF4121B212F01C020E08E2D80
:102CC000887159F4F601822F30E2882319F031938C
:102CD0008150FBCFC20ED11C20E0992329F0D601F0
:102CE0009C93F60131966F0151110BC0F601822FB2
:102CF00090E3882319F091938150FBCFC20ED11C31
:102D000020E00F2D060F9A81342F307144FF03C04D
:102D1000913309F40150101624F4093018F008E03A
:102D200001C001E0AB0177FF02C040E050E0FB01D1
:102D3000E41BF50BA1E0B0E0AC0FBD1FEA0FFB1FD9
:102D40008EE2A82E4B01801A91080B2D10E01195F0
:102D5000019511094F3FBFEF5B0721F4D601AC92FB
:102D600011966D01641775072CF08416950614F4FE
:102D7000818101C080E3415051093196D6011196FD
:102D80007D014017510724F0D6018C936701E2CFF3
:102D90006417750739F4963320F4953319F431111B
:102DA00001C081E3F6018083F701822F90E288233E
:102DB00019F091938150FBCFF701E20FF11D1082C2
:102DC00080E090E029960FB6F894DEBF0FBECDBF2D
:102DD000DF91CF911F910F91FF90EF90DF90CF90F7
:102DE000BF90AF909F908F9008958F929F92AF92D7
:102DF000BF92CF92DF92EF92FF920F931F93CF93E8
:102E0000DF93EC016B016115710519F0FB019183F2
:102E100080837E01FFEFEF1AFF0A0881802F90E088
:102E200066DE892B11F0E701F4CF0D3239F47E0113
:102E300082E0E80EF11C098111E008C00B3229F490
:102E40007E0192E0E90EF11C098110E0E701219773
:102E500043E050E060E371E0CE01F5D1892BB9F495
:102E6000239645E050E06BE271E0CE01ECD1892B76
:102E700009F42596C114D10419F0F601D183C08359
:102E80001111F0C060E070E080E89FE7F4C043E01B
:102E900050E068E271E0CE01D6D1892B59F4C1141B
:102EA000D10409F4E4C0F2E0EF0EF11CF601F18266
:102EB000E082DDC020E030E0A901C0E0D0E0F70111
:102EC00060EDA62EA00E89E08A1528F1912F926060
:102ED000B92E812F887012FF04C0811123C0219662
:102EE00021C081112197A5E0B0E000D3DC01CB0126
:102EF000880F991FAA1FBB1F9C01AD012A0D311D10
:102F0000411D511D283989E93807480789E15807CB
:102F100048F0166006C09EEFA9120AC013FD40C01B
:102F20001860B12E8FEFE81AF80A00811B2DC7CF69
:102F3000802F8F7D8534A1F580818D3211F4106151
:102F400006C08B3221F0319661E070E004C08181CF
:102F5000329662E070E080538A3018F0E61BF70B7F
:102F60001FC060E070E060389CE079075CF4DB0132
:102F7000AA0FBB1FAA0FBB1F6A0F7B1F660F771F0D
:102F8000680F711D3196DF0111978C9180538A3043
:102F900050F314FF03C0719561957109C60FD71FD7
:102FA00011FF08C0C114D10429F0CF010197F60127
:102FB00091838083CA01B90162D1212F237023300C
:102FC00019F04B015C0106C04B015C01B7FAB094EB
:102FD000B7F8B09420E030E0A901C501B4014BD1AD
:102FE000882309F43CC0D7FF06C0D195C195D1090B
:102FF00007E411E002C00FE511E06801F8E1CF1A23
:10300000D10890E2E92EF12CCE15DF056CF0F80125
:103010002591359145915491C501B40191D14B0150
:103020005C01CE19DF09F0CF04501109F594E79443
:103030000C151D0549F78A2D880F8B2D881F8F3F92
:1030400041F020E030E0A901C501B40114D18111A3
:1030500006C082E290E09093470680934606C50141
:10306000B40109C060E070E080E89FEF04C060E058
:1030700070E080EC9FE7DF91CF911F910F91FF905F
:10308000EF90DF90CF90BF90AF909F908F9008957A
:10309000283008F027E03327DA01990F311D87FD2A
:1030A000916000966105710539F432602E5F3D93A1
:1030B00030E32A95E1F708959F3F30F0803871059D
:1030C000610509F03C5F3C5F3D93913008F08068FA
:1030D000911DDF93CF931F930F93FF92EF92192FC0
:1030E000987F9695E92F96959695E90FFF27E354DB
:1030F000FE4F99273327EE24FF24A701E70105900F
:103100000894079428F4360FE71EF81E491F511D36
:10311000660F771F881F991F0694A1F705900794E3
:1031200028F4E70EF81E491F561FC11D770F881F90
:10313000991F661F0694A1F70590079428F4F80ECE
:10314000491F561FC71FD11D880F991F661F771F64
:103150000694A1F70590079420F4490F561FC71F46
:10316000D81F990F661F771F881F0694A9F78491AF
:103170001095177041F0D695C79557954795F794D8
:10318000E7941A95C1F7E3E6F1E06894159015917C
:1031900035916591959105907FE27395E118F10A5B
:1031A000430B560BC90BD009C0F7E10CF11E431FAE
:1031B000561FC91FD01D7EF4703311F48A95E6CFD7
:1031C000E894015030F0080F0AF40027021708F4C1
:1031D000202F2395022F7A3328F079E37D932A95C7
:1031E000E9F710C07D932A9589F60694979567951F
:1031F000379517951794E118F10A430B560BC90B35
:10320000D00998F023957E9173957A3308F070E396
:103210007C932013B8F77E9170617D9330F0839595
:1032200071E37D9370E32A95E1F71124EF90FF900D
:103230000F911F91CF91DF91992787FD9095089568
:10324000992788270895FB01DC014150504088F000
:103250008D9181341CF08B350CF4805E6591613466
:103260001CF06B350CF4605E861B611171F3990BD9
:103270000895881BFCCF40D008F481E00895E894BD
:1032800009C097FB3EF490958095709561957F4FAE
:103290008F4F9F4F9923A9F0F92F96E9BB2793955C
:1032A000F695879577956795B795F111F8CFFAF46C
:1032B000BB0F11F460FF1BC06F5F7F4F8F4F9F4F9D
:1032C00016C0882311F096E911C0772321F09EE8FB
:1032D000872F762F05C0662371F096E8862F70E061
:1032E00060E02AF09A95660F771F881FDAF7880F3B
:1032F0009695879597F90895990F0008550FAA0B91
:10330000E0E8FEEF16161706E807F907C0F01216F8
:103310001306E407F50798F0621B730B840B950BFB
:1033200039F40A2661F0232B242B252B21F4089550
:103330000A2609F4A140A6958FEF811D811D0895ED
:103340000BD078C069D028F06ED018F0952309F022
:103350005AC05FC01124A2C07ED0A0F3959FD1F3C4
:10336000950F50E0551F629FF001729FBB27F00D33
:10337000B11D639FAA27F00DB11DAA1F649F662788
:10338000B00DA11D661F829F2227B00DA11D621FD7
:10339000739FB00DA11D621F839FA00D611D221F91
:1033A000749F3327A00D611D231F849F600D211D75
:1033B000822F762F6A2F11249F5750408AF0E1F018
:1033C00088234AF0EE0FFF1FBB1F661F771F881F61
:1033D00091505040A9F79E3F510570F014C05EC057
:1033E0005F3FECF3983EDCF3869577956795B7954C
:1033F000F795E7959F5FC1F7FE2B880F911D969576
:10340000879597F9089597F99F6780E870E060E0E5
:1034100008959FEF80EC089500240A94161617066D
:1034200018060906089500240A94121613061406B5
:1034300005060895092E0394000C11F4882352F018
:10344000BB0F40F4BF2B11F460FF04C06F5F7F4FD0
:103450008F4F9F4F089557FD9058440F551F59F0B7
:103460005F3F71F04795880F97FB991F61F09F3F71
:1034700079F087950895121613061406551FF2CF9A
:103480004695F1DF08C0161617061806991FF1CFEA
:1034900086957105610508940895E894BB27662711
:1034A0007727CB0197F90895A1E21A2EAA1BBB1B1F
:1034B000FD010DC0AA1FBB1FEE1FFF1FA217B30700
:1034C000E407F50720F0A21BB30BE40BF50B661F16
:1034D000771F881F991F1A9469F7609570958095DA
:1034E00090959B01AC01BD01CF01089509D0A59F26
:1034F000900DB49F900DA49F800D911D11240895EF
:10350000A29FB001B39FC001A39F700D811D112424
:10351000911DB29F700D811D1124911D0895505869
:10352000BB27AA270ED086CF77DF30F07CDF20F0D4
:1035300031F49F3F11F41EF46CCF0EF4E095E7FBDD
:1035400062CFE92F88DF80F3BA1762077307840719
:10355000950718F071F49EF5A0CF0EF4E0950B2EB0
:10356000BA2FA02D0B01B90190010C01CA01A001D5
:103570001124FF27591B99F0593F50F4503E68F130
:103580001A16F040A22F232F342F4427585FF3CF71
:10359000469537952795A795F0405395C9F77EF442
:1035A0001F16BA0B620B730B840BBAF09150A1F08B
:1035B000FF0FBB1F661F771F881FC2F70EC0BA0F11
:1035C000621F731F841F48F4879577956795B79599
:1035D000F7959E3F08F0B3CF9395880F08F0992791
:1035E000EE0F9795879508950CD024CF1CDF40F0FF
:1035F00013DF30F021F45F3F19F005CF51114ECFAA
:1036000008CF29DF98F39923C9F35523B1F3951B0C
:10361000550BBB27AA2762177307840738F09F5FF3
:103620005F4F220F331F441FAA1FA9F333D00E2E62
:103630003AF0E0E830D091505040E695001CCAF7CF
:1036400029D0FE2F27D0660F771F881FBB1F261794
:1036500037074807AB07B0E809F0BB0B802DBF0167
:10366000FF2793585F4F2AF09E3F510568F0CBCE5D
:1036700015CF5F3FECF3983EDCF386957795679521
:10368000B795F7959F5FC9F7880F911D9695879518
:1036900097F90895E1E0660F771F881FBB1F621737
:1036A00073078407BA0720F0621B730B840BBA0BF5
:1036B000EE1F88F7E095089504D06894B111EECE1E
:1036C0000895D1DE88F09F5790F0B92F9927B75110
:1036D000A0F0D1F0660F771F881F991F1AF0BA95D6
:1036E000C9F712C0B13081F0D8DEB1E00895D5CE6F
:1036F000672F782F8827B85F39F0B93FCCF38695CC
:1037000077956795B395D9F73EF490958095709528
:1037100061957F4F8F4F9F4F0895EEDD08F48FEF37
:10372000089511F40EF475CE42C09DDED0F39923B6
:10373000D9F3CEF39F57550B87FF47D00024A0E65F
:1037400040EA900180585695979528F4805C660F62
:10375000771F881F20F026173707480730F4621BB1
:10376000730B840B202931294A2BA69517940794B3
:10377000202531254A2758F7660F771F881F20F02C
:1037800026173707480730F4620B730B840B200DA4
:10379000311D411DA09581F7B901842F9158880FE3
:1037A000969587950895A8DD880B990B08959F3FFE
:1037B00031F0915020F4879577956795B795880FEC
:1037C000911D9695879597F9089591505040660FF1
:1037D000771F881FD2F70895052E97FB16F40094E3
:1037E0000FD057FD05D060DE07FC02D046F408C0BC
:1037F00050954095309521953F4F4F4F5F4F08951D
:1038000090958095709561957F4F8F4F9F4F08954C
:10381000EE0FFF1F881F8BBF0790F691E02D1994C4
:103820000F931F93CF93DF938230910510F482E0C2
:1038300090E0E0914A06F0914B0620E030E0A0E0F5
:10384000B0E0309719F1408151810281138148170E
:103850005907C8F08417950769F4109731F012964C
:103860000C93129713961C9327C000934A0610934B
:103870004B0622C02115310519F04217530718F4E1
:103880009A01BD01EF01DF01F801DBCF2115310500
:10389000F9F0281B390B2430310580F48A819B8193
:1038A0006115710521F0FB019383828304C090931D
:1038B0004B0680934A06FE01329644C0FE01E20F99
:1038C000F31F8193919322503109398328833AC0A1
:1038D0002091480630914906232B41F420910202A1
:1038E000309103023093490620934806209100024C
:1038F000309101022115310541F42DB73EB74091B9
:10390000040250910502241B350BE0914806F0910A
:103910004906E217F307A0F42E1B3F0B28173907BF
:1039200078F0AC014E5F5F4F2417350748F04E0F1B
:103930005F1F50934906409348068193919302C0BC
:10394000E0E0F0E0CF01DF91CF911F910F9108955A
:10395000CF93DF93009709F481C0FC013297138263
:103960001282A0914A06B0914B06109781F42081F3
:103970003181820F931F2091480630914906281704
:10398000390751F5F0934906E093480667C0ED0109
:1039900020E030E0CE17DF0740F44A815B819E01D2
:1039A00041155105F1F0EA01F5CFD383C28340817F
:1039B0005181840F951FC817D90759F488819981BF
:1039C000840F951F0296918380838A819B819383C4
:1039D00082832115310529F4F0934B06E0934A06C2
:1039E0003DC0E901FB83EA8349915991C40FD51F7A
:1039F000EC17FD0761F480819181840F951F029679
:103A0000E90199838883828193819B838A83E0E0A3
:103A1000F0E012968D919C911397009719F0FD019B
:103A2000DC01F7CF8D919C9111979D012E5F3F4F47
:103A3000820F931F209148063091490628173907B5
:103A400069F4309729F410924B0610924A0602C08E
:103A500013821282B0934906A0934806DF91CF915A
:103A600008956F927F928F929F92AF92BF92CF9262
:103A7000DF92EF92FF920F931F93CF93DF93009704
:103A800081F4CB01DF91CF911F910F91FF90EF90C7
:103A9000DF90CF90BF90AF909F908F907F906F906E
:103AA000BFCEFC01E60FF71F9C0122503109E2173F
:103AB000F30708F4A5C0EC01D9010D911C911197F1
:103AC00006171707A8F00530110508F497C0C801BC
:103AD00004978617970708F491C002501109061B36
:103AE000170B019311936D937C93CF0131DF86C047
:103AF0005B01A01AB10A4C01800E911EA0914A06EA
:103B0000B0914B06612C712CE12CF12C109709F42B
:103B100046C08D919C911197A815B905B1F56C011E
:103B200042E0C40ED11CCA14DB0478F14C018A189F
:103B30009B08640142E0C40ED11C1296BC901297FF
:103B40001396AC91B5E0CB16D10440F0B282A383BA
:103B500091828082D9016D937C9309C00E5F1F4FC3
:103B6000800F911FF90191838083EB2DFA2FE114CF
:103B7000F10431F0D7011396FC93EE9312973EC0F7
:103B8000F0934B06E0934A0639C06816790608F4AC
:103B90003C017D0112960D90BC91A02DB7CF809174
:103BA00048069091490688169906E1F4661677064C
:103BB000C8F48091000290910102009741F48DB702
:103BC0009EB74091040250910502841B950BE817A3
:103BD000F907B0F4F0934906E0934806F9017183C0
:103BE00060830CC0CB011CDE7C01009749F0A8016A
:103BF000BE011BD0CE01ACDEC70104C0CE0102C0A5
:103C000080E090E0DF91CF911F910F91FF90EF90B6
:103C1000DF90CF90BF90AF909F908F907F906F90EC
:103C2000089581E090E0F8942DC0FB01DC0102C012
:103C300001900D9241505040D8F70895FB01DC01EE
:103C400001900D920020E1F70895FB01DC01415045
:103C5000504030F08D910190801919F40020B9F78F
:103C6000881B990B0895FB01DC014150504048F03E
:103C700001900D920020C9F701C01D9241505040A3
:103C8000E0F7089511E0C3EBD1E000E005C0802F1C
:103C9000FE01BEDD2196011DC43BD10780E008076F
:063CA000B1F7F894FFCF1C
:103CA60000004C068000000000004E09E701E6080F
:103CB6009A091709F508090900000000AD0C800CE7
:103CC600C90C480B320BFA0AD90AA50A840A2E0A2D
:103CD600F60900000000F30DE701F309E601564D71
:103CE6004450565F317C305F564D4450560D0A00A5
:103CF600203120726563656976656420200054452D
:103D0600535400546573742052656365697665641F
:103D1600005465737420616761696E00436F6D6D51
:103D2600756E69636174696F6E7320657374616221
:103D36006C69736865642C20726563656976656471
:103D460020200054617267657420417A202020008B
:103D560043757272656E7420417A202020002073AC
:103D66006F206120676F6F642073657175656E6380
:103D76006520776F756C6420626520617320666FBD
:103D86006C6C6F7773003120534132323023202020
:103D960020736C657720746F20617A696D7574681D
:103DA6002072657175657374003220434C232020A0
:103DB60020202020636C6F636B77697365206D6FBD
:103DC60076656D656E742072657175657374003302
:103DD60020534C3138302320202073696D756C6177
:103DE6007465732074686520636F6D7061737320EA
:103DF600726F7574696E652070726F766964696E2C
:103E06006720313830206465677265657300342039
:103E1600534C323031232020207465737473207420
:103E260068652077697468696E203230206465673A
:103E360072656573206269742077686963682073A8
:103E4600686F756C64207265647563652073706550
:103E5600656420746F206F6E6520746869726400F3
:103E66003520534C3231382320202073686F756C0F
:103E7600642073746F70207768656E207468697348
:103E860020697320656E746572656420626563617E
:103E96007573652077652061726520776974686936
:103EA6006E2074686520636F6465642035206465E0
:103EB600677265652077696E646F772077686963D6
:103EC6006820646566696E657320746172676574DF
:103ED60020726561636865642E00656D657267654D
:103EE6006E63792073746F702069732045532300C5
:103EF60045530053410054617267657420417A3A14
:103F06002000434C00446972656374696F6E2043F8
:103F16006C6F636B776973653A00434300534C00DB
:103F260043757272656E7420417A3A2000564D448C
:103F360050455F003A323A007C006E616E00696E51
:103F460066006F7666005F564D445045007769748B
:103F560068696E203230206465672020004D6F76D8
:103F6600656D656E742053746F707065642E2020C5
:103F760020004D6F76696E67004E6F746D6F7669BF
:043F86006E67000062
:00000001FF
